:1000000000000420750300005D0300005F03000092
:1000100061030000630300006503000000000000AE
:100020000000000000000000000000006703000066
:1000300069030000000000006B0300006D03000076
:100040006F0300006F030000311500006F03000014
:100050006F0300006F0300006F0300006F030000D8
:100060006F0300006F0300006F0300006F030000C8
:100070006F0300006F0300006F0300006F030000B8
:100080006F0300006F0300006F0300006F030000A8
:100090006F0300006F0300006F0300006F03000098
:1000A0006F0300006F0300006F0300006F03000088
:1000B0006F0300006F03000000000000000000005C
:1000C0006F0300006F0300006F0300006F03000068
:1000D0006F0300006F0300006F0300006F03000058
:1000E0006F0300006F0300006F03000000000000BA
:1000F000000000006F030000000000006F0300001C
:1001000000000000000000000000000000000000EF
:1001100000000000000000000000000000000000DF
:1001200000000000000000000000000000000000CF
:1001300000000000000000000000000000000000BF
:1001400000000000000000000000000000000000AF
:10015000000000000000000000000000000000009F
:10016000000000000000000000000000000000008F
:10017000000000000000000000000000000000007F
:10018000000000000000000000000000000000006F
:10019000000000000000000000000000000000005F
:1001A000000000000000000000000000000000004F
:1001B000000000000000000000000000000000003F
:1001C000000000000000000000000000000000002F
:1001D000000000000000000000000000000000001F
:1001E000000000000000000000000000000000000F
:1001F00000000000000000000000000000000000FF
:10020000354936480A1A02D0072291438D463449AF
:1002100034480A1A06D00722914381F30988022242
:1002200082F3148830483149314A00F044F83148AB
:100230003149324A00F03FF831483249324A00F041
:100240003AF832483249334A00F035F832483349F7
:10025000334A00F030F833483349344A00F02BF881
:1002600033483449344A00F026F8344834490022EF
:1002700000F02CF833483449002200F027F83348C6
:100280003349091A082902DB002202604160314A21
:1002900090471F481F49884205D00268043003B4C4
:1002A000904703BCF7E700208646EC46002000217B
:1002B000294A9047FEE7884207D0521A05D00378B2
:1002C00001300B700131013AF9D17047884202D0F8
:1002D00002700130FAE770470000042000E00320BC
:1002E0000000042000000420E82600000000002098
:1002F00034000020D0030000D0030000C82200001A
:10030000E826000000000020000000200C23000070
:100310000C2300000C2300000C2300000C23000021
:100320000C2300000C2300000C230000E626000034
:100330001C2700003400002034000020340000207E
:100340007406002074060020740600207406002045
:10035000742600209D030000D11E0000FEE7FEE78A
:10036000FEE7FEE7FEE7FEE7FEE7FEE7FEE7FEE765
:1003700000F002B8FFF7FCBF0F484FF007018843B9
:1003800085460E4880470E48016841F470010160BF
:10039000BFF34F8FBFF36F8FFFF732BF09480A4992
:1003A0000A4A884207D0521A05D0037801300B70F0
:1003B0000131013AF9D1704700000420A51F000067
:1003C00088ED00E00C230000000000200000002069
:1003D000F0B595B01D46164608460C4601F006F8E5
:1003E0001A9B0D93CDE9086500252B46082205A927
:1003F00020460A958DF82C500C9501F014F8079BB7
:100400000293069B03939DF814308DF8115003F06E
:100410000302012A1DD1BDF81420059DC3F3C203B8
:10042000C2F383168DF81030B20008230EA92046BF
:1004300000F0F9FFC5F3952508AB0093324602ABF7
:100440000EA9284600F0C6FB204600F0D3FF15B0E9
:10045000F0BD022AF8D1BDF81650C3F3C203C5F3AC
:1004600089158DF810300827082D2E4628BF08263C
:100470003B4632460EA9204600F0D5FFAD1B08AB27
:1004800002AA31460EA8374400F008FC002DEBD13B
:10049000DAE70000014B01221A7070477500002056
:1004A0007047000070B5124D06460FCD88B06C46FF
:1004B0000FC495E80F00002E84E80F004FF0FF33C3
:1004C0004FF00602CDE90023CDE90233094A0A487C
:1004D0004FF0EB7308BF00226946069300F0EAFF75
:1004E00008B100F037FC054B1E7008B070BD00BFAE
:1004F0000C230000950400000000002034000020C0
:1005000007B5044B0093044A4023FFF761FF03B093
:100510005DF804FB1D0500003500002038B50D4BCB
:100520000D4D002018700D4804782D5DD2B21C4688
:1005300065B1043001F084FC08B100F00BFC084BFD
:100540001A7812B12378002BFBD038BD0C3001F0A3
:1005500033FAF1E7750000201806002000000020A3
:100560003400002008B50848084A0378D35C3BB142
:10057000043001F0FFFBBDE808400020FFF792BF08
:100580000C3001F0C5F9F6E7000000201806002045
:100590000120FFF787BF000008B5FFF7F9FF044807
:1005A000042100F07FFA034B01225A7108BD00BFFD
:1005B000E822000014000020037813F0040216D093
:1005C00003F00303012B03D0022B09D00120704755
:1005D0000A6800880232C0F3831002440A60F5E71B
:1005E0000B684288023303EB92130B60EEE7104670
:1005F000704700002DE9F04F044685B0861C0020AE
:100600000F46154600F0FEFB454801683960D0E909
:100610000132134401335B1A824600F21C4700F595
:10062000836900F21448B3421BD30020002D72D01E
:1006300004F00F039B0143F0050363F30F00DAF8A6
:100640000020DAF808301340033316444AF8230038
:100650000020CAF8006000F0D7FB012005B0BDE81B
:10066000F08F0121384600F0F4FB484600F009FC09
:10067000404600F006FCDAF80400DAF808B0009012
:1006800000EA0B0003300AEB80006946FFF794FF95
:10069000009B50BB0BEA03020AEB820203F1020C3F
:1006A000D2680192013303EA0B0B0AEB8B0B02F0C9
:1006B0000302012ADBF80C10CDF800C023D0022A77
:1006C00016D08346404600F0DFFB10B1009BCAF80D
:1006D00004305946384600F0BCFBDAE901231344E4
:1006E000DAF8002001339B1A9DE70BEA0300C9E703
:1006F000BDF80630C3F3891303334FEA114B0CEBFB
:1007000093030093DEE7BDF80430C3F383134FEA8D
:10071000114B6344F5E7A40544F006008FE700BFE2
:10072000480100200B4B0C48FF2210B59A600022B4
:10073000C3F81824C3E90022C3F8142483F8202442
:1007400000F00DFE044610B9044800F076FE204685
:1007500010BD00BF48010020F82200006023000007
:1007600030B50A4C71B10A4A0A49121BD20800235B
:100770009A4201D1002030BD31F82350854202D089
:100780000133F5E7034654F83300F4E7C8220000CC
:10079000E822000000000020094B013903EBC000F3
:1007A000032909D8DFE801F00A0204060420704793
:1007B00000797047407970470020704702207047E9
:1007C000C8220000034BD3E90030C31A58425841F5
:1007D000704700BF480100202DE9F04385B0FFF7C6
:1007E000F1FF0646002840F0F5807B4DC5F818045F
:1007F000BFF34F8F6B68AC6800932340033305EB66
:1008000083006946FFF7D8FE009B18B1D5F818247D
:10081000002A5FD004EA0302991C013305EB82022F
:10082000234005EB8303D268DB68029302F00303E5
:10083000022B0192009160D1BDF806306748C3F3E6
:100840008917502FB84628BF4FF0500868F38F1310
:1008500008F10801ADF8063000F099FD06460028C1
:1008600000F0A38000F0C2FD0023082201A9304659
:1008700000F0CFFD009924EA01020132B8EB820FAB
:100880004FEA820332D95FFA88F85BB32140DCB2C9
:10089000A8EB040803315FFA88F9A046504C05EB39
:1008A000810108234246304600F0B3FD34B108F11F
:1008B00008034A462146304600F0ABFD009B033753
:1008C00003EB97070097D5F81834002B49D1D5F8DA
:1008D000104459E02A689A428FD86A60304605B0C1
:1008E000BDE8F0833E491C469946DAE70C40E11C1E
:1008F0000823424605EB8101DDE7012B55D1BDF808
:1009000004303648C3F38311062928BF062161F35A
:10091000891302318900ADF8043000F038FD064635
:10092000002842D000F062FD0023082201A93046D1
:1009300000F06FFD0027BDF80420C2F38312BB0056
:10094000974203F10803BED200994A1C21400331AB
:10095000009205EB81010422304600F05AFD013778
:10096000E9E7304600F046FDFFF72CFF80F001007C
:10097000C6B2B3E7E3685B7923B1236831461B68ED
:1009800020469847E3681C68002CF3D1304600F0FD
:1009900031FD204600F036FAD5F818340BB9009B2B
:1009A0006B60002000F030FADEE7D5F8104454B94F
:1009B0000C4B0D480D49C01AC008000440F002005D
:1009C00000F062F8D0E7236820469B689847E36808
:1009D0001C68ECE7002681E748010020F8220000AF
:1009E00054010020C8220000E0220000492300003A
:1009F0002DE9F74F224D04460F46924601A90122E8
:100A00001846D5F808909B46FFF7F4FD20B3019EE9
:100A10004FF00008B21CD84508EB020126D1194856
:100A2000002100F0F3F980F31000000440EA1440C4
:100A3000E400731C04F0380403EA090306EA09061B
:100A400044F0010405EB8303033644EA881444EAC6
:100A50008724D86045F8264095F820341BB1FFF76D
:100A6000BBFE0028FBD103B0BDE8F08F09EA01010D
:100A700005EB81015AF82830CB6008F10108CAE77C
:100A8000480100206405002000231A46FFF7B0BF8C
:100A900007B50123019201AAFFF7AAFF03B05DF891
:100AA00004FB000030B50F49D1F8102403460020A4
:100AB000144634B9DC6820714AB9C1F81034226098
:100AC00030BDE4682579854206D02468F1E7D26814
:100AD000116821601360F3E701300A28E8D14FF074
:100AE000FF30EDE748010020094A38B50123D2F86C
:100AF000104482F820341D4604B938BDE3685D71A6
:100B0000236820465B689847E3681C68F4E700BFE9
:100B10004801002007B503460846197A052911D077
:100B20005B7A2BB1094A0A49019000F007FA019853
:100B30000849019000F002FA019803B05DF804EB57
:100B400000F0F1B9002AF8D0F2E700BF6C230000F2
:100B5000712300009123000030B5C38885B004469E
:100B60000D4633B1144A00921449154A284600F044
:100B7000E5F9217A05291DD0637A4BB1A088FFF7EA
:100B80000BFE104B104953F82020284600F0D6F9F0
:100B9000227A0E4BA08853F8222003920021FFF7FF
:100BA000DFFD039A0A490346284605B0BDE83040F8
:100BB00000F0C4B905B030BD6C2300007C230000F8
:100BC00074230000F8230000712300001C2400009F
:100BD000942300002DE9F04385B01F460C9D0023AF
:100BE00095F80C902B7306460C46904629463846DD
:100BF000FFF7B2FFB8F1060F09D8DFE808F00412DA
:100C0000181F283340003146284600F097F900228B
:100C100029463846FFF77EFF85F80C9005B0BDE801
:100C2000F08322683146284600F088F9EFE7D4E9DE
:100C300000233146284600F081F9E8E7A3680093D5
:100C40003146D4E90023284600F078F9DFE7E3686D
:100C50000193A36800933146D4E90023284600F0AD
:100C60006DF9D4E723690293E3680193A3680093C5
:100C70003146D4E90023284600F060F9C7E76369EC
:100C8000039323690293E3680193A36800933146B9
:100C9000D4E90023284600F051F9B8E708292DE9E6
:100CA000F74F80460E4617461C463CD8002593F861
:100CB0000C901D7319461046FFF74EFFDFF888A011
:100CC000DFF888B0AE4231D918F8052059462046E1
:100CD00000F034F90135082DF4D11949194DDFF828
:100CE00070A0204600F02AF94FF0000B5E4522D993
:100CF00018F80B207E2A05D81046019201F086FADA
:100D0000019A00B92E225146204600F017F90BF146
:100D1000010BBBF1080FE9D1012221463846FFF74C
:100D2000F9FE84F80C9003B0BDE8F08F51462046E0
:100D300000F004F9CEE72946204600F0FFF8E6E788
:100D4000A8230000A6230000A42300009E23000087
:100D5000AA2300001FB50021039001AA44F201005C
:100D6000CDE9011100F004F805B05DF804FB0000C6
:100D700010B572B6FFF7B8FEFFF72EFD0028FBD1C5
:100D8000104B114C1149E41AE408240444F001000A
:100D9000FFF77AFE0E4B1B68DB0700D500BE0D493E
:100DA00044F00200FFF770FEBFF34F8F0A490B4B70
:100DB000CA6802F4E0621343CB60BFF34F8F00BFF9
:100DC000FDE700BFC8220000E02200003024000040
:100DD000F0ED00E03C24000000ED00E00400FA0526
:100DE00072B6024A1368013313607047040600208C
:100DF000034A1368013B136003B962B6704700BF32
:100E000004060020FFF7ECBFFFF7F2BF10B5034662
:100E100053E8000F0A4643E8002494F0000FF7D18E
:100E200010BD10B5034653E8002F42EA010043E825
:100E3000000494F0000FF6D110BD10B5034653E83E
:100E4000000F00EA010243E8002494F0000FF6D1FD
:100E500010BD10B5034653E8002F02EB010043E834
:100E6000000494F0000FF6D110BD10B5034653E80E
:100E7000002FA2EB010043E8000494F0000FF6D12C
:100E800010BD0121FFF7CDBF0021FFF7D6BF10B580
:100E900090B1D0E9012301689B1ADBB20A60013BE3
:100EA000DBB2FF2B026802D10020107110BD116867
:100EB0004C1C14600B70F2E70E20F7E738B50446BF
:100EC0000020FFF79FFF226863681168994213D9D9
:100ED000481E106011F8015CE368218A01FB0535AA
:100EE000A36811791B1ADBB2994200D2137100205A
:100EF000FFF78AFF284638BD0025F8E738B50546D4
:100F000000200C46FFF77EFF2A681368591C116009
:100F1000E968641A298AB4FBF1F41C70BDE8384012
:100F20000020FFF771BF826810B504462AB14369FB
:100F30000168006998470023A36010BD0EB403B593
:100F4000039921B104AB01AA019300F077F802B034
:100F50005DF804EB03B070470A2938B504460D4626
:100F600002D10D21FFF7F8FFA3682268591CA16088
:100F7000D554D4E901329A4204D32046BDE8384022
:100F8000FFF7D1BF38BD00002DE9F84F9846DDE9E5
:100F90000A43154682460F460A464FF00109AA4207
:100FA0000FD2C14538BFC14613F0010B01D16CB956
:100FB00000240126B8F1010F1BD908F1FF386E4358
:100FC000F8E709F10109B2FBF5F2E8E79B070ED556
:100FD000B8F1000F0CBF30262026A145E9D2013C14
:100FE00031465046FFF7B8FF002CF6D1E0E7202647
:100FF000F3E7B7FBF6F39D42E1D9DFF83C80B7FB9E
:10100000F6F3504618F8031006FB1377FFF7A4FF1A
:101010003346AB42B6FBF5F6F1D2BBF1000F02D07E
:101020000CB1A14501D3BDE8F88F20215046013C09
:10103000FFF792FFF4E700BF492400002DE9F74FC6
:10104000054617468846002900F0428118F8011B22
:1010500049B92B7B002B00F03B81284603B0BDE84B
:10106000F04FFFF760BF252940F0B780002698F8C1
:1010700000302D2B424608F1010823D0302B24D01C
:101080002B2B25D000242A2B02F1010123D13B6810
:101090001A1D1B683A601C440A4613782E2B26D171
:1010A00001324FF0000A104610F8011BA1F1300C7C
:1010B000BCF1090F1DD80A2303FB0A13A3F1300A60
:1010C0000246F0E746F00106D1E746F00206CEE719
:1010D00046F00406CBE711F8013CA3F130000928E3
:1010E000DBD80A2202FB0434303C0A46CBE74FF03F
:1010F000000A12F8011B01F0FB0068289046F8D0A6
:10110000782909D86F290CD8632962D022D82529DB
:1011100063D0582900F0888098F80030002B95D1D2
:1011200097E770390829F7D801A353F821F000BFD9
:10113000AB12000019110000191100003912000053
:1011400019110000171200001911000019110000F8
:1011500029120000642901D06929DDD13A68D2F84A
:101160000090111D89EAE9723960A2EBE9724FF033
:10117000010B092A35DCD34538BFD3462CB1B9F170
:10118000000F01DB720700D5013CB30702D5BAF1AD
:10119000000F03D0F00701D44CBB0024B9F1000FBD
:1011A0002DDAC9F100092D212846FFF7D5FE06F0FA
:1011B0000302022A04D1BAF1000F01D11CBB0024A2
:1011C000CDE9004653460A2249462846FFF7DCFE91
:1011D000A2E73B681A1D19783A602846FFF7BCFE63
:1011E0009AE70A230BF1010BB2FBF3F2C1E7A34527
:1011F000D4D220212846013CFFF7AEFECCE7710790
:10120000D5D52B21D0E7A345DAD230212846013CA1
:10121000FFF7A2FED2E73968CDE900460A1D3A6021
:1012200053460A220968D0E739680A1D3A60CDE9B9
:10123000004653461022F5E73B681A1D3A6016F047
:101240000106D3F8009028D1B9F1000F03D0484629
:1012500001F00AF80646B44200D904BB09F1FF398F
:1012600019F8011F00293FF457AF2846FFF774FE15
:10127000F6E728460136FFF76FFE19F80610002939
:10128000F7D1A642BFF448AF002C3FF445AF202170
:101290002846013CFFF760FEF3E70026EDE720213A
:1012A0002846013CFFF758FED5E73B681A1D3A6017
:1012B000302128461C68FFF74FFE78212846FFF7AB
:1012C0004BFE00220823CDE90032214610227CE7A4
:1012D00003B0BDE8F08F00BF2DE9F84FB0F806A0CD
:1012E0004579D2F800B09DF828900AFB05F5043D39
:1012F00088460BEB0301A94203F1040488BFA5EB68
:10130000030BB4FBFAF607460AFB1644C2F800B01A
:101310004EB9AAEB04055D4528BF5D46BBF1000F41
:1013200004D1BDE8F88F3F68013EF1E7043408EBD3
:1013300006003C442A46B9F1000F0DD02146ABEB24
:10134000050B00F068FFDA452E443F6855464FF024
:10135000000428BF5D46E1E701462046EFE7FFF7BE
:1013600096BDF8B546790146721E054600239342A4
:101370002D6803D30024A64202D8F8BD0133F6E756
:101380000F682846FFF7BAFD01343946F3E72DE927
:10139000F843068ACD1C0746FFF790FD043E35440E
:1013A0000446B5FBF6F5F0B14FF48073EDB28380DF
:1013B000C680013D076081464FF00008A84512D263
:1013C0003846FFF77BFD064648B163790133637108
:1013D00008F10108C9F8000007608146EEE72046E1
:1013E000FFF7BFFF34462046BDE8F88301210430F3
:1013F000FFF72FBD10B5012104460430FFF735FD7E
:1014000010F0FF0F04D12046BDE81040FFF7A9BF40
:1014100010BD1FB503920022009203AAFFF75CFFE4
:1014200005B05DF804FB1FB503920122009203AAE8
:10143000FFF752FF05B05DF804FB836800225A6095
:10144000C3E904229A60DA601A6070471FB5037816
:101450008DF800304368019383688DF80830C368C5
:10146000054A0393054B684653F8213052F8211082
:10147000984705B05DF804FB080600201006002020
:101480001FB503788DF800304368019383688DF8A9
:101490000830C368054A0393054B684653F821306A
:1014A00052F82110984705B05DF804FB08060020AB
:1014B00010060020F0B5194B90F800C0DFF86CE082
:1014C00043F82C20164B16460A6943F82C204B7F14
:1014D0000EF80C300C4607460FCC89B06D460FC590
:1014E00094E80F0085E80F001EF80C30CDF810C00E
:1014F0004BB1002E0B4A694608BF3246381D00F03A
:1015000055FB09B0F0BD002E074A694608BF3246B8
:1015100007F10C0000F026F9F3E700BF10060020E9
:10152000080600204D140000811400001806002059
:10153000014B1B68184700BF1C06002038B50B4B39
:1015400098420C4601D0002038BD0020FFF75AFC1D
:10155000074B1D7915B901221C601A710020FFF795
:1015600053FC002DEFD01120EEE700BF002000401B
:101570001C060020034B984201BF034B00221A6057
:101580001A717047002000401C06002000234350C1
:1015900082B043580193019B02B070470A4610B5D0
:1015A0004FF48E71FFF7F2FF136A9168C95C136AFA
:1015B00001331362C0F81C1510BD8B690A4610B5C3
:1015C0004FF4847123B9FFF7E1FFD0F8183510BD4F
:1015D000FFF7DCFF536AD168D0F81805C854536A86
:1015E00001335362F3E700001FB501238DF800308B
:1015F000044BCDE90110D3E900126846904705B0CD
:101600005DF804FB2406002030B54C48D0F80433C4
:1016100013F4007F85B005464DD0D0F82431002B5F
:1016200049D04FF49271FFF7B1FF4FF40173C0F846
:101630000833434B93F829200AB9012242603F49FD
:1016400002228DF80020D1F88024C1F88024039272
:101650009A690292DA6801920022C3E9062268467A
:10166000D3E9001290473548D0F81C315BB13449BA
:101670004A690B6A9A420A464AD991F82830002BE7
:1016800046D1FFF78BFF2D48D0F844318BB14FF492
:10169000A271FFF77BFF2A4B93F829200AB10122A0
:1016A00002609A692AB10022586AD9689A61FFF7E4
:1016B0009BFF05B030BDD5F804335B07D3D5D5F813
:1016C0000831002BCFD01E4C1C482146FFF775FF78
:1016D000636AA2699A422346C5D1E269E1684AB1C8
:1016E0002369E3600023606AA261E3616362FFF73C
:1016F0007BFFB8E794F829200AB901226A600F4AF3
:101700004FF40170C2F808030022586A9A61EEE7AC
:101710000A484FF48E71FFF739FF5369002BB2D09E
:1017200051690291002391688DF800300191536155
:101730006846D2E900139847A5E700BF00200040A3
:10174000240600201F2886BF00F01F00044B4FF026
:10175000A04300F5E070022243F82020704700BF4C
:10176000000300502DE9F843634B057991462C2284
:1017700002FB0532064692F82A200C469846002ABB
:1017800040F0B6805D490068FFF7D8FE07460028A4
:1017900040F0B08021684A1C10D01F2987BF584AEA
:1017A00001F01F030B464FF0A0420120984003F5C3
:1017B000E073C2F80805032042F823006068431C68
:1017C0000DD01F288BBF00F01F0303464C4A4FF07B
:1017D000A04203F5E0734FF0000C42F823C03368D9
:1017E000A269C3F8242594F814C0627DBCF1010FEE
:1017F0004CEA0202C3F86C25C3F81405C3F80C15B3
:101800002BD1A168481C0DD01F298BBF01F01F02EE
:101810000A463B484FF0A04002F5E0724FF0000C42
:1018200040F822C0E068421C13D01F2887BF344A0A
:1018300000F01F0C84464FF0A0424FF0010E0EFA4C
:101840000CFE0CF5E07CC2F808E54FF0030E42F800
:101850002CE0C3F80805C3F810152C236B4308EBE4
:101860000302C2F80490226948F80320B9F1000F7E
:101870002BD03068247F4FF48E71FFF787FE3068DD
:101880004FF4A271FFF782FE32681E4BC2F8043398
:10189000110B42F30732002AA8BF02F160404FEA61
:1018A0004413BABF184801F00F0400F56140DBB2E1
:1018B000B4BF035580F8003301F01F01012303FA80
:1018C00001F15209114B43F8221033680422C3F886
:1018D00000252C2303FB05830022C3E9062283F89D
:1018E00029205A61012283F82A203846BDE8F8836E
:1018F0000827FAE71127F8E7240600200916000058
:10190000000300508000020014ED00E000E100E060
:101910002DE9F04103680479244D0022C3F8002525
:101920002C2202FB0452014652686AB1204AC3F8D5
:10193000082343F30732C3F3043652090120B040B1
:1019400020321C4E46F82200D3F80C05D3F814853B
:10195000D3F80865D3F810754FF0FF329042C3F802
:101960001425C3F80C25C3F80825C3F8102501D0A9
:10197000FFF7E8FEB8F1FF3F02D04046FFF7E2FE76
:101980007A1C02D03846FFF7DDFE731C02D03046C9
:10199000FFF7D8FE0868FFF7EDFD2C2303FB045486
:1019A000002384F82A306360BDE8F081240600201B
:1019B0008402020000E100E02DE9F047204F90F89A
:1019C00004904FF02C0808FB097405466669002E48
:1019D00034D162610068A16026624FF48E7184F890
:1019E0002860FFF7D3FD2868012383602146FFF7B5
:1019F000D5FD6368A0468BB92868D4F814A0236A83
:101A00009A4511D82A68D2F81C31002BFBD001234B
:101A1000D3602C2303FB097300225A613046BDE8D2
:101A2000F08794F828303BB9D0F81C31002BF8D05F
:101A30004146FFF7B3FDE2E70F26EAE71126EDE79F
:101A4000240600200023435082B043580193019B99
:101A500002B070471FB501238DF80030044BCDE96B
:101A60000110D3E900126846904705B05DF804FB09
:101A7000500600201F2886BF00F01F00044B4FF0C7
:101A8000A04300F5E070022243F82020704700BF19
:101A9000000300507FB5434AD2F82461002E60D085
:101AA00010464FF49271FFF7CDFF02238DF80030FE
:101AB000D2F88034C2F880340393D2F83C350293D4
:101AC000394BDA6801920022C3E906226846D3E95D
:101AD000001290473348D0F8443173B14FF4A271EB
:101AE000FFF7B0FF304B9A693AB10022C3E90622F2
:101AF000D968D0F83C05FFF7ADFF2A48D0F820316F
:101B0000ABB14FF49071FFF79DFF0123C360264BEB
:101B10005A6962B1D0F84C150291002299688DF88B
:101B2000002001915A616846D3E9001290471D4890
:101B3000D0F858319BB14FF4AC71FFF783FF1A4BCB
:101B40005A6962B1D0F84C150291002299688DF85B
:101B5000002001915A616846D3E90012904704B011
:101B600070BDD2F81031002BB4D04FF488711046FC
:101B7000FFF768FF0C4BD2F83C0599698842A9D160
:101B8000DC69D96864B1D2F8005225F02005C2F8AA
:101B900000521A699C61DA60DE61FFF75BFF99E72A
:101BA0009C61FAE700200040500600202DE9F84330
:101BB0006A4B06799146242202FB0632044692F8CB
:101BC00020200D469846002A40F0C38064490068F2
:101BD000FFF7B4FC0746002840F0BD802868421C8F
:101BE00010D01F2887BF5F4A00F01F0303464FF045
:101BF000A0420121994003F5E073C2F808150321C2
:101C000042F8231069684B1C0DD01F298BBF01F0CF
:101C10001F030B46534A4FF0A04203F5E0734FF009
:101C2000000C42F823C02368AA69C3F8242595F85C
:101C300014C06A7DBCF1010F4CEA0202C3F86C25A6
:101C4000C3F80C05C3F814152BD1A968481C0DD096
:101C50001F298BBF01F01F020A4642484FF0A040E7
:101C600002F5E0724FF0000C40F822C0E868421C18
:101C700013D01F2887BF3B4A00F01F0C84464FF04B
:101C8000A0424FF0010E0EFA0CFE0CF5E07CC2F8FB
:101C900008E54FF0030E42F82CE0C3F80805C3F83E
:101CA00010152423734308EB0302C2F804902A6939
:101CB00048F80320B9F1000F3AD020682A7F4FF48A
:101CC0008871FFF7BFFE20684FF49071FFF7BAFEEE
:101CD00020684FF49271FFF7B5FE20684FF4A271AF
:101CE000FFF7B0FE20684FF4AC71FFF7ABFE23683E
:101CF0001D49C3F80413190B43F30733002BAEBF80
:101D000003F1604001F00F0518484FEA4212A8BFE6
:101D100000F56140D2B2B4BF425580F8002301F013
:101D20001F01012202FA01F15B09114A42F8231056
:101D300023680822C3F80025242303FB068300221E
:101D4000C3E906225A61012283F820203846BDE803
:101D5000F8830827FAE71127F8E700BF50060020AC
:101D6000951A0000000300501003420014ED00E03B
:101D700000E100E02DE9F0412E4E0579242303FB1C
:101D8000056304465B6800686BB12B4BC0F80833F1
:101D900040F30733C0F304315B0901228A4020334A
:101DA000264941F82320D0F80032012223F02003F5
:101DB000C0F800324FF4AC714260FFF743FE236875
:101DC000DA60D3F85821002AFBD00022C3F800259E
:101DD000D3F80C05D3F81485D3F80815D3F810758B
:101DE0004FF0FF329042C3F80C25C3F81425C3F816
:101DF0000825C3F8102501D0FFF73CFEB8F1FF3FDE
:101E000002D04046FFF736FE7A1C02D03846FFF774
:101E100031FE4B1C02D00846FFF72CFE2068FFF76E
:101E2000A9FB242303FB0565002385F820306B60A4
:101E3000BDE8F081500600201003420000E100E000
:101E400001F06043B3F1005F2DE9F041064638D15F
:101E50001E4B0779242505FB073598466C69002C35
:101E600031D16A610068A9604FF49071FFF7EAFD13
:101E70004FF4AC713068FFF7E5FD33686A69A96813
:101E8000C3F84415C3F8482501229A606A68AAB9C4
:101E9000D3F82021D3F858411AB9002CF8D00F24D8
:101EA00007E0002CFBD10122DA60D3F85821002A88
:101EB000FBD0242303FB078700237B612046BDE87A
:101EC000F0811024FAE71124F8E700BF5006002043
:101ED000254B2DE9F743002119600846FEF722FC47
:101EE00008B1FEF737FFFEF757FB204C204B214986
:101EF000214DDFF88C80E41AE408240444F0030444
:101F00002046FEF7C1FD012637463543C8F800706C
:101F1000D8F80031002BFBD00023C8F80031D8F8E6
:101F20000835164913F4007FD8F808351CBF6FEA4E
:101F300083536FEA9353002BB8BF03339B10019375
:101F4000C8F80460019A2046FEF7A2FD4FF4FA6932
:101F50004FF47A40A847B9F10109F9D1FEF73CFCEA
:101F60000028FBD1D2E700BF04C50040E0220000FA
:101F7000C822000068240000A0240000852400007E
:101F800000C00040054B1B68082B01BF044B1868BC
:101F9000B0FA80F0400918BF0020704730010010EF
:101FA0003401001008B54FF080430022C3F80C2123
:101FB000C3F81021C3F838254FF0805203F5404391
:101FC000D2F80414C3F82015D2F80814C3F8241565
:101FD000D2F80C14C3F82815D2F81014C3F82C1535
:101FE000D2F81414C3F83015D2F81814C3F8341505
:101FF000D2F81C14C3F84015D2F82014C3F84415C5
:10200000D2F82414C3F84815D2F82814C3F84C1594
:10201000D2F82C14C3F85015D2F83014C3F8541564
:10202000D2F83414C3F86015D2F83814C3F8641524
:10203000D2F83C14C3F86815D2F84014C3F86C15F4
:10204000D2F84424C3F87025FFF79CFF10B1384B39
:10205000384A1A60FFF796FF18B1374BFB22C3F8D6
:102060001825FFF78FFF48B13449354B0A681B68C4
:1020700022F00F0203F00F0313430B60FFF782FF00
:1020800018B1304B4FF400721A604FF08043D3F810
:102090000024D20744BF6FF00102C3F800242A4A8B
:1020A000D2F8883043F47003C2F88830BFF34F8F02
:1020B000BFF36F8F4FF01023D3F80022002A03DB09
:1020C000D3F80432002B2FDA204B0122C3F8042569
:1020D000D3F80024002AFBD04FF010221221C2F8BE
:1020E0000012D3F80024002AFBD04FF01023122254
:1020F000C3F80422154B1A46D3F800140029FBD06C
:102100000021C3F80415D2F80034002BFBD0BFF334
:102110004F8F0D490E4BCA6802F4E0621343CB6047
:10212000BFF34F8F00BFFDE70A4B0B4A1A6008BD93
:102130008C5600404881030000F00040E40E00404F
:10214000580200104096024000ED00E000E001401F
:102150000400FA051C0000200090D0037F2805D859
:10216000034B185C034B5B5C1840704700207047C2
:10217000B424000034250000A0F16103192B98BF9E
:1021800020387047A0F14103192B98BF20307047C9
:102190007F2805D8034B185C034B5B5C18407047E5
:1021A00000207047B424000034250000A0F1610332
:1021B000192B98BF20387047A0F14103192B98BF05
:1021C000203070477F299ABF017001206FF02E00E8
:1021D00070475AB10A787F2A0AD800B102600021FC
:1021E00019605960501A18BF0120704700207047CD
:1021F0006FF02E007047000008B5034B5B689B68CA
:102200001B68984708BD00BF2000002008B50921C1
:10221000FFF7F2FF08BD844640EA010313F0030F05
:1022200018D18446202A0BD32DE9F007B1E8F8072E
:10223000A0E8F807A2F12002202AF7D2BDE8F007B3
:10224000042A07D351F8043B40F8043BA2F10402EE
:10225000042AF7D2002A05D011F8013B00F8013B0F
:10226000013AF9D16046704700F1010110F0030F07
:1022700011D010F8012B002A23D010F0030F0AD040
:1022800010F8012B002A1CD010F0030F03D010F817
:10229000012B002A15D02DE970004FF001324FF0CC
:1022A000803350F8044BA4EB020525EA04051D40D9
:1022B00000D1F6E7A0F1040070BC10F8012B002A51
:0822C000FBD1A0EB0100704707
:1022C80059240000000000005D2400000000000008
:1022D80062240000000000005A23000000000303ED
:1022E8002C23000000000000382300001400002008
:1022F80078000020400100204801002080000020D4
:0423080018000000B9
:10230C00FFFFFFFFFFFFFFFFFFFFFFFFFFFFFFFFD1
:10231C0000000000000000000000D60106010000D3
:10232C000105000065050000A104000075617274D0
:10233C005F6C6F675F6261636B656E6400426163C3
:10234C006B656E647320666C757368656400617090
:10235C00700000006C0500207F000000EC050020E0
:10236C001B5B306D002573001B5B313B33316D0003
:10237C0025734C6F67732064726F707065642028CE
:10238C0025642925730D0A003C25733E2025733ADC
:10239C002000202530327800202020007C0025638E
:1023AC00001B5B313B33306D001B5B313B33326DBB
:1023BC00001B5B313B33336D001B5B313B33346DA6
:1023CC00001B5B313B33356D001B5B313B33366D92
:1023DC00001B5B313B33376D007761726E696E6742
:1023EC0000696E666F006465627567006C2300009F
:1023FC00AD23000074230000B5230000BD230000B2
:10240C00C5230000CD230000D5230000DD230000F0
:10241C000000000036240000E5230000ED2300003E
:10242C00F2230000466174616C206572726F720059
:10243C0053797374656D2072657365740030313235
:10244C00333435363738394142434445465052537C
:10245C0000554152540055415254450054656D701D
:10246C0065726174757265206578616D706C65203C
:10247C00737461727465642E0041637475616C20B1
:10248C0074656D70657261747572653A20256400AF
:10249C00000000000338FDD8704700004300000026
:1024AC00504F53495800000020202020202020208D
:1024BC0020682828282820202020202020202020A8
:1024CC002020202020202020481010101010101048
:1024DC001010101010101010848484848484848450
:1024EC008484101010101010108181818181810161
:1024FC0001010101010101010101010101010101C0
:10250C00010101101010101010828282828282024E
:10251C00020202020202020202020202020202028F
:10252C0002020210101010200007032004170201F1
:10253C000857104080000000A8240000AC250000C3
:10254C00C026000053756E004D6F6E00547565000B
:10255C0057656400546875004672690053617400D5
:10256C00000000004A616E00466562004D61720019
:10257C00417072004D6179004A756E004A756C00AD
:10258C0041756700536570004F6374004E6F7600A1
:10259C004465630000000000414D00504D000000F8
:1025AC00E4260000E0260000E0260000E026000003
:1025BC00E0260000E0260000E0260000E0260000F7
:1025CC00E0260000E0260000FFFFFFFFFFFFFFFFFB
:1025DC00FFFFFFFFFFFF000020260000502500003A
:1025EC005C26000070250000A425000004260000D5
:1025FC00B426000010260000256D2F25642F2579A8
:10260C00000000002561202562202565202554202E
:10261C002559000053756E646179004D6F6E6461CD
:10262C00790054756573646179005765646E6573E0
:10263C0064617900546875727364617900467269DB
:10264C0064617900536174757264617900000000F3
:10265C004A616E7561727900466562727561727954
:10266C00004D6172636800417072696C004D617954
:10267C00004A756E65004A756C7900417567757313
:10268C00740053657074656D626572004F63746F8E
:10269C00626572004E6F76656D62657200446563AB
:1026AC00656D62657200000025483A254D3A255348
:1026BC00000000005D210000792100008521000050
:1026CC0091210000AD210000B9210000C5210000BE
:0A26DC00D3210000000000002E00D2
:1026E8000000000000200040000000000020004022
:1026F8000000000000000000FF0000000090D00370
:10270800442500004425000044250000442500001D
:042718004425000054
:040000030000037581
:00000001FF
