:1000000000000120750300005D0300005F03000095
:1000100061030000630300006503000000000000AE
:100020000000000000000000000000006703000066
:1000300069030000000000006B0300006D03000076
:100040006F0300006F030000851600006F030000BF
:100050006F0300006F0300006F030000F91600003B
:10006000A11B00006F0300006F0300006F0300007E
:100070006F0300006F0300006F0300006F030000B8
:100080006F0300006F0300006F0300006F030000A8
:100090006F0300006F0300006F0300006F03000098
:1000A0006F0300006F0300006F0300006F03000088
:1000B0006F0300006F03000000000000000000005C
:1000C0006F0300006F0300006F0300006F03000068
:1000D0006F0300006F0300006F03000000000000CA
:1000E0000000000000000000000000000000000010
:1000F0000000000000000000000000000000000000
:1001000000000000000000000000000000000000EF
:1001100000000000000000000000000000000000DF
:1001200000000000000000000000000000000000CF
:1001300000000000000000000000000000000000BF
:1001400000000000000000000000000000000000AF
:10015000000000000000000000000000000000009F
:10016000000000000000000000000000000000008F
:10017000000000000000000000000000000000007F
:10018000000000000000000000000000000000006F
:10019000000000000000000000000000000000005F
:1001A000000000000000000000000000000000004F
:1001B000000000000000000000000000000000003F
:1001C000000000000000000000000000000000002F
:1001D000000000000000000000000000000000001F
:1001E000000000000000000000000000000000000F
:1001F00000000000000000000000000000000000FF
:10020000354936480A1A02D0072291438D463449AF
:1002100034480A1A06D00722914381F30988022242
:1002200082F3148830483149314A00F044F83148AB
:100230003149324A00F03FF831483249324A00F041
:100240003AF832483249334A00F035F832483349F7
:10025000334A00F030F833483349344A00F02BF881
:1002600033483449344A00F026F8344834490022EF
:1002700000F02CF833483449002200F027F83348C6
:100280003349091A082902DB002202604160314A21
:1002900090471F481F49884205D00268043003B4C4
:1002A000904703BCF7E700208646EC46002000217B
:1002B000294A9047FEE7884207D0521A05D00378B2
:1002C00001300B700131013AF9D17047884202D0F8
:1002D00002700130FAE770470000012000E00020C2
:1002E0000000012000000120442F00000000002039
:1002F00034000020D0030000D0030000D02A00000A
:10030000442F00000000002000000020342B0000DB
:10031000342B0000342B0000342B0000342B000061
:10032000342B0000342B0000342B0000422F00003F
:10033000782F00003400002034000020340000201A
:10034000D9060020DC060020DC060020DC060020A8
:10035000DC2600209D0300003D260000FEE7FEE7AE
:10036000FEE7FEE7FEE7FEE7FEE7FEE7FEE7FEE765
:1003700000F002B8FFF7FCBF0F484FF007018843B9
:1003800085460E4880470E48016841F470010160BF
:10039000BFF34F8FBFF36F8FFFF732BF09480A4992
:1003A0000A4A884207D0521A05D0037801300B70F0
:1003B0000131013AF9D170470000012009270000FE
:1003C00088ED00E0342B0000000000200000002039
:1003D000F0B595B01D46164608460C4601F006F8E5
:1003E0001A9B0D93CDE9086500252B46082205A927
:1003F00020460A958DF82C500C9501F014F8079BB7
:100400000293069B03939DF814308DF8115003F06E
:100410000302012A1DD1BDF81420059DC3F3C203B8
:10042000C2F383168DF81030B20008230EA92046BF
:1004300000F0F9FFC5F3952508AB0093324602ABF7
:100440000EA9284600F0C6FB204600F0D3FF15B0E9
:10045000F0BD022AF8D1BDF81650C3F3C203C5F3AC
:1004600089158DF810300827082D2E4628BF08263C
:100470003B4632460EA9204600F0D5FFAD1B08AB27
:1004800002AA31460EA8374400F008FC002DEBD13B
:10049000DAE70000014B01221A7070477500002056
:1004A0007047000070B5124D06460FCD88B06C46FF
:1004B0000FC495E80F00002E84E80F004FF0FF33C3
:1004C0004FF00602CDE90023CDE90233094A0A487C
:1004D0004FF0EB7308BF00226946069301F030F835
:1004E00008B100F037FC054B1E7008B070BD00BFAE
:1004F000342B000095040000000000203400002090
:1005000007B5044B0093044A4023FFF761FF03B093
:100510005DF804FB1D0500003500002038B50D4BCB
:100520000D4D002018700D4804782D5DD2B21C4688
:1005300065B1043001F080FF08B100F00BFC084BFE
:100540001A7812B12378002BFBD038BD0C3001F0A3
:100550004BFDF1E77500002024060020000000207C
:100560003400002008B50848084A0378D35C3BB142
:10057000043001F0EBFEBDE808400020FFF792BF19
:100580000C3001F0CFFCF6E700000020240600202C
:100590000120FFF787BF000008B5FFF7F9FF044807
:1005A000042100F07FFA034B01225A7108BD00BFFD
:1005B000102B000014000020037813F0040216D062
:1005C00003F00303012B03D0022B09D00120704755
:1005D0000A6800880232C0F3831002440A60F5E71B
:1005E0000B684288023303EB92130B60EEE7104670
:1005F000704700002DE9F04F044685B0861C0020AE
:100600000F46154600F0FEFB454801683960D0E909
:100610000132134401335B1A824600F21C4700F595
:10062000836900F21448B3421BD30020002D72D01E
:1006300004F00F039B0143F0050363F30F00DAF8A6
:100640000020DAF808301340033316444AF8230038
:100650000020CAF8006000F0D7FB012005B0BDE81B
:10066000F08F0121384600F0F4FB484600F009FC09
:10067000404600F006FCDAF80400DAF808B0009012
:1006800000EA0B0003300AEB80006946FFF794FF95
:10069000009B50BB0BEA03020AEB820203F1020C3F
:1006A000D2680192013303EA0B0B0AEB8B0B02F0C9
:1006B0000302012ADBF80C10CDF800C023D0022A77
:1006C00016D08346404600F0DFFB10B1009BCAF80D
:1006D00004305946384600F0BCFBDAE901231344E4
:1006E000DAF8002001339B1A9DE70BEA0300C9E703
:1006F000BDF80630C3F3891303334FEA114B0CEBFB
:1007000093030093DEE7BDF80430C3F383134FEA8D
:10071000114B6344F5E7A40544F006008FE700BFE2
:10072000480100200B4B0C48FF2210B59A600022B4
:10073000C3F81824C3E90022C3F8142483F8202442
:1007400000F00DFE044610B9044800F0A7FE204654
:1007500010BD00BF48010020202B0000882B0000A6
:1007600030B50A4C71B10A4A0A49121BD20800235B
:100770009A4201D1002030BD31F82350854202D089
:100780000133F5E7034654F83300F4E7D02A0000BC
:10079000102B000000000020094B013903EBC000C2
:1007A000032909D8DFE801F00A0204060420704793
:1007B00000797047407970470020704702207047E9
:1007C000D02A0000034BD3E90030C31A58425841E5
:1007D000704700BF480100202DE9F04385B0FFF7C6
:1007E000F1FF0646002840F0F5807B4DC5F818045F
:1007F000BFF34F8F6B68AC6800932340033305EB66
:1008000083006946FFF7D8FE009B18B1D5F818247D
:10081000002A5FD004EA0302991C013305EB82022F
:10082000234005EB8303D268DB68029302F00303E5
:10083000022B0192009160D1BDF806306748C3F3E6
:100840008917502FB84628BF4FF0500868F38F1310
:1008500008F10801ADF8063000F099FD06460028C1
:1008600000F0A38000F0C2FD0023082201A9304659
:1008700000F0CFFD009924EA01020132B8EB820FAB
:100880004FEA820332D95FFA88F85BB32140DCB2C9
:10089000A8EB040803315FFA88F9A046504C05EB39
:1008A000810108234246304600F0B3FD34B108F11F
:1008B00008034A462146304600F0ABFD009B033753
:1008C00003EB97070097D5F81834002B49D1D5F8DA
:1008D000104459E02A689A428FD86A60304605B0C1
:1008E000BDE8F0833E491C469946DAE70C40E11C1E
:1008F0000823424605EB8101DDE7012B55D1BDF808
:1009000004303648C3F38311062928BF062161F35A
:10091000891302318900ADF8043000F038FD064635
:10092000002842D000F062FD0023082201A93046D1
:1009300000F06FFD0027BDF80420C2F38312BB0056
:10094000974203F10803BED200994A1C21400331AB
:10095000009205EB81010422304600F05AFD013778
:10096000E9E7304600F046FDFFF72CFF80F001007C
:10097000C6B2B3E7E3685B7923B1236831461B68ED
:1009800020469847E3681C68002CF3D1304600F0FD
:1009900031FD204600F036FAD5F818340BB9009B2B
:1009A0006B60002000F030FADEE7D5F8104454B94F
:1009B0000C4B0D480D49C01AC008000440F002005D
:1009C00000F062F8D0E7236820469B689847E36808
:1009D0001C68ECE7002681E748010020202B00007E
:1009E00054010020D02A0000002B0000712B0000D1
:1009F0002DE9F74F224D04460F46924601A90122E8
:100A00001846D5F808909B46FFF7F4FD20B3019EE9
:100A10004FF00008B21CD84508EB020126D1194856
:100A2000002100F0F3F980F31000000440EA1440C4
:100A3000E400731C04F0380403EA090306EA09061B
:100A400044F0010405EB8303033644EA881444EAC6
:100A50008724D86045F8264095F820341BB1FFF76D
:100A6000BBFE0028FBD103B0BDE8F08F09EA01010D
:100A700005EB81015AF82830CB6008F10108CAE77C
:100A8000480100206405002000231A46FFF7B0BF8C
:100A900007B50123019201AAFFF7AAFF03B05DF891
:100AA00004FB000030B50F49D1F8102403460020A4
:100AB000144634B9DC6820714AB9C1F81034226098
:100AC00030BDE4682579854206D02468F1E7D26814
:100AD000116821601360F3E701300A28E8D14FF074
:100AE000FF30EDE748010020094A38B50123D2F86C
:100AF000104482F820341D4604B938BDE3685D71A6
:100B0000236820465B689847E3681C68F4E700BFE9
:100B10004801002007B503460846197A052911D077
:100B20005B7A2BB1094A0A49019000F007FA019853
:100B30000849019000F002FA019803B05DF804EB57
:100B400000F0F1B9002AF8D0F2E700BF942B0000C2
:100B5000992B0000B92B000030B5C38885B004463E
:100B60000D4633B1144A00921449154A284600F044
:100B7000E5F9217A05291DD0637A4BB1A088FFF7EA
:100B80000BFE104B104953F82020284600F0D6F9F0
:100B9000227A0E4BA08853F8222003920021FFF7FF
:100BA000DFFD039A0A490346284605B0BDE83040F8
:100BB00000F0C4B905B030BD942B0000A42B000098
:100BC0009C2B0000202C0000992B0000442C0000DE
:100BD000BC2B00002DE9F04385B01F460C9D00237F
:100BE00095F80C902B7306460C46904629463846DD
:100BF000FFF7B2FFB8F1060F09D8DFE808F00412DA
:100C0000181F283340003146284600F097F900228B
:100C100029463846FFF77EFF85F80C9005B0BDE801
:100C2000F08322683146284600F088F9EFE7D4E9DE
:100C300000233146284600F081F9E8E7A3680093D5
:100C40003146D4E90023284600F078F9DFE7E3686D
:100C50000193A36800933146D4E90023284600F0AD
:100C60006DF9D4E723690293E3680193A3680093C5
:100C70003146D4E90023284600F060F9C7E76369EC
:100C8000039323690293E3680193A36800933146B9
:100C9000D4E90023284600F051F9B8E708292DE9E6
:100CA000F74F80460E4617461C463CD8002593F861
:100CB0000C901D7319461046FFF74EFFDFF888A011
:100CC000DFF888B0AE4231D918F8052059462046E1
:100CD00000F034F90135082DF4D11949194DDFF828
:100CE00070A0204600F02AF94FF0000B5E4522D993
:100CF00018F80B207E2A05D81046019201F08AFED2
:100D0000019A00B92E225146204600F017F90BF146
:100D1000010BBBF1080FE9D1012221463846FFF74C
:100D2000F9FE84F80C9003B0BDE8F08F51462046E0
:100D300000F004F9CEE72946204600F0FFF8E6E788
:100D4000D02B0000CE2B0000CC2B0000C62B0000C7
:100D5000D22B00001FB50021039001AA44F201002C
:100D6000CDE9011100F004F805B05DF804FB0000C6
:100D700010B572B6FFF7B8FEFFF72EFD0028FBD1C5
:100D8000104B114C1149E41AE408240444F001000A
:100D9000FFF77AFE0E4B1B68DB0700D500BE0D493E
:100DA00044F00200FFF770FEBFF34F8F0A490B4B70
:100DB000CA6802F4E0621343CB60BFF34F8F00BFF9
:100DC000FDE700BFD02A0000002B0000582C0000D7
:100DD000F0ED00E0642C000000ED00E00400FA05F6
:100DE00072B6024A1368013313607047040600208C
:100DF000034A1368013B136003B962B6704700BF32
:100E000004060020FFF7ECBFFFF7F2BF10B5034662
:100E100053E8000F0A4643E8002494F0000FF7D18E
:100E200010BD10B5034653E8002F42EA010043E825
:100E3000000494F0000FF6D110BD10B5034653E83E
:100E4000000F00EA010243E8002494F0000FF6D1FD
:100E500010BD10B5034653E8002F02EB010043E834
:100E6000000494F0000FF6D110BD10B5034653E80E
:100E7000002FA2EB010043E8000494F0000FF6D12C
:100E800010BD0121FFF7CDBF0021FFF7D6BF10B580
:100E900090B1D0E9012301689B1ADBB20A60013BE3
:100EA000DBB2FF2B026802D10020107110BD116867
:100EB0004C1C14600B70F2E70E20F7E738B50446BF
:100EC0000020FFF79FFF226863681168994213D9D9
:100ED000481E106011F8015CE368218A01FB0535AA
:100EE000A36811791B1ADBB2994200D2137100205A
:100EF000FFF78AFF284638BD0025F8E738B50546D4
:100F000000200C46FFF77EFF2A681368591C116009
:100F1000E968641A298AB4FBF1F41C70BDE8384012
:100F20000020FFF771BF826810B504462AB14369FB
:100F30000168006998470023A36010BD0EB403B593
:100F4000039921B104AB01AA019300F077F802B034
:100F50005DF804EB03B070470A2938B504460D4626
:100F600002D10D21FFF7F8FFA3682268591CA16088
:100F7000D554D4E901329A4204D32046BDE8384022
:100F8000FFF7D1BF38BD00002DE9F84F9846DDE9E5
:100F90000A43154682460F460A464FF00109AA4207
:100FA0000FD2C14538BFC14613F0010B01D16CB956
:100FB00000240126B8F1010F1BD908F1FF386E4358
:100FC000F8E709F10109B2FBF5F2E8E79B070ED556
:100FD000B8F1000F0CBF30262026A145E9D2013C14
:100FE00031465046FFF7B8FF002CF6D1E0E7202647
:100FF000F3E7B7FBF6F39D42E1D9DFF83C80B7FB9E
:10100000F6F3504618F8031006FB1377FFF7A4FF1A
:101010003346AB42B6FBF5F6F1D2BBF1000F02D07E
:101020000CB1A14501D3BDE8F88F20215046013C09
:10103000FFF792FFF4E700BF712C00002DE9F74F96
:10104000054617468846002900F0428118F8011B22
:1010500049B92B7B002B00F03B81284603B0BDE84B
:10106000F04FFFF760BF252940F0B780002698F8C1
:1010700000302D2B424608F1010823D0302B24D01C
:101080002B2B25D000242A2B02F1010123D13B6810
:101090001A1D1B683A601C440A4613782E2B26D171
:1010A00001324FF0000A104610F8011BA1F1300C7C
:1010B000BCF1090F1DD80A2303FB0A13A3F1300A60
:1010C0000246F0E746F00106D1E746F00206CEE719
:1010D00046F00406CBE711F8013CA3F130000928E3
:1010E000DBD80A2202FB0434303C0A46CBE74FF03F
:1010F000000A12F8011B01F0FB0068289046F8D0A6
:10110000782909D86F290CD8632962D022D82529DB
:1011100063D0582900F0888098F80030002B95D1D2
:1011200097E770390829F7D801A353F821F000BFD9
:10113000AB12000019110000191100003912000053
:1011400019110000171200001911000019110000F8
:1011500029120000642901D06929DDD13A68D2F84A
:101160000090111D89EAE9723960A2EBE9724FF033
:10117000010B092A35DCD34538BFD3462CB1B9F170
:10118000000F01DB720700D5013CB30702D5BAF1AD
:10119000000F03D0F00701D44CBB0024B9F1000FBD
:1011A0002DDAC9F100092D212846FFF7D5FE06F0FA
:1011B0000302022A04D1BAF1000F01D11CBB0024A2
:1011C000CDE9004653460A2249462846FFF7DCFE91
:1011D000A2E73B681A1D19783A602846FFF7BCFE63
:1011E0009AE70A230BF1010BB2FBF3F2C1E7A34527
:1011F000D4D220212846013CFFF7AEFECCE7710790
:10120000D5D52B21D0E7A345DAD230212846013CA1
:10121000FFF7A2FED2E73968CDE900460A1D3A6021
:1012200053460A220968D0E739680A1D3A60CDE9B9
:10123000004653461022F5E73B681A1D3A6016F047
:101240000106D3F8009028D1B9F1000F03D0484629
:1012500001F00EFC0646B44200D904BB09F1FF3987
:1012600019F8011F00293FF457AF2846FFF774FE15
:10127000F6E728460136FFF76FFE19F80610002939
:10128000F7D1A642BFF448AF002C3FF445AF202170
:101290002846013CFFF760FEF3E70026EDE720213A
:1012A0002846013CFFF758FED5E73B681A1D3A6017
:1012B000302128461C68FFF74FFE78212846FFF7AB
:1012C0004BFE00220823CDE90032214610227CE7A4
:1012D00003B0BDE8F08F00BF2DE9F84FB0F806A0CD
:1012E0004579D2F800B09DF828900AFB05F5043D39
:1012F00088460BEB0301A94203F1040488BFA5EB68
:10130000030BB4FBFAF607460AFB1644C2F800B01A
:101310004EB9AAEB04055D4528BF5D46BBF1000F41
:1013200004D1BDE8F88F3F68013EF1E7043408EBD3
:1013300006003C442A46B9F1000F0DD02146ABEB24
:10134000050B01F06CFBDA452E443F6855464FF023
:10135000000428BF5D46E1E701462046EFE7FFF7BE
:1013600096BDF8B546790146721E054600239342A4
:101370002D6803D30024A64202D8F8BD0133F6E756
:101380000F682846FFF7BAFD01343946F3E72DE927
:10139000F843068ACD1C0746FFF790FD043E35440E
:1013A0000446B5FBF6F5F0B14FF48073EDB28380DF
:1013B000C680013D076081464FF00008A84512D263
:1013C0003846FFF77BFD064648B163790133637108
:1013D00008F10108C9F8000007608146EEE72046E1
:1013E000FFF7BFFF34462046BDE8F88301210430F3
:1013F000FFF72FBD10B5012104460430FFF735FD7E
:1014000010F0FF0F04D12046BDE81040FFF7A9BF40
:1014100010BD1FB503920022009203AAFFF75CFFE4
:1014200005B05DF804FB1FB503920122009203AAE8
:10143000FFF752FF05B05DF804FB0000064B10B546
:1014400000241C70054B1C60BFF35F8F04490548E6
:1014500000F02DF8204610BD1006002014060020D4
:101460008C2C00000806002008B50020FFF7CAFCFD
:10147000F1EE103A23F09F03E1EE103ABFF35F8FD5
:10148000054B4022C3F884210020FFF7BDFC20BF9C
:1014900040BF20BF08BD00BF00E100E0836800221C
:1014A0005A60C3E904229A60DA601A6070470B68D8
:1014B0004A684360934208BF0023016008BF43604D
:1014C00070470000034B187810B901221A7070475A
:1014D00085207047180600201FB503788DF800306E
:1014E0004368019383688DF80830C368054A039305
:1014F000054B684653F8213052F82110984705B043
:101500005DF804FB1C060020200600201FB50378B0
:101510008DF800304368019383688DF80830C36804
:10152000054A0393054B684653F8213052F82110C1
:10153000984705B05DF804FB1C060020200600203B
:10154000F0B5194B90F800C091F81DE043F82C203D
:10155000164B16460A6943F82C20154B03F80CE08D
:101560000C4607460FCC89B06D460FC594E80F00B6
:1015700085E80F00CDF810C0BEF1000F09D0002E95
:101580000C4A694608BF3246381D00F017FE09B004
:10159000F0BD002E084A694608BF324607F10C002C
:1015A00000F004FCF3E700BF200600201C0600202A
:1015B00024060020D91400000D1500002DE9F84F75
:1015C000134DDFF8508007464FF0000A04264FF015
:1015D00001095FFA8AFB002009FA0BF4FFF712FCFD
:1015E0002C420AD0D8F8003014EA030201BF23438A
:1015F000C8F8003087F800B016460020FFF704FC5A
:101600001EB1A5430AF1010AE3D13046BDE8F88FC7
:10161000FFFF0F002806002010B5A1B19AB10123E9
:101620008340C3F3130484B10A4C246823420ED0D0
:10163000C00000F1804000F5F830C0F81015C0F887
:101640001425002010BD0E20FCE70720FAE7082033
:10165000F8E700BF28060020012303FA00F0C0F3DA
:1016600013031BB1054B1B68184204D0044BC3F88D
:101670000405002070470820704700BF280600209E
:1016800000F00140014B1B68184700BF2C060020EA
:1016900038B50B4B98420C4601D0002038BD0020D5
:1016A000FFF7B0FB074B1D7915B901221C601A71B9
:1016B0000020FFF7A9FB002DEFD01120EEE700BFBF
:1016C000002000402C060020034B984201BF034B32
:1016D00000221A601A717047002000402C0600207A
:1016E00000F1804000F5E040002382B00360036811
:1016F0000193019B02B07047F0B5504B504C1B68F2
:1017000085B0002B3DD04FF4827094F82E20FFF767
:10171000E7FF2AB394F82F3013BB4A4B1B68002B0A
:1017200033D04FF48070FFF7DBFF638B94F82D10FC
:101730008B424FD922895B1A9BB292B26383D31A30
:10174000626802EB4303404AC2F82C36C2F83016F6
:101750004FF48270FFF7C4FF3C4B01221A6014E083
:10176000636802932389ADF80C30E36800218DF89B
:10177000041023BB2374236801A89847002384F82E
:101780002F3094F82E30002BC7D1314B1B685BB142
:101790004FF48870FFF7A4FF0023237402238DF811
:1017A000043001A8236898472A4B1B68EBB14FF41B
:1017B0008A70FFF795FF0023237405B0F0BD208BDE
:1017C000608363602081E160002AD4D11E4B012236
:1017D0001A60D0E7BCD1E368012284F82F2013B14E
:1017E00000226283AFE76383B2E766694FF0004788
:1017F0000125002EE1D0B6FA86F227FA02F346322E
:10180000920026EA030602F1804303F5E0431B68D9
:10181000002BEED01046FFF763FFA2F58C72D308C1
:1018200082F00402C2F380028DF808308DF8045073
:1018300023688DF8092001A89847DAE70471004071
:101840003406002000710040007000400470004029
:10185000107100401471004038B51E4B044693F8D7
:101860002C00A8BB1C4A19602178C2F8F0156178D9
:10187000C2F8F415E5781874012183F82C1083F868
:101880002D00586183F82F0083F82E506FF000432D
:10189000C2F808334FF48270FFF722FF4FF48070D4
:1018A000FFF71EFF4FF48A70FFF71AFFA3780B486B
:1018B0005B01DBB280F80733802303600223C2F8A8
:1018C00004330DB1C2F80413C2F80015002038BD6E
:1018D0000820FCE7340600200070004000E100E032
:1018E00070B52A4B1A7C02F0FF05002A4BD10A7909
:1018F000012A9CBF264CC4F8005500F10C0503EBEF
:101900004504247924B993F82D40013483F82D40FF
:1019100003EB4503CC790D7A8E781C715D714B78A1
:1019200036021B0106F4E06603F0300333430E7801
:1019300006F003063343CE78360306F4805633436D
:10194000160406F4E02633434E798979360506F409
:1019500080160906334301F080710B430C4901EBFB
:101960000016000100F1804000F5E040012AC6F8B1
:101970001835C0F81455C0F8104502D80123C1F835
:101980000035002000E0112070BD00BF34060020AB
:1019900000700040054B93F82E30002B14BF002040
:1019A000042000F1804000F5E0407047340600203C
:1019B00070B5264A264B05461220C2F808031C7C47
:1019C000022C03D1C2F80403112070BD187C012839
:1019D0001DD1D86818B10223C2F80433F4E7DD60E2
:1019E000198393F82E3063B91A4A1368002BFCD080
:1019F0004FF48070FFF774FE144BC3F82C56C3F8F5
:101A00003016124B0222C3F804230020DDE7022027
:101A100093F82E40C2F80403012600201E745D6076
:101A20001981D8603CB1598393F82D30C2F82C56F7
:101A3000C2F83036C9E7C2F82C564FF48070C2F8AD
:101A40003016FFF74DFE20461660BEE700700040DE
:101A50003406002000710040F7B506792F4D0C23A5
:101A60007343EF183C7A002C56D1EA504B687B60E8
:101A7000477903682246D0B2874244D843F30734FB
:101A8000C878002CA8BF04F16047C3F30732BABF7F
:101A9000234F02F00F0C07F561474FEA4010C0B228
:101AA000B4BF07F80C0087F80003640901201D4F3C
:101AB00002F01F0200FA02F247F82420D3F804458E
:101AC0004A7824F0030402F003022243C3F80425F9
:101AD000D3F808458A7824F0030402F00302224375
:101AE000C3F808250A78D3F8104502F00F0224F055
:101AF0000F010A43C3F810250C2303FB0655287277
:101B0000002003B0F0BD900000F5A07001321C5021
:101B1000185801900198AEE70820F2E7640600200B
:101B200014ED00E000E100E0036801221A6003798F
:101B3000034A0C2101FB032302221A72704700BFE3
:101B40006406002037B54FF4803400688C407BB1C8
:101B50008B0003F5A0730025C550C3580193019B6A
:101B6000C0F8044301F5A87140F8212003B030BD4E
:101B7000C0F80843F6E770B4046840F20116D4F8E0
:101B800000528E4025EA0605C4F80052D4F80052EF
:101B90002B43C4F800329DF80C3070BCFFF7D2BF65
:101BA0002DE9F341104C114F114E00254FF48038B0
:101BB000236883B1D7F8043308FA05F21A420AD031
:101BC0000023236023680193A4F50040019B80B2A9
:101BD000D6E9003198470135042D04F10404E7D11A
:101BE00002B0BDE8F08100BF4081004000800040AD
:101BF000640600200023435082B043580193019BA8
:101C000002B070470A4610B54FF48E71FFF7F2FF2D
:101C1000136A9168C95C136A01331362C0F81C151A
:101C200010BD8B690A4610B54FF4847123B9FFF7D4
:101C3000E1FFD0F8183510BDFFF7DCFF536AD1681B
:101C4000D0F81805C854536A01335362F3E7000013
:101C50001FB501238DF80030044BCDE90110D3E905
:101C600000126846904705B05DF804FB700600203E
:101C700030B54C48D0F8043313F4007F85B00546E6
:101C80004DD0D0F82431002B49D04FF49271FFF79A
:101C9000B1FF4FF40173C0F80833434B93F8292088
:101CA0000AB9012242603F4902228DF80020D1F892
:101CB0008024C1F8802403929A690292DA68019222
:101CC0000022C3E906226846D3E90012904735484E
:101CD000D0F81C315BB134494A690B6A9A420A4612
:101CE0004AD991F82830002B46D1FFF78BFF2D48B9
:101CF000D0F844318BB14FF4A271FFF77BFF2A4B30
:101D000093F829200AB1012202609A692AB10022BF
:101D1000586AD9689A61FFF79BFF05B030BDD5F8C6
:101D200004335B07D3D5D5F80831002BCFD01E4C38
:101D30001C482146FFF775FF636AA2699A42234651
:101D4000C5D1E269E1684AB12369E3600023606AB2
:101D5000A261E3616362FFF77BFFB8E794F8292093
:101D60000AB901226A600F4A4FF40170C2F80803F1
:101D70000022586A9A61EEE70A484FF48E71FFF725
:101D800039FF5369002BB2D0516902910023916849
:101D90008DF80030019153616846D2E900139847ED
:101DA000A5E700BF00200040700600202DE9F843A1
:101DB000574B057991462C2202FB0532064692F8D4
:101DC0002A200C469846002A40F09D805149006820
:101DD000FFF75EFC0746002840F0978021683368D3
:101DE000481C0BD04FF0A04001228A40C0F80825C3
:101DF00001F5E0724FF0030C40F822C06068421C0D
:101E00001FBF00F5E0724FF0A04C4FF0000E4CF8F1
:101E100022E0A269C3F8242594F814C0627DBCF1C5
:101E2000010F4CEA0202C3F86C25C3F81405C3F88D
:101E30000C151DD1A1684A1C1FBF01F5E0724FF0BF
:101E4000A0404FF0000C40F822C0E268501C0BD0BC
:101E50004FF0A04C01209040CCF8080502F5E0704E
:101E60004FF0030E4CF820E0C3F80825C3F8101516
:101E70002C236B4308EB0302C2F80490226948F854
:101E80000320B9F1000F2BD03068247F4FF48E71FE
:101E9000FFF7B0FE30684FF4A271FFF7ABFE326877
:101EA0001D4BC2F80433110B42F30732002AA8BFBE
:101EB00002F160404FEA4413BABF184801F00F0422
:101EC00000F56140DBB2B4BF035580F8003301F088
:101ED0001F01012303FA01F15209114B43F82210AB
:101EE00033680422C3F800252C2303FB058300225A
:101EF000C3E9062283F829205A61012283F82A20A7
:101F00003846BDE8F8830827FAE71127F8E700BF4D
:101F100070060020711C00008000020014ED00E03B
:101F200000E100E0F8B5047900682C4D0023C0F80A
:101F300000352C2303FB04535B686BB1284BC0F8BE
:101F4000083340F30733C0F304315B0901228A40B0
:101F50002033244941F82320D0F80C65D0F814151B
:101F6000D0F80835D0F810254FF0FF37BE42C0F842
:101F7000147518BF06F5E076C0F80C75C0F8087542
:101F8000C0F810751EBF4FF0A0474FF0020C47F885
:101F900026C04E1C1FBF4FF0A04601F5E07102277E
:101FA00046F82170511C1FBF4FF0A04102F5E072AE
:101FB000022641F822605A1C1FBF03F5E0734FF060
:101FC000A042022142F82310FFF77EFB2C2303FBE3
:101FD0000454002384F82A306360F8BD70060020A2
:101FE0008402020000E100E02DE9F047204F90F864
:101FF00004904FF02C0808FB097405466669002E12
:1020000034D162610068A16026624FF48E7184F859
:102010002860FFF7EFFD2868012383602146FFF762
:10202000F1FD6368A0468BB92868D4F814A0236A30
:102030009A4511D82A68D2F81C31002BFBD0012315
:10204000D3602C2303FB097300225A613046BDE89C
:10205000F08794F828303BB9D0F81C31002BF8D029
:102060004146FFF7CFFDE2E70F26EAE71126EDE74D
:10207000700600200023435082B043580193019B17
:1020800002B070471FB501238DF80030044BCDE935
:102090000110D3E900126846904705B05DF804FBD3
:1020A0009C0600207FB5434AD2F82461002E60D000
:1020B00010464FF49271FFF7DDFF02238DF80030D8
:1020C000D2F88034C2F880340393D2F83C350293BE
:1020D000394BDA6801920022C3E906226846D3E947
:1020E000001290473348D0F8443173B14FF4A271D5
:1020F000FFF7C0FF304B9A693AB10022C3E90622CC
:10210000D968D0F83C05FFF7BDFF2A48D0F8203148
:10211000ABB14FF49071FFF7ADFF0123C360264BC5
:102120005A6962B1D0F84C150291002299688DF875
:10213000002001915A616846D3E9001290471D487A
:10214000D0F858319BB14FF4AC71FFF793FF1A4BA5
:102150005A6962B1D0F84C150291002299688DF845
:10216000002001915A616846D3E90012904704B0FB
:1021700070BDD2F81031002BB4D04FF488711046E6
:10218000FFF778FF0C4BD2F83C0599698842A9D13A
:10219000DC69D96864B1D2F8005225F02005C2F894
:1021A00000521A699C61DA60DE61FFF76BFF99E704
:1021B0009C61FAE7002000409C0600202DE9F843CE
:1021C0005D4B06799146242202FB0632044692F8C2
:1021D00020200D469846002A40F0AA805749006802
:1021E000FFF756FA0746002840F0A48029682368C4
:1021F000481C0BD04FF0A04001228A40C0F80825AF
:1022000001F5E0724FF0030C40F822C06868421CF0
:102210001FBF00F5E0724FF0A04C4FF0000E4CF8DD
:1022200022E0AA69C3F8242595F814C06A7DBCF1A0
:10223000010F4CEA0202C3F86C25C3F80C15C3F871
:1022400014051DD1A9684A1C1FBF01F5E0724FF0AB
:10225000A0404FF0000C40F822C0EA68501C0BD0A0
:102260004FF0A04C01209040CCF8080502F5E0703A
:102270004FF0030E4CF820E0C3F80825C3F8101502
:102280002423734308EB0302C2F804902A6948F838
:102290000320B9F1000F3AD020682A7F4FF48871EB
:1022A000FFF7E8FE20684FF49071FFF7E3FE206827
:1022B0004FF49271FFF7DEFE20684FF4A271FFF732
:1022C000D9FE20684FF4AC71FFF7D4FE23681C4997
:1022D000C3F80413190B43F30733002BAEBF03F10C
:1022E000604001F00F0517484FEA4212A8BF00F501
:1022F0006140D2B2B4BF425580F8002301F01F0103
:10230000012202FA01F15B090F4A42F82310236807
:102310000822C3F80025242303FB06830022C3E917
:1023200006225A61012283F820203846BDE8F8834E
:102330000827FAE71127F8E79C060020A5200000EF
:102340001003420014ED00E000E100E0F8B5374D65
:102350000479242303FB045302465B6800686BB1D5
:10236000334BC0F8083340F30733C0F304365B093E
:102370000121B14020332F4E46F82310D0F800320F
:10238000012623F02003C0F800324FF4AC71466000
:10239000FFF770FE1068C660D0F85831002BFBD0F4
:1023A0000023C0F80035D0F80C65D0F81415D0F82B
:1023B0000835D0F810254FF0FF37BE42C0F80C7535
:1023C00018BF06F5E076C0F81475C0F80875C0F8B7
:1023D00010751EBF4FF0A0474FF0020C47F826C003
:1023E0004E1C1FBF4FF0A04601F5E071022746F8D2
:1023F0002170511C1FBF4FF0A04102F5E072022670
:1024000041F822605A1C1FBF03F5E0734FF0A04251
:10241000022142F82310FFF757F9242303FB045449
:10242000002384F820306360F8BD00BF9C060020C4
:102430001003420000E100E001F06043B3F1005FEF
:102440002DE9F041064638D11E4B0779242505FBBE
:10245000073598466C69002C31D16A610068A96023
:102460004FF49071FFF706FE4FF4AC713068FFF740
:1024700001FE33686A69A968C3F84415C3F84825A2
:1024800001229A606A68AAB9D3F82021D3F858418A
:102490001AB9002CF8D00F2407E0002CFBD1012240
:1024A000DA60D3F85821002AFBD0242303FB0787E6
:1024B00000237B612046BDE8F0811024FAE7112457
:1024C000F8E700BF9C060020704700002DE9F041AE
:1024D0000378064613BB40680521FFF769FA08B187
:1024E000FEF738FC0E480F4C0F4D10492A68DFF8F4
:1024F0004080241AE408240444F003042046FEF734
:10250000C7FA002773684146DA5F20460237FEF7B4
:10251000BFFA0A2FF6D12B6801332B60BDE8F0819A
:10252000D02A0000002B0000C0060020B72C0000BD
:10253000C92C00001FB5FEF7C5FF08B1FEF70AFC65
:10254000174A18480023CDE9022302A9164AFFF7CB
:1025500083FA08B1FEF7FEFB144B1548D3F810259B
:102560000021D2B220FA02F2009101230D48FFF7B8
:1025700002FB0C48FFF7D8FAFFF70CFA04460D48A7
:10258000FFF71CF808B1FEF7E5FB0A4B0A4918787B
:102590002246FFF741F808B1FEF7DCFB04B010BD9E
:1025A00000000306FC2C0000C9240000008000404D
:1025B00000A86100D80600204081004008B5054B06
:1025C0001878FFF749F818B1BDE80840FEF7C2BB1C
:1025D00008BD00BFD80600201FB5134A1068516817
:1025E000127A01AB03C3114911481A70FFF734F98D
:1025F00008B1FEF7AFFB01A90020FFF771F908B1A0
:10260000FEF7A8FB0B480521FFF7D2F908B1FEF74A
:10261000A1FB09480521FFF7CBF908B1FEF79AFBAA
:1026200005B05DF804FB00BFEE2C0000CD240000D7
:10263000F72C0000C4060020CE060020002108B5BB
:102640000846FEF76FF808B1FEF784FBFDF7A4FF1C
:10265000FEF7F4FE08B1FEF77DFBFFF7BDFFFFF7C5
:1026600069FFFFF7ABFF0848084B0949C01AC008CB
:10267000000440F00300FEF707FAFEF7F5FEFEF750
:10268000ABF80028FBD1F8E7002B0000D02A0000AF
:10269000CC2C00000C4B1B78062B10D10B4B1B686D
:1026A0001A070CD10A4B186800F0F003302B08D041
:1026B00000F0E000A0F1400358425841704700206C
:1026C00070470120704700BFE00F00F0E40F00F0FA
:1026D000E80F00F0094B1B78062B0CD1084B1B6848
:1026E0001A0708D1074B186800F0F000A0F130037A
:1026F0005842584170470020704700BFE00F00F07B
:10270000E40F00F0E80F00F008B5FFF7C3FF28B1B1
:102710007D4B7E4A1B68C3F304231360FFF7DAFF87
:1027200010B17B4B7B4A1A60FFF7B4FF28B17A4B9C
:102730007A4A1B68C3F342331360FFF7CBFF20B123
:10274000774AD36823F08073D360FFF7A3FF40B1CB
:102750004FF080430022C3F80C21C3F81021C3F8C6
:102760003825FFF7B7FF10B16E4B03221A60FFF751
:10277000B1FF40B16C4B05221A6001229A6700221A
:102780009A603F225A60694B1B78062B50D1684BE8
:102790001B6819074CD1674B1B6803F0F003502BE3
:1027A00046D14FF08052644BD2F80414C3F8201580
:1027B000D2F80814C3F82415D2F80C14C3F828155D
:1027C000D2F81014C3F82C15D2F81414C3F830152D
:1027D000D2F81814C3F83415D2F81C14C3F84015F5
:1027E000D2F82014C3F84415D2F82414C3F84815BD
:1027F000D2F82814C3F84C15D2F82C14C3F850158D
:10280000D2F83014C3F85415D2F83414C3F8601554
:10281000D2F83814C3F86415D2F83C14C3F868151C
:10282000D2F84014C3F86C15D2F84424C3F87025CC
:10283000FFF730FF28B1414B414A1B6803F04F03BB
:102840001360FFF727FF48B14FF08043D3F800240F
:10285000D20744BF6FF00102C3F80024394B1B6854
:10286000062B08D1384B1B68062B01BF374A13686B
:1028700043F480631360364AD2F8883043F470031F
:10288000C2F88830BFF34F8FBFF36F8F4FF0102324
:10289000D3F80022002A03DBD3F80432002B2FDA0E
:1028A0002C4B0122C3F80425D3F80024002AFBD0C6
:1028B0004FF010221521C2F80012D3F80024002A8C
:1028C000FBD04FF010231522C3F80422214B1A46E7
:1028D000D3F800140029FBD00021C3F80415D2F866
:1028E0000034002BFBD0BFF34F8F19491A4BCA6835
:1028F00002F4E0621343CB60BFF34F8F00BFFDE7EC
:10290000164B174A1A6008BD2403001040350140D9
:1029100074C007400DF0ADBA440200103C05004001
:10292000F0ED00E0A005004010560040E00F00F080
:10293000E40F00F0E80F00F000C000405802001063
:10294000E40E004030010010340100103C1700403C
:1029500000ED00E000E001400400FA051C0000204A
:102960000090D0037F2805D8034B185C034B5B5CB9
:102970001840704700207047102D0000902D000077
:10298000A0F16103192B98BF20387047A0F14103D3
:10299000192B98BF203070477F2805D8034B185C4F
:1029A000034B5B5C1840704700207047102D0000FF
:1029B000902D0000A0F16103192B98BF20387047BB
:1029C000A0F14103192B98BF203070477F299ABF8F
:1029D000017001206FF02E0070475AB10A787F2AEB
:1029E0000AD800B10260002119605960501A18BF5E
:1029F00001207047002070476FF02E0070470000E4
:102A000008B5034B5B689B681B68984708BD00BF0F
:102A10002000002008B50921FFF7F2FF08BD844619
:102A200040EA010313F0030F18D18446202A0BD388
:102A30002DE9F007B1E8F807A0E8F807A2F12002B5
:102A4000202AF7D2BDE8F007042A07D351F8043B47
:102A500040F8043BA2F10402042AF7D2002A05D070
:102A600011F8013B00F8013B013AF9D1604670478B
:102A700000F1010110F0030F11D010F8012B002A12
:102A800023D010F0030F0AD010F8012B002A1CD01D
:102A900010F0030F03D010F8012B002A15D02DE9F8
:102AA00070004FF001324FF0803350F8044BA4EB2C
:102AB000020525EA04051D4000D1F6E7A0F1040057
:102AC00070BC10F8012B002AFBD1A0EB010070476D
:102AD000982C0000000000009C2C0000000000006A
:102AE000A02C000000000000A62C00000000000048
:102AF000AC2C000000000000B12C00000000000021
:102B0000822B000000000303812C00000000000065
:102B1000542B000000000000602B00001400002077
:102B200078000020400100204801002080000020A3
:042B30001800000089
:102B3400FFFFFFFFFFFFFFFFFFFFFFFFFFFFFFFFA1
:102B440000000000000000000000D60106010000A3
:102B54000105000065050000A104000075617274A0
:102B64005F6C6F675F6261636B656E640042616393
:102B74006B656E647320666C757368656400617060
:102B8400700000006C0500207F000000EC050020B0
:102B94001B5B306D002573001B5B313B33316D00D3
:102BA40025734C6F67732064726F7070656420289E
:102BB40025642925730D0A003C25733E2025733AAC
:102BC4002000202530327800202020007C0025635E
:102BD400001B5B313B33306D001B5B313B33326D8B
:102BE400001B5B313B33336D001B5B313B33346D76
:102BF400001B5B313B33356D001B5B313B33366D62
:102C0400001B5B313B33376D007761726E696E6711
:102C140000696E666F00646562756700942B00003E
:102C2400D52B00009C2B0000DD2B0000E52B0000C1
:102C3400ED2B0000F52B0000FD2B0000052C0000FF
:102C4400000000005E2C00000D2C0000152C00007C
:102C54001A2C0000466174616C206572726F7200F8
:102C640053797374656D2072657365740030313205
:102C740033343536373839414243444546707772E8
:102C84005F6D676D74000000D02A0000D02A000038
:102C94000400000050504900505253005341414435
:102CA400430054494D455200554152540055415238
:102CB400544500414443206576656E74206E756DFD
:102CC4006265723A202564005341414443204841DF
:102CD4004C2073696D706C65206578616D706C65EE
:102CE40020737461727465642E0000000000020099
:102CF4000001000100060000008000400004000004
:102D040043000000504F5349580000002020202069
:102D14002020202020682828282820202020202047
:102D240020202020202020202020202048101010A7
:102D340010101010101010101010101084848484BF
:102D44008484848484841010101010101081818174
:102D540081818101010101010101010101010101DF
:102D64000101010101010110101010101082828272
:102D740082828202020202020202020202020202AF
:102D840002020202020202101010102000070320A7
:102D9400041702010857104080000000042D0000B1
:102DA400082E00001C2F000053756E004D6F6E003E
:102DB400547565005765640054687500467269006F
:102DC40053617400000000004A616E0046656200B1
:102DD4004D617200417072004D6179004A756E0058
:102DE4004A756C0041756700536570004F63740049
:102DF4004E6F76004465630000000000414D0050B2
:102E04004D000000402F00003C2F00003C2F00002C
:102E14003C2F00003C2F00003C2F00003C2F000002
:102E24003C2F00003C2F00003C2F0000FFFFFFFF61
:102E3400FFFFFFFFFFFFFFFFFFFF00007C2E0000EE
:102E4400AC2D0000B82E0000CC2D0000002E000098
:102E5400602E0000102F00006C2E0000256D2F2521
:102E6400642F257900000000256120256220256556
:102E7400202554202559000053756E646179004D56
:102E84006F6E646179005475657364617900576588
:102E9400646E6573646179005468757273646179F2
:102EA4000046726964617900536174757264617972
:102EB400000000004A616E756172790046656272B5
:102EC40075617279004D6172636800417072696C5A
:102ED400004D6179004A756E65004A756C79004150
:102EE40075677573740053657074656D62657200FF
:102EF4004F63746F626572004E6F76656D626572C2
:102F040000446563656D62657200000025483A25DA
:102F14004D3A255300000000652900008129000076
:102F24008D29000099290000B5290000C12900005D
:0E2F3400CD290000DB290000000000002E0067
:102F440000000000002000400000000000200040BD
:102F54000000000000000000FF0000000090D0030B
:102F6400A02D0000A02D0000A02D0000A02D000029
:042F7400A02D00008C
:040000030000037581
:00000001FF
