:020000022000DC
:1060000000000120756302005D6302005F6302000F
:106010006163020063630200656302000000000028
:1060200000000000000000000000000067630200A4
:1060300069630200000000006B6302006D630200F0
:106040006F6302006F6302006F6302006F63020000
:106050006F6302006F6302006F6302006F630200F0
:106060006F6302006F6302006F6302006F630200E0
:106070006F6302006F6302006F6302006F630200D0
:106080006F6302006F6302006F6302006F630200C0
:106090006F6302006F630200CD7B02006F6302003A
:1060A0006F6302006F6302006F6302006F630200A0
:1060B0006F6302006F630200000000000000000038
:1060C0006F6302006F6302006F6302006F63020080
:1060D0006F6302006F6302006F6302000000000044
:1060E00000000000000000000000000000000000B0
:1060F00000000000000000000000000000000000A0
:10610000000000000000000000000000000000008F
:10611000000000000000000000000000000000007F
:10612000000000000000000000000000000000006F
:10613000000000000000000000000000000000005F
:10614000000000000000000000000000000000004F
:10615000000000000000000000000000000000003F
:10616000000000000000000000000000000000002F
:10617000000000000000000000000000000000001F
:10618000000000000000000000000000000000000F
:1061900000000000000000000000000000000000FF
:1061A00000000000000000000000000000000000EF
:1061B00000000000000000000000000000000000DF
:1061C00000000000000000000000000000000000CF
:1061D00000000000000000000000000000000000BF
:1061E00000000000000000000000000000000000AF
:1061F000000000000000000000000000000000009F
:10620000354936480A1A02D0072291438D4634494F
:1062100034480A1A06D00722914381F309880222E2
:1062200082F3148830483149314A00F044F831484B
:106230003149324A00F03FF831483249324A00F0E1
:106240003AF832483249334A00F035F83248334997
:10625000334A00F030F833483349344A00F02BF821
:1062600033483449344A00F026F83448344900228F
:1062700000F02CF833483449002200F027F8334866
:106280003349091A082902DB002202604160314AC1
:1062900090471F481F49884205D00268043003B464
:1062A000904703BCF7E700208646EC46002000211B
:1062B000294A9047FEE7884207D0521A05D0037852
:1062C00001300B700131013AF9D17047884202D098
:1062D00002700130FAE770470000012000E0002062
:1062E000000001200000012030AF020068590020AA
:1062F00090590020D0630200D063020074AA02000B
:1063000030AF020068590020685900207CAA0200C2
:106310007CAA02007CAA02007CAA02007CAA0200DD
:106320007CAA02007CAA02007CAA020030AF020014
:1063300058AF020090590020905900209059002039
:10634000A4590020A4590020A8590020A8590020D1
:10635000A87900209D630200817B0200FEE7FEE732
:10636000FEE7FEE7FEE7FEE7FEE7FEE7FEE7FEE705
:1063700000F002B8FFF7FCBF0F484FF00701884359
:1063800085460E4880470E48016841F4700101605F
:10639000BFF34F8FBFF36F8FFFF732BF09480A4932
:1063A0000A4A884207D0521A05D0037801300B7090
:1063B0000131013AF9D170470000012065740200F3
:1063C00088ED00E07CAA020068590020685900208E
:1063D000004870479C59002004F04BB91FB50021BC
:1063E000039001AA44F20100CDE9011100F004F884
:1063F00005B05DF804FB000072B6094B1B68DB07B3
:1064000000D500BEBFF34F8F0649074BCA6802F4A0
:10641000E0621343CB60BFF34F8F00BFFDE700BFC7
:10642000F0ED00E000ED00E00400FA050B684A68BA
:106430004360934208BF0023016008BF4360704778
:10644000436843B10268916852680B4493424360C9
:1064500004BF002343607047002210B50446104675
:10646000A15CA1F13003092B0BD8A0F13003032A62
:1064700001EB030002F1010218BF0001042AEFD171
:1064800010BDA1F14103052B02D8A0F13703EEE7BF
:10649000A1F16103052B02D8A0F15703E7E7002023
:1064A000EEE700002DE9F84F0A688B6880465D1C16
:1064B000D018D35C222B8A46154440F0DD804C680E
:1064C0002F460023B91AA14280F0D68039782229BC
:1064D0000ED1C3F10103381ADAF81020184490479E
:1064E0008346002800F0C880DFF8989104460FE04A
:1064F0005C2905D10137B91A8C4240F2BD800133C5
:106500000137DFE72B785C2B12D004F8013B013513
:10651000BD42F7D3002323701023C8E9033BDAF808
:106520000030FF1A0137CAF808700120BDE8F88F63
:106530007A1B002A0DDD6B78752B0AD86D2B12D8CB
:10654000622B2BD026D82F2B29D05C2B27D0222BA7
:1065500025D0DAF8143058469847DAF80000281A9F
:10656000CAF808008BE06E3B072BF2D801A151F866
:1065700023F000BFA96502005365020053650200C5
:1065800053650200AD65020053650200B16502006B
:10659000B5650200662BDCD10C2300E0082304F86B
:1065A000013B02231D44B3E70A23F8E70D23F6E776
:1065B0000923F4E7052ACCDDA81CFFF74DFFA0F561
:1065C0005C43B3F5806F0646C3D3A0F55843B3F5DB
:1065D000806F2DD2AB1DFB1A052BBADDAB795C2B7E
:1065E000B7D1EB79752BB4D105F10800FFF734FF73
:1065F000A0F55C43B3F5806FABD209EA8626C0F301
:106600000900304300F580360C234FF0F00C0420D5
:1066100000F1FF3E54FA8EFEA645F2B224D10128C5
:1066200014BF4CEA020202F07F0222700444B9E770
:106630007F280AD9B0F5006F0CD3B0F5803F0ED398
:10664000B0F5881F85D20623DFE706234FF0000C44
:106650000120DDE706234FF0C00C0220D8E7062317
:106660004FF0E00C0320D3E702F03F0262F07F011D
:106670000EF80119B609CFE7002D7FF46EAF0020A8
:1066800054E700BF00FC0F0010B528B1016889B1C4
:10669000D0E901329A4202D310BD01328260826891
:1066A000934203D98C5C202CF7D9F5E7F4D1013B58
:1066B0008360F1E70846EFE710B5044640B1036890
:1066C00033B18068184402F07EFAA3681844A060D1
:1066D00010BD70B50446B8B1056865B1436813B123
:1066E0008268934210D900290EDBA2684E1C164422
:1066F000B34202D31544284670BD236923B9B6F1CD
:10670000804F03D3002E0FDA0025F4E77600236ACA
:106710006BB12846314698470546B0B9E369206811
:106720009847C4E90055E6E76FF00046EFE7A36934
:106730003046984705460028F0D0A268216801320B
:1067400002F09CF9E36920689847A368C4E9005601
:106750001D44D0E7F8B541EC100B2DED048B41EC56
:10676000180B43EC192B01F05FFE55EC104BB0EE0B
:10677000490AF0EE690A01F057FE204653EC102B4F
:10678000294601F043FD28B3B0EE480AF0EE680A4E
:1067900001F04AFE53EC192B51EC180B55EC104B41
:1067A00001F058FB41EC100B01F03EFE0C4B0022B7
:1067B0002046294657EC106B01F050FB02460B4671
:1067C0003046394601F0CCFCBDEC048B003818BFD4
:1067D0000120F8BDB0EE490AF0EE690AD8E700BF23
:1067E0000000B03C2DE9F0470E4688B381B38468C1
:1067F00022BB6CB3256AF5B1B54227D03746BA46FD
:10680000A9469AF8000001F015FF804699F80000AB
:1068100001F010FF804507F1010705F101051BD0CC
:106820009AF8000001F006FF054699F8000001F013
:1068300001FF85420AD02468DBE7246844B1216A5D
:1068400021B1304602F098F90028F6D1236A03B945
:1068500000242046BDE8F08717F8013C002BCED17C
:10686000F4E781B138B181420DD0836823B98160EA
:10687000C1E90031012070475A68002AFAD011603E
:106880004A605960F6E70020704700002DE9F84F94
:106890000646084611B90020BDE8F88F36B3444FCC
:1068A00031464FF0000A01240D4611F8013B3BBB75
:1068B000AD1B5544E91CFFF70CFF07460028EAD042
:1068C0004FF0220B441C05F1010905F1020880F884
:1068D00000B0BAF1000F29D12A463146204602F015
:1068E000CDF807F809B007F808A007E00321FFF783
:1068F000F0FE0028CFD02F4902F01CF90120CBE791
:10690000222B0BD8072B0CD9A3F10802D2B204FA20
:1069100002F23A4205D00AF1010AC5E75C2BC3D165
:10692000F9E71F2B98BF0AF1050ABDE7DFF888B029
:10693000013E5C254FF0740A16F8013F2BB9222264
:1069400007F8092007F80830D8E71F2B07D9222BB2
:1069500005D05C2B03D023702046441CECE7204676
:1069600000F8015B32780D2A0AD8072A1AD9A2F159
:106970000803052B16D8DFE803F009120E150C10DA
:10698000222A01D05C2A0DD16270E6E7622363708F
:10699000E3E76623FBE76E23F9E77223F7E784F862
:1069A00001A0DAE7594601F02DFF601DD5E700BFD1
:1069B000370000047CAA02007FAA020010B503463B
:1069C00028209847044618B12822002102F07FF8B9
:1069D000204610BD2DE9F0430C468DB0064608B99F
:1069E00000255DE00029FBD0057B102D00F0CA805A
:1069F00018DC6B1E072BF3D8072BF1D801A252F835
:106A000023F000BF8F6A0200A96A0200E169020058
:106A1000796A0200E1690200E1690200E1690200AD
:106A2000B96A0200402D00F0DB80802D00F09680D6
:106A3000202DD5D1866801212046FFF74AFE002887
:106A4000CED05B230370A3680133A360E3680133F6
:106A5000E3602C274FF00008002E40F098800221C0
:106A60002046FFF736FE0028BAD05D23037046703B
:106A7000E368013BE36008E005212046FFF729FEBB
:106A80000028ADD0A44902F055F8012508E0062100
:106A90002046FFF71EFE0028A2D0A04902F04AF8C7
:106AA00028460DB0BDE8F08305212046FFF711FE12
:106AB000002895D09A49E6E7D0E9068900211622F8
:106AC00006A8059102F003F80022002349EC108B80
:106AD000CDE9022301F098FC05AEB8B18E493046ED
:106AE00001F090FE0546192D3FF67AAF691C20464D
:106AF000FFF7EFFD00283FF473AF00239D4229D13B
:106B000000234355A0682844A060BEE749EC108BE1
:106B100001F070FC0028E1D1824942464B463046E4
:106B200001F070FE8049054602AA304601F07FFE62
:106B3000012806D07D4942464B46304601F062FEB0
:106B4000D0E7DDE9020142464B46FFF703FE00288D
:106B5000F0D0C8E7F25CC2540133CFE700690028E7
:106B60003FF43EAF02F02FF8421C1146204601923E
:106B7000FFF7AFFD00283FF433AF019A316901F010
:106B80007DFF82E70069FFF781FE054688E7214621
:106B90003046FFF71FFF00283FF422AF2046FFF7E3
:106BA0008BFD3368BBB16369002B14BF4FF0020942
:106BB0004FF0010909F101012046FFF78AFD002885
:106BC0003FF40EAF077063693BB9431C83F8008044
:106BD000A3684B44A36036683EE7831C4570F5E725
:106BE0004B698568002B14BF02270127791C2046BA
:106BF000FFF76FFD00283FF4F3AE7B230370E268DC
:106C000063690132E2600BB10A234370A3683B441D
:106C1000A36009263A27636995B9002B6FD0E16814
:106C200001312046FFF755FD00283FF4D9AE6369D6
:106C3000002B6ED103467D221A7000225A7017E78E
:106C400073B1E1682046FFF744FD00283FF4C8AE69
:106C50000246E168131A99424ED8A3680B44A36018
:106C6000286A2146FFF712FE00283FF4B9AE2046FD
:106C7000FFF722FD6369002B14BF4FF002084FF0AD
:106C8000010841462046FFF724FD00283FF4A8AE46
:106C90000770636903B14670A3684344A36021464B
:106CA0002846FFF797FE00283FF49AAE2046FFF7EC
:106CB00003FD2B686269003B18BF0123002A0CBF4B
:106CC000984603F1010808F101012046FFF701FD94
:106CD00000283FF485AE2B6813B12C2300F8013B4C
:106CE000636913B10A2300F8013B00230370A36812
:106CF0002D684344A3608EE702F8016BA9E70221E7
:106D00008FE703F8015BE268191A013A8A42F8D862
:106D100091E703460925F6E785AA02008AAA020040
:106D200090AA020095AA02009CAA0200A0AA020052
:106D3000F0B5244D8BB00E4624220021044601A854
:106D400001F0C5FE2B684FF4807098474FF48072B5
:106D500003460190029295E8070006960AAE06E9FE
:106D600007002F467BB101A92046FFF733FE50B143
:106D700001A8FFF7A1FCAE6803995EB1019801314B
:106D8000B0470446D0B9019CC4B120467B689847FF
:106D9000002413E02B68481C984704460028F2D0D2
:106DA000039A029B019901329A4228BF1A4601F0C8
:106DB00065FE039BE65401986B68984720460BB02C
:106DC000F0BD00BF6859002037B5054680B101F01D
:106DD000FAFE084B421C1B68019210469847044675
:106DE00018B1019A294601F049FE204603B030BD92
:106DF0000446FAE768590020F8B50D4614460746E0
:106E000000B3F9B1F2B190421CD093B1D66846F408
:106E10000076E3689B0504D4206A10B10A4B5B68D6
:106E200098472562E66021463846BDE8F840FFF7FE
:106E300018BD0846FFF7C8FF054618B1E66826F4F6
:106E40000076E6E70020F8BD6859002070B5104DC7
:106E5000044604B970BDE3682668D90503D4A06868
:106E600068B9206988B9E3689B0503D4206A08B132
:106E70006B68984720466B6898473446E9E7FFF708
:106E8000E5FFE368DA05ECD5EDE76B689847EAE7DC
:106E900068590020000000002DE9F043064693B039
:106EA0000C4609B9002024E008680028FAD08B6855
:106EB0006268191D91420BD893490422184401F0CD
:106EC000C9FC28B90423F360A3680433A36084E0F9
:106ED000A3686268591D91420ED820688B4905222B
:106EE000184401F0B7FC38B9A2680120F0600532FF
:106EF000A26013B0BDE8F083A3686268191D9142D7
:106F00000DD8206882490422184401F0A3FC30B94E
:106F1000A26802230120F36070610432E8E7D4E93B
:106F200001038342BED22168CA5C222A01EB030717
:106F300004D121463046FFF7B5FADAE72D2A03D00F
:106F4000A2F13005092D5DD8002201920029A9D0B7
:106F5000C31A02AD4FF02E0C17F8011B39290FD8B8
:106F60002A2917D9A1F12B000E2813D8DFE800F049
:106F70000C120C37120C0C0C0C0C0C0C0C0C0C0026
:106F800001F0DF00452805D1A95401323F2A01D084
:106F90009A42E1D112AB1A4401A90023284602F813
:106FA000403C01F085FC019FAF4259EC108B3FF44F
:106FB00079AF86ED060B52A3D3E9002310EE100A39
:106FC000494601F005F968B16FF0004373617D1B1C
:106FD000A76808233D44F360A560012089E705F810
:106FE00002C0D2E74B4B00224046494601F0B8F8B8
:106FF00010B14FF00043E9E74046494601F03EF941
:107000007061E4E75B2A53D1E268B2F57A7FBFF49E
:1070100049AF0132E260CA5C5B2A7FF443AF0133BF
:10702000A3602046FFF730FBD4E90123934263D2EB
:107030002268D25C5D2A0CD100252F46E368013B13
:10704000E36007B17D602023C6E90273A3680133C2
:107050003CE7013B0025A3602F462069FFF7AEFC0B
:10706000A8460546002800F09C80FFB1C8F8000043
:10707000C0F80480A3680133A3602046FFF704FB37
:1070800021462846FFF708FF002800F08D802046A3
:10709000FFF7FAFAD4E90123934280F08580226851
:1070A000D35C2C2BD9D05D2B7ED1C7E70746E1E717
:1070B0007B2A7FF4F7AEE268B2F57A7FBFF4F2AED6
:1070C0000132E260CA5C7B2A7FF4ECAE0133A3603C
:1070D0002046FFF7D9FAD4E9012393420CD2226863
:1070E000D25C7D2A18D100252F46E368013BE3607E
:1070F00007B17D604023A7E7013BA360D2E600BF54
:107100000000C0FFFFFFDF4185AA02008AAA02003B
:1071100090AA02000000E0C10025013BA3602F46B9
:10712000A8462069FFF74AFCA9460546002838D042
:10713000AFB3C9F80000C0F80490A3680133A3609E
:107140002046FFF7A1FA21462846FFF7ABF958B3CE
:107150002046FFF799FA2B692B62D4E90123934269
:10716000C5F8108020D22268D25C3A2A1CD10133A3
:10717000A3602046FFF788FA21462846FFF78CFED9
:1071800090B12046FFF780FAD4E9012393420BD255
:107190002268D35C2C2BC4D07D2B05D1A5E70746F4
:1071A000CBE7002F3FF47EAE3846FFF74FFE79E67F
:1071B0002DE9F043324F89B005460C4616460021B2
:1071C0001C2201A84FF00009984601F080FCC7E995
:1071D0000099002D4AD0002C3DD02A4B93E807009F
:1071E00008ABCDE9015403E90700FFF7E7FB0446CC
:1071F000002830D0019828B1039BE3B9029B042BEF
:107200000FD801A8FFF740FA01462046FFF744FED9
:10721000F0B1B8F1000F10D156BB204609B0BDE85F
:10722000F0831949032201F015FB0028E9D1039BE3
:1072300003330393E5E74846E4E701A8FFF724FAA0
:10724000DDE90223934203D2019AD35C002BE3D001
:107250002046FFF7FBFDDDE902329A420DD303B170
:10726000013B0EB1EA183260C7E900530024D4E7AD
:10727000019B039A13443360CFE71346F1E700BF45
:107280009059002068590020A7AA020037B50D4682
:107290000192044650B101F096FC019B411C2A4624
:1072A000204603B0BDE83040FFF782BF03B030BDD9
:1072B00000221146FFF7EABF0121FFF739BD012285
:1072C000FFF790BAFFF7CDBA0023FFF795BD000096
:1072D000174BD0B5186857EC106BFFF76FFB0446DF
:1072E00070B10823C360C0E906670FA3D3E9002388
:1072F0003046394600F06CFF20B16FF00043636107
:107300002046D0BD0B4B00223046394600F028FF06
:1073100010B14FF00043F2E73046394600F0AEFFBF
:107320006061EDE7AFF300800000C0FFFFFFDF41C9
:10733000685900200000E0C137B505460191FFF70C
:10734000C7FF01990246044600232846FFF754FD73
:10735000054618B92046FFF779FD2C46204603B0B4
:1073600030BD000038B50A4B05461868FFF726FB0C
:10737000044658B11023C3602846FFF725FD054693
:10738000206118B92046FFF761FD2C46204638BD24
:107390006859002037B5054610460191FFF7E2FF16
:1073A00001990246044600232846FFF725FD0546BD
:1073B00018B92046FFF74AFD2C46204603B030BDE1
:1073C00008B5044B1868FFF7F9FA08B12023C36029
:1073D00008BD00BF6859002008B5044B1868FFF7C6
:1073E000EDFA08B14023C36008BD00BF6859002012
:1073F0000C4B1B78062B10D10B4B1B681A070CD1BA
:107400000A4B186800F0F003302B08D000F0E000C1
:10741000A0F14003584258417047002070470120B6
:10742000704700BFE00F00F0E40F00F0E80F00F03D
:10743000094B1B78062B0CD1084B1B681A0708D187
:10744000074B186800F0F000A0F130035842584193
:1074500070470020704700BFE00F00F0E40F00F01D
:10746000E80F00F008B5FFF7C3FF28B17D4B7E4A57
:107470001B68C3F304231360FFF7DAFF10B17B4BE3
:107480007B4A1A60FFF7B4FF28B17A4B7A4A1B682F
:10749000C3F342331360FFF7CBFF20B1774AD368C1
:1074A00023F08073D360FFF7A3FF40B14FF0804318
:1074B0000022C3F80C21C3F81021C3F83825FFF7C8
:1074C000B7FF10B16E4B03221A60FFF7B1FF40B156
:1074D0006C4B05221A6001229A6700229A603F22B3
:1074E0005A60694B1B78062B50D1684B1B681907F3
:1074F0004CD1674B1B6803F0F003502B46D14FF083
:107500008052644BD2F80414C3F82015D2F8081442
:10751000C3F82415D2F80C14C3F82815D2F81014A7
:10752000C3F82C15D2F81414C3F83015D2F8181477
:10753000C3F83415D2F81C14C3F84015D2F820143F
:10754000C3F84415D2F82414C3F84815D2F8281407
:10755000C3F84C15D2F82C14C3F85015D2F83014D7
:10756000C3F85415D2F83414C3F86015D2F838149F
:10757000C3F86415D2F83C14C3F86815D2F8401467
:10758000C3F86C15D2F84424C3F87025FFF730FF18
:1075900028B1414B414A1B6803F04F031360FFF7CA
:1075A00027FF48B14FF08043D3F80024D20744BFEF
:1075B0006FF00102C3F80024394B1B68062B08D179
:1075C000384B1B68062B01BF374A136843F48063AE
:1075D0001360364AD2F8883043F47003C2F888301A
:1075E000BFF34F8FBFF36F8F4FF01023D3F80022FC
:1075F000002A03DBD3F80432002B2FDA2C4B0122B4
:10760000C3F80425D3F80024002AFBD04FF0102241
:107610001521C2F80012D3F80024002AFBD04FF045
:1076200010231522C3F80422214B1A46D3F8001464
:107630000029FBD00021C3F80415D2F80034002B38
:10764000FBD0BFF34F8F19491A4BCA6802F4E062AE
:107650001343CB60BFF34F8F00BFFDE7164B174AB4
:107660001A6008BD240300104035014074C0074073
:107670000DF0ADBA440200103C050040F0ED00E012
:10768000A005004010560040E00F00F0E40F00F0AD
:10769000E80F00F000C0004058020010E40E004067
:1076A00030010010340100103C17004000ED00E0F4
:1076B00000E001400400FA05745900200090D00356
:1076C0002DE9F84F2DED068BFFF786FE0AEE100A26
:1076D000FFF776FECE49CF4ECF4DDFF880A3DFF81F
:1076E00080B3074602461AEE100AFFF7EDFDFFF7DA
:1076F00073FE804601463846FFF7E4FDC74AC84995
:107700004046FFF747FEFFF767FE9FEDB38B044649
:107710000246C4494046FFF7D7FDB0EE480AF0EEF6
:10772000680A31462046FFF707FE2946BE4A204632
:10773000FFF730FEFFF750FEBC49044602464046C4
:10774000FFF7C2FD9FEDA60B31462046FFF7F4FD83
:10775000B74A29462046FFF71DFEB0EE480AF0EE74
:10776000680AB4494046FFF7E7FDFFF735FE0446D7
:1077700002464046DFF8EC82AF49FFF7A5FD5246CE
:1077800041462046FFF706FE5A46AC492046FFF721
:1077900001FEFFF721FE814601463846FFF792FDC4
:1077A000A74A9F494846FFF7F5FDFFF715FE9D499B
:1077B000044602464846FFF787FD9FED8B0B314696
:1077C0002046FFF7B9FD2946974A2046FFF7E2FD1C
:1077D000FFF702FE9549044602464846FFF774FD4E
:1077E0009FED830B31462046FFF7A6FD904A2946C0
:1077F0002046FFF7CFFDB0EE480AF0EE680A8D494B
:107800004846FFF799FDFFF7E7FD8E49044602461B
:107810004846FFF759FD5246DFF84CA24146204644
:10782000FFF7B8FD5A4651462046FFF7B3FDFFF774
:10783000D3FD8149044602464846FFF745FD824B89
:1078400041461A462046FFF7A5FD804A7B4920465F
:10785000FFF7A0FDFFF7C0FD044601463846FFF7DD
:1078600031FD7B4A6E492046FFF794FDFFF7B4FDDA
:107870009FED619B814602466A492046FFF724FD41
:10788000B0EE490AF0EE690A31464846FFF754FD6A
:107890002946654A4846FFF77DFDFFF79DFD634990
:1078A000814602462046FFF70FFDB0EE480AF0EE93
:1078B000680A31464846FFF73FFD5D4A294648467B
:1078C000FFF768FD9FED4E0B5A492046FFF734FD48
:1078D000FFF782FD5B49814602462046FFF7F4FC34
:1078E000594B41461A464846FFF754FD574A514600
:1078F0004846FFF74FFDFFF76FFD814602462046E1
:10790000544C4D49FFF7E0FC224641464846FFF7FC
:1079100041FD5A4649494846FFF73CFDFFF75CFDEB
:10792000814601463846FFF7CDFC4B4A3C49484664
:10793000FFF730FDFFF750FD3A490746024648463B
:10794000FFF7C2FC9FED300B31463846FFF7F4FCE1
:107950002946354A3846FFF71DFDFFF73DFD3349FF
:10796000024607464846FFF7AFFCB0EE490AF0EE84
:10797000690A31463846FFF7DFFC2D4A294638466A
:10798000FFF708FDB0EE490AF0EE690A29494846BA
:10799000FFF7D2FCFFF720FD2A490546024648467C
:1079A000FFF792FC224641462846FFF7F3FC5A4671
:1079B00051462846FFF7EEFC1AEE100AFFF77CFC52
:1079C00004461AEE100AFFF741FABDEC068B20467A
:1079D000BDE8F88FAFF30080000000000000144005
:1079E0009A9999999999B93F0000000000001C40AC
:1079F000000000000000F03F0000000000002440F4
:107A000000000000000020400000000000002840AE
:107A1000ABAA0200D7AA0200E0AA0200B1AA0200A3
:107A2000B8AA0200C5AA0200DDAA0200E5AA020067
:107A3000F3AA020000AB020009AB020027AB020070
:107A400032AB02003AAB02004BAB020055AB020076
:107A50005DAB020067AB020070AB020010AB02002E
:107A600021AB02001CAB020041AB02002DE9F74F35
:107A7000FFF71EFC32490546FFF721FC28B92846CE
:107A800003B0BDE8F04FFFF7E1B98468DFF8E4A088
:107A9000DFF8E4B0DFF8E4904FF00008002CEED0FF
:107AA00051462046FFF70BFC594601902046FFF750
:107AB00006FC24490646FFF702FC23493046FFF73F
:107AC000FEFB224906462046FFF7F9FB1D490090C0
:107AD000FFF7F5FB009A1C4907461046FFF7EFFB3E
:107AE0001B492046FFF7EBFB1A492046FFF7E7FB4F
:107AF00019490090FFF7E3FB009A18491046FFF779
:107B0000DEFB17492046FFF7DAFB13490090FFF729
:107B1000D6FB009A13491046FFF7D1FB019B124A8E
:107B20001A61D7E9060142464B4600F037FB20B107
:107B30000E4B0F48336100F045FE2468AEE700BFEE
:107B4000ABAA0200D7AA0200E0AA0200E5AA02003E
:107B500000AB02003AAB02001CAB020041AB0200DA
:107B600009AB020027AB02005DAB0200DDAA0200F8
:107B70007BAB0200B8AA0200C5AA020000001440B4
:107B800010B5FFF79DFD01460446054800F01AFEBA
:107B90002046FFF76BFF204600F0A8FD002010BD37
:107BA00090AB020007B508496846FEF73FFC019B11
:107BB00013B903B05DF804FBD3E900209047684691
:107BC000FEF73EFCF3E700BF94AB0200FFF7EABF0D
:107BD0004BDF70471FB50D4C01A8FFF7F9FF70B9D7
:107BE000214602A8FEF722FC039B002BF4D001984B
:107BF000D3E90021904702A8FEF722FCF4E705280C
:107C000001D0FEF7EBFB04B010BD00BFA0AB02003B
:107C100030B591EA030F00F18480841A71EB030CF4
:107C200005D2121953EB0C03001B71EB0C0140F24F
:107C3000000CCFF6E07C1CEA430F54D0BCEB410FA4
:107C400061D90C0DA4EB135E31EA0C0141F48011F3
:107C500033EA0C0343F48013DEF1200C2AD303FA39
:107C60000CF5401941F1000122FA0EF5401923FAF2
:107C70000EF5694112FA0CF2CD0208D349085FEA09
:107C800030005FEA320228BF42F001020134013CB9
:107C90005FEA500C72F1004250F1000051EB0451C8
:107CA0004FF4001313EB410F38BF30BD090D090528
:107CB000002030BDBEF1200EBEF1200F1ED223FAEF
:107CC0000EF5401941F10001CEF1200C124218BF0F
:107CD000012203FA0CF52A43CEE711EA5C0F04BF38
:107CE0000020002130BD1CEA410F04BF01F000411B
:107CF000002030BD01F00041002030BD21F4801192
:107D000001EB045130BD004218BF41F00101BCEB52
:107D1000410F08BF30BD4FF0FE4141F47801002013
:107D200030BD83F00043841A71EB030E07D28EF04E
:107D3000004E001B71EB0E01121953EB0E0340F2C3
:107D4000000CCFF6E07C1CEA430FC6D0BCEB410F21
:107D500072D90C0DA4EB135EC90241EA5051C00266
:107D600041F00041DB0243EA5253D20243F00043A8
:107D7000DEF1200C41D312FA0CF522FA0EF203FACE
:107D80000CF542EA050218BF42F0010223FA0EF395
:107D9000801A9941E30AC4F30A0411F0404F03D456
:107DA00018D0013C40004941013C23D44205C00A9F
:107DB00040EA4150C90A51EAC3715FEA500C72F1BE
:107DC000004250F1000051EB045130BD01002FD0B2
:107DD0000020203C0029F9D0B1FA81FCDCF1200E12
:107DE00011FA0CF130FA0EF510FA0CF02943A4EB5D
:107DF0000C04D9E70020D90730BDAEF1200EBEF14A
:107E0000200F0DD2CEF1200C03FA0CF533FA0EF34D
:107E10002A4318BF43F00103C01A61F10001B9E71A
:107E200021F00041C00A40EA4150C90A01EB045167
:107E300030BD0020002130BD004218BF41F00101DB
:107E4000BCEB410F7FF467AFBCEB430F3FF463AF74
:107E500030BD00BF83F00043FFF7DABEF0B540F25B
:107E6000FF7681EA030C16EA115E1EBFB64516EADC
:107E70001355B5425AD021EA465141F48011A1FB75
:107E8000024723EA465343F48013AE44A0FB036544
:107E90000CF0004C36197D41A1FB034747F100036C
:107EA000A0FB0217F619654153F10003094218BF00
:107EB00046F0010640F2FE74B3F5007F13D2AEF532
:107EC000806EA6452BD24CEA0331280341EA1551B6
:107ED00040EA16503203450872F1004250F10000AA
:107EE00051EB0E51F0BDAEF2FF3EA64517D24CEA63
:107EF000C321E80241EA555140EA5650F2024508D2
:107F000072F1004250F1000051EB0E51F0BD0CF047
:107F1000004141F0FE4141F470010020F0BD1EEA35
:107F20000E0FF4D50CF000410020F0BD16EA115FF1
:107F300004BF01F000410020004218BF41F00101E0
:107F400016EA135F04BF03F000430022124218BF79
:107F500043F0010306EA1354B44218BF9EEA060F29
:107F600003D00CF000410020F0BD21F0004123F0CF
:107F70000043B1EB065F06D8B3EB065F03D80029D8
:107F800018BF002BC3D140F20001C7F6F8710020E2
:107F9000F0BD00BF2DE9F04391EA030E0EF0004E54
:107FA00040F20007CFF6E07717EA41051EBF95EAD9
:107FB000070F17EA430595EA070F00F0A1807F0D30
:107FC00017EA135623EA475343F4801317EA11556F
:107FD00021EA475141F48011AD1B05F2FD354FEA0E
:107FE000D31C1CF1010C4FF00047B7FBFCF77F01DD
:107FF000A2FB079C0024E3FB07C4DCF1000CD9F1D1
:1080000000097CF1000CA0FB07620020E1FB0720C7
:1080100000275FEAC628E0FB0987760D46EAC226FC
:10802000520DF61900277A41E0FB0C625FEAC82383
:10803000E2FB09375FEA585848EAC628760D18EB84
:10804000070800214E41E2FB0C8602EBC020DA0259
:10805000E6FB09215B0D43EAC8235FEA58585B1829
:10806000002758EB0708E6FB0C38D102E8FB09179C
:10807000520D42EAC3225B0DD21900277B41E8FB77
:108080000C2308EBC6265FEAC128E3FB0987490DEC
:1080900041EAC221520DC91942F10002E3FB0C1260
:1080A000470019EB08095CEB010C72EB040453EB7D
:1080B000C62047EB56530026B3F5000F7641AD19A5
:1080C0000236D6F1200910FA09F4F04013FA09F249
:1080D0001043F340E40F001943F10003B3F5001F10
:1080E00024BF5B08013540F2FE77BD4204D24EEA60
:1080F00005511944BDE8F0832D4224D5714626E090
:10810000004218BF41F00101124218BF43F00103C1
:10811000B7EB410F2CBFB7EB430F1BE0B7EB410FA1
:1081200004BFB7EB430F15E017EA410F04BF17EA8E
:10813000430F0FE017EA410FE0D017EA430F02D0D8
:10814000B7EB430FDAD04EF0FE4141F4700100204E
:10815000BDE8F08340F20001C7F6F871F7E700BF11
:108160004FF4001C1CEB410F98BF1CEB430F11D8C0
:1081700051EA030C50EA4C0C5CEA020C0CD004D21D
:1081800082428B4180410130704790429941804149
:108190000130704700207047012070474FF4001CE9
:1081A0001CEB410F98BF1CEB430F0CD850EA410C5D
:1081B00008BF52EA430C08D0904208BF99420CBF56
:1081C000012000207047002070470120704700BF49
:1081D0004FF4001C1CEB410F98BF1CEB430F11D850
:1081E00051EA030C50EA4C0C5CEA020C0CD004D2AD
:1081F0009042994180410130704782428B418041D9
:108200000130704700207047012070474FF4001C78
:108210001CEB410F98BF1CEB430F11D851EA030C24
:1082200050EA4C0C5CEA020C0AD004D282428B4128
:10823000804140427047904299418041404270479E
:10824000002070474FF4001C1CEB410F98BF1CEB43
:10825000430F11D851EA030C50EA4C0C5CEA020CB3
:108260000AD004D2904299418041404270478242F4
:108270008B4180414042704700207047C1F30A5350
:1082800040F21E42D21A0EDD202A0AD8CB0243EA5F
:10829000505040F00040D04090EAE170B0EBE17007
:1082A0007047002070474B00004218BF43F00103A5
:1082B00013F5001F88BF21F0004111F0004058BFA6
:1082C0006FF00040704700BF0A15C90241EA5051E3
:1082D000C00241F0004140F21E439A1A08DA2032EF
:1082E0000DD4D141D04048409140D14048407047E2
:1082F000202A28BF202231FA02F0002170476FF0B7
:1083000000010846704700BF80B110F0004248BF2E
:10831000D0F10000120D02F21D42B0FA80F1884047
:10832000521AC30A400503EB02517047010070471F
:10833000F9B140F23D42B1FA81F3D21AC3F1200CF7
:1083400030FA0CFC9840994051EA0C0183054FEA41
:10835000D02040EA41504FEAD12101EB025138BF11
:108360007047013041F100011B4208BF20F00100BD
:10837000704748B140F21D42B0FA80F3D21A9840DB
:10838000C10A400501EB0251704700BF01F00042F5
:108390008B1AA3F16051B1F5801F0ADBB1F17F6F39
:1083A00009D242EAC102C10071F1004142EB5070B2
:1083B00070471046704701285B4113F5001F04D831
:1083C00042F0FE4040F400007047C90041EA50709E
:1083D00040EA020040F4800040F08040704700BF57
:1083E00010EE100A4FEA4000B0F17F4F0CBF0120A1
:1083F0000020704751EC100B0128494111F5001F76
:108400000CBF01200020704751EC100B012849419E
:1084100011F5001F8CBF01200020704751EC100B9C
:1084200001F00040704700BF51EC100B21F00041FB
:1084300041EC100B704700BF7F2805D8034B185C38
:10844000034B5B5C1840704700207047B8AB0200DC
:1084500038AC0200A0F16103192B98BF2038704797
:10846000A0F14103192B98BF203070477F2805D811
:10847000034B185C034B5B5C18407047002070474F
:10848000B8AB020038AC0200A0F16103192B98BF11
:1084900020387047A0F14103192B98BF2030704756
:1084A0007F299ABF017001206FF02E0070475AB1EA
:1084B0000A787F2A0AD800B1026000211960596049
:1084C000501A18BF01207047002070476FF02E002F
:1084D000704708B5037833B143681A7832B15A1C33
:1084E0004260187801E04368984708BD4FF0FF30BC
:1084F000FBE7000070B5041E06DB002C1DDD002626
:1085000000200F490F4D06E064420126F8E7641091
:108510000835002C07DD14F0010FF8D0D5E9002351
:10852000FFF79CFCF3E72EB102460B4600200449FE
:10853000FFF730FD41EC100B70BD00200049F9E75A
:108540000000F03F18AE020038B504460846A268A5
:1085500042B1236861685D1C8D4208BF00208B42D8
:1085600008D2D054E3682BB121686268914201D2ED
:108570002146984723680133236038BD70B54C1EEF
:1085800009D41646C5B229463046FFF7DDFF013C47
:10859000B4F1FF3FF7D170BD10F0100F08D108B54E
:1085A00010F4007F14BF30202020FFF7E7FF08BD44
:1085B00070470028B8BF40427047000008B5034B21
:1085C0005B689B681B68984708BD00BF785900200E
:1085D00008B50721FFF7F2FF08BD08B50621FFF730
:1085E000EDFF08BD08B50421FFF7E8FF08BD38B569
:1085F00004460D46FFF7F6FF30B1A4F13000A84263
:10860000A8BF4FF0FF3038BD2046FFF7E6FF10B19E
:10861000A4F15700F3E72046FFF7DAFF10B1A4F109
:108620003700ECE74FF0FF30E9E708B50821FFF726
:10863000C5FF08BD08B5034B5B689B689B689847FE
:1086400008BD00BF7859002000B5FDF7C1FE024B00
:1086500018445DF804FB00BF0800000038B5204B4B
:10866000204A9B1A102B39D9044601F097FF04F1D8
:10867000130020F00F021C4B186858B34FF0FF3462
:108680000025294611E041B103680B60044644F817
:10869000042B01F084FF204638BD0168124B19609D
:1086A000F4E70368014653B1184643689342EAD0A1
:1086B0009342F6D9A3423CBF1C460546F1E74DB1B3
:1086C0006B689B1A6B60A31AEC18EA5001F067FF05
:1086D0000434E0E701F063FF0024DCE70024DAE77C
:1086E000A8790020A85900208C59002000284CD0DF
:1086F00038B50446254B98423CD3254B984239D88F
:1087000001F04CFF221F54F8040C224B1B68B3B13C
:10871000934230D219461B680BB39A42FAD844F8F8
:10872000043C20600A60104483421DD120685D68CB
:10873000284420601B6844F8043CC9B114E0154B80
:108740001A60002344F8043C206011E00021EDE7AA
:10875000226813444B6054F8043C0B6008E000238B
:1087600044F8043C20600A604B68C8188242EFD08D
:1087700001F015FF38BD44F8043C206005490A604B
:1087800010448342E2D00021D7E77047A859002067
:10879000A87900208C59002070B504460D46084683
:1087A000FFF75CFF064658B154B154F8042CAA42B6
:1087B00028BF2A46214600F061F92046FFF796FFC0
:1087C000304670BD0FB410B586B008AB53F8044BFB
:1087D0000593002303936FF000430293084B049327
:1087E00001F0DEFE059A214601A800F01DFA0446BC
:1087F00001F0D7FE204606B0BDE8104004B0704737
:10880000D96302000EB400B586B007AA52F8041B63
:1088100005920390002304936FF00043029301A894
:1088200000F002FA06B05DF804EB03B070470EB436
:1088300000B584B005AA52F8041B019201238DF8FB
:108840000830039002A801F0BFFC04B05DF804EB0F
:1088500003B07047CAB170B41446012A10D00A465A
:1088600003462044461E1146184613F8014B3CB1FE
:1088700001320D78A54203D1184611469E42F2D12D
:1088800000780B78C01A70BC7047002070470378DE
:1088900053B159B10144034613F8012F12B18B4271
:1088A000FAD10B46181A70470346FBE70346F9E76F
:1088B0002DE9F04F83B00190009105462F4615F841
:1088C000016BB1463046FFF7B0FE04460028F5D1F3
:1088D0002B2E0CD02D2E0CD14FF0040895F80090C3
:1088E000BD1C4FF0000A4FF0000B2E279DE0804684
:1088F000F4E78046F5E718F0010F7ED148F0010853
:1089000091E029F02009B9F1450F25D0002C4EDD6A
:108910000026584F32463B4650465946FFF79EFACE
:1089200082468B46013CF5D14BEC10ABFFF762FD64
:1089300000284BD118F0040F02D00BF100439B46E6
:1089400018F0020F4BD0009B0BB1013D1D604BECAA
:1089500010AB03B0BDE8F08F18F0020FD6D028F0AE
:1089600002082F782B2F05D02D2F01D0013503E0E1
:1089700048F008086F78023542F210790CE048F0B0
:108980000208B6F57A7FDDBF06EB8606303F07EBBF
:1089900046064E4615F8017B3846FFF723FE0028B1
:1089A000EDD118F0080F14BFA41BA419AEE7002CDA
:1089B000BADA00262F4F32463B4650465946FFF75B
:1089C000E9FA82468B460134F5D1ADE7FFF73CFE6C
:1089D000222303604FF0000ADFF89CB0AAE7009B57
:1089E00033B1019A1A604FF0000A4FF0000BAEE766
:1089F0004FF0000A4FF0000BA9E73846FFF7F2FDF1
:108A0000002883D048F0020600221A4B50465946EF
:108A1000FFF724FA00224FF08043FFF71BFA82464B
:108A20008B46013CB04615F8019BB9F12E0F3FF47F
:108A300062AF4846FFF7D6FD064600283FF461AF17
:108A400048F0020600220B4B50465946FFF706FA43
:108A500082468B46A9F13000FFF756FC52465B4632
:108A6000FFF7D6F882468B4618F0010FD9D1B046F1
:108A7000D9E700BF000024400000F07F844640EAB0
:108A8000010313F0030F18D18446202A0BD32DE9DC
:108A9000F007B1E8F807A0E8F807A2F12002202AC1
:108AA000F7D2BDE8F007042A07D351F8043B40F899
:108AB000043BA2F10402042AF7D2002A05D011F8DF
:108AC000013B00F8013B013AF9D16046704784460A
:108AD000002A2DD010F0030F04D000F8011B013A3A
:108AE00026D0F7E7C9B241EA012141EA0141202A33
:108AF00012D3A2F120022DE9F0030B460C460D46DD
:108B00000E460F4688468946A0E8FA03203AFBD273
:108B1000BDE8F00320320BD0042A05D340F8041B33
:108B2000043A05D0042AF9D200F8011B013AFBD11E
:108B300060467047024610F0030F16D111F0030F84
:108B400013D12DE9F0004FF001374FF0803351F889
:108B5000044BA4EB070525EA04051D4002D142F8A9
:108B6000044BF4E7A1F10401F0BC11F8013B02F859
:108B7000013B002BF9D1704710F0030F19D111F010
:108B8000030F16D12DE970004FF001364FF08033FE
:108B900050F8044B51F8045BAC4205D1A4EB060538
:108BA00025EA04051D40F3D0A0F10400A1F1040161
:108BB00070BC10F8012B11F8013BD21A01D1002B27
:108BC000F7D11046704700F1010110F0030F11D0EA
:108BD00010F8012B002A23D010F0030F0AD010F850
:108BE000012B002A1CD010F0030F03D010F8012B2A
:108BF000002A15D02DE970004FF001324FF080337C
:108C000050F8044BA4EB020525EA04051D4000D1F1
:108C1000F6E7A0F1040070BC10F8012B002AFBD18C
:108C2000A0EB0100704700002DE9F04F2DED068B01
:108C300093B083460992002303600E4616F8011B89
:108C4000002901F014809FEDA28B9FEDA3AB9FED57
:108C5000A49B574600F0FDBF002407E05E286AD1C0
:108C600044F4805401E044F040041646324612F8C1
:108C7000010B3028F2D81F2837D9A0F12003102B80
:108C800033D801A151F823F0678C0200EB8C02006D
:108C9000EB8C0200CD8C0200EB8C0200EB8C02000E
:108CA000EB8C0200D38C0200EB8C0200EB8C0200F8
:108CB000EB8C0200D98C0200EB8C0200DF8C0200EE
:108CC000EB8C0200EB8C0200E58C020044F0800487
:108CD000CBE744F40044C8E744F02004C5E744F07F
:108CE0001004C2E744F40074BFE72A2823D1099B8B
:108CF000191D09911B68002BBCBF5B4244F0100496
:108D00001078B21C23EAE37304932E2828D04FF086
:108D1000000874284CD07A284AD06A2800F0C9800C
:108D20006C2800F0CC804C2800F0E480682800F02B
:108D3000F38092463FE0A0F13003DBB2092B88BFFD
:108D40000023DFD8002303EB8303303800EB430319
:108D500012F8010BA0F13001C9B20929F3D9D1E70A
:108D600010782A280CD1099B191D0991D3F800808D
:108D700050780232B8F1000FCBDB44F48074C8E7BE
:108D80000132A0F13003DBB2092B88BF4FF000089D
:108D9000F3D84FF0000808EB8808303800EB48089B
:108DA00012F8010BA0F13003DBB2092BF3D9E1E794
:108DB00092461AF8010B782800F29F80DFE810F045
:108DC00069079D009D009D009D009D009D009D00E8
:108DD0009D009D009D009D009D009D009D009D00AB
:108DE0009D009D009D009D009D009D009D009D009B
:108DF0009D009D009D009D009D009D009D009D008B
:108E00009D009D009D009D009D00BA009D009D005D
:108E10009D009D009D009D009D009D009D009D006A
:108E20009D009D009D009D009D009D009D009D005A
:108E30009D009D009D009D009D009D009D009D004A
:108E40009D009D009D009D009D0050026F027402D8
:108E50009D009D009D009D009D009D009D009D002A
:108E60009D009D009D009D009D009D009D009D001A
:108E700052019D009D009D009D009D009D009D0054
:108E80009D009D009D00C000A30152027102760268
:108E90009D00A3019D009D009D009D00D1008F01BC
:108EA0002F019D009D00EC009D009B019D009D00F9
:108EB000540144F0020492461AF8010B7BE7107843
:108EC0006C2811D002F1010A44F0010473E700BFDD
:108ED000000000000000E03F0000000000005940DA
:108EE000A0C8EB85F3CCE17F44F0020402F1020A52
:108EF000507860E744F001049246C94B1D68002D8C
:108F000000F0A38609AB0193CDF80080049B2246B4
:108F10005946A84700F099BE1078682804D002F19D
:108F2000010A44F0040446E744F0080402F1020A8E
:108F3000507840E725215846FFF706FB00F085BE34
:108F4000099B1A1D09921D78049B03F1FF395A46AB
:108F500049462046FFF720FB29465846FFF7F4FA1A
:108F60004DE014F0080F08D0DBF80020099B191D14
:108F700009911B681A7000F068BE14F0020F099B7B
:108F800003F1040209921B68DBF800201A601CBF81
:108F900000225A6000F059BE099B1A1D09921B68F5
:108FA000029323469F4ADDE902452146002C08BF73
:108FB0001146029123F4007413F4807F2AD04146B5
:108FC0000298FFF764FC0546049BA3EB05095A468B
:108FD00049462046FFF7E0FA6F1E85B14D46DDE9B0
:108FE0000289434608F1010819785846FFF7ACFAA0
:108FF000013FB7F1FF3FF4D1CDE90289A94614F052
:10900000100F00F022865A4649462020FFF7B6FA94
:1090100000F01BBE0298FFF7D6FD0546D4E709997C
:109020000B1D09930A68002316461F46CDE9026707
:1090300014F0800F18BF2323059344F480744FF07D
:109040000808DDE9020102460B46014300F0DB851A
:109050000BA8002504F40057DFF8CCE1DFF8CCC101
:1090600000F085BD44F4005414F0800F08D043F2A2
:10907000780243F25803782818BF1A46059201E097
:109080000023059314F4807F01D024F4007414F4B9
:10909000804F5ED014F0020F3DD0099B073323F0C0
:1090A000070303F108020992D3E90023CDE9022363
:1090B00014F0040F38D0BDF808100AB2D317CDE968
:1090C0000223DDE90223002A73F1000136DA52425D
:1090D00063EB4303CDE902232D23059351E014F004
:1090E000800F0CBF00233023059314F4807FCED073
:1090F00024F40074CBE714F4807F09D024F40074C6
:1091000000230593C3E744F4804400230593BEE79E
:1091100000230593BBE7099B1A1D09921E6832467E
:10912000F317CDE90223C3E714F0080FC9D09DF867
:109130000820002316461F46CDE9026714F0200FD1
:1091400040F08B8014F0400F059B18BF202305933F
:1091500017E014F0020F6BD0099B073323F00703CD
:1091600003F108020992D3E90023CDE9022314F0A8
:10917000040F67D0BDF80820002316461F46CDE92E
:10918000026714F4807F00F0B48424F4007458382B
:10919000202800F21E8501A353F820F0439002001E
:1091A000D39B0200D39B0200D39B0200D39B0200FF
:1091B000D39B0200D39B0200D39B0200D39B0200EF
:1091C000D39B0200D39B0200D39B02002F9B020083
:1091D000D39B0200D39B0200D39B0200D39B0200CF
:1091E0002F9B0200D39B0200D39B0200D39B020063
:1091F000D39B0200D39B0200FB9A02004390020023
:10920000D39B0200D39B0200D39B0200D39B02009E
:109210002F9B0200D39B0200D39B020043900200CD
:109220009859002060AE0200ECAD0200FCAD0200D7
:1092300009990B1D09930A68002316461F46CDE9BC
:10924000026794E714F0080F9BD09DF808200023D4
:1092500016461F46CDE9026793E72B23059390E757
:1092600044F4005444F48066099B073323F0070359
:1092700003F108020992D3E90045CDE9024516F44D
:10928000807F16D0B8F1000F15D106F44068B8F50C
:10929000406F14BF4FF000084FF001080BE044F49A
:1092A000005444F40066DFE744F4005444F440669C
:1092B000DAE74FF0060845EC104BFFF79BF8002863
:1092C00040F0FB8045EC104BFFF79EF8089000281B
:1092D00040F0108145EC104BFFF7A0F848B146F084
:1092E0006006069405F100430793DDE90634CDE9F5
:1092F0000234DDE9024511A845EC104B01F0E0F91C
:10930000119B03EB4303B34A82FB0312DB17C3EB4E
:10931000A20311930022002320462946FEF73EFFB8
:10932000002800F0F48006F440630593B3F5806FE5
:109330000AD0B3F5406F40F0FD81119B434503DA3D
:1093400013F1040F80F2F6811198B0F59A7F40F086
:10935000FA8053EC192B20462946FEF71BFECDE977
:109360000201DDE902450022002320462946FEF7DE
:1093700015FF002848D145EC104BFFF73BF80028BB
:1093800040F0ED800022944B20462946FEF720FF56
:10939000C0B1119B03F10109CDF8089000228E4B5A
:1093A00020462946FEF7F6FD04460D4609F101095F
:1093B0000022894BFEF70CFF0028EDD1029B119390
:1093C000CDE90245DDE902450022844B20462946CD
:1093D000FEF738FFC0B1119B03F1FF39CDF80890BB
:1093E00000227D4B20462946FEF738FD04460D46F7
:1093F00009F1FF390022794BFEF724FF0028EDD157
:10940000029B1193CDE90245B8F1000F00F05084A2
:10941000059BB3F5406F00F0BF80C8F10000FFF777
:1094200069F851EC100B53EC182BFEF717FDDDE932
:109430000223FEF7EDFB04460D46CDE9024500226E
:10944000654BFEF7C5FE70B1119B013311930022ED
:10945000614B20462946FEF79DFDCDE90201B8F19A
:10946000000F00F03D8406F40863B3F5006F00F0D0
:10947000C58026F40063059308F10509049BA3EB5E
:109480000909CDF8208009F1FF3916F4805F00F05A
:109490001081119C524B83FB0423A3EBE47303EB79
:1094A0004303E31A0233042B00F20181DFE813F0D7
:1094B000DD00F000DA00DD00F0000022002320468D
:1094C0002946FEF7BFFE68B916F4005F454B464AD1
:1094D00008BF134616F0200F08BF0133029326F48D
:1094E00080735FE516F4005F404A414B18BF134696
:1094F0000293F4E716F4005F3E4A3F4B18BF134651
:10950000029326F4807355E5119B01331193119852
:109510000130FEF7EFFF53EC102B20462946FEF7F3
:1095200075FE0028F0D102E0119B013B11931198C8
:10953000FEF7E0FF53EC102B20462946FEF782FE93
:109540000028F1D1EFE64042FEF7D4FF53EC102B98
:1095500020462946FEF782FCCDE9020101E7002200
:10956000002320462946FEF76DFE68B916F4005F19
:109570001C4B1D4A08BF134616F0200F08BF0133CD
:10958000029326F480730DE516F4005F174A184B1A
:1095900018BF13460293F4E708F1FF39C8F1010040
:1095A000FEF7A8FF51EC100B53EC182BFEF756FCFE
:1095B000DDE90223FEF72CFB04460D46CDE902450A
:1095C0000022054BFEF704FE08B1C8463CE7C8463A
:1095D00045E700BF67666666000024400000F03F74
:1095E0005655555578AE020080AE020068AE0200B6
:1095F00070AE020088AE02008CAE0200B8F1100F0F
:10960000A8BF4FF01008DDE902454046FEF772FFA3
:1096100053EC102B20462946FEF720FCFEF754FEA3
:1096200004460D4654EA050300F05A830A2200233B
:1096300000F0B8FF13437FF41CAF08F1FF380A2293
:1096400000232046294600F0ADFF04460D46B8F140
:10965000000F00F045830A22002300F0A3FF13430C
:10966000EBD006E74FF001080DE00022B04BDDE93A
:109670000201FEF7F3FBCDE90201013C119409F16F
:10968000FF394FF00208089B23EAE373089312E0C6
:1096900053EC1A2BDDE90201FEF7E0FBCDE90201F4
:1096A000023C1194A9F102094FF00308EBE7B84618
:1096B000E9E74FF0010816F0600F18BF09F1FF3914
:1096C0001198FEF776FF6328C8BF09F1FF39DDE97D
:1096D000026730463946FEF7F7FD04460D46FEF7B1
:1096E00027FE02460B4630463946FEF7B3FBCDE96E
:1096F000020129EAE977059B13F4047F00F0D78083
:10970000059B13F0200F00F0DF8013F0400F14BF13
:109710002D212B215846FEF717FF059B13F0100F44
:1097200000F0DC80834B08F10056013E03EBC606D7
:109730009846E5E016F4806F31D0119B0E2B30DC9B
:109740000133A8EB03094A46102AA8BF1022089249
:1097500016F0800F25D1434523D017463846FEF733
:10976000C9FE53EC102B20462946FEF777FB53EC3D
:10977000182BFEF74DFA41EC100B01F04DF89FED60
:109780006A1B01F0A1F851EC100B00220023FEF738
:1097900005FD002869D0013FE0D1089701E0CDF830
:1097A000208026F480630593119B089A5042A3F110
:1097B0000F028242C8BFA3F11000FEF79BFE4FF0DC
:1097C000FF3000F0A1FF53EC102B20462946FEF796
:1097D0001FFACDE90201DDE9028911980130FEF797
:1097E00089FE53EC102B40464946FEF7F1FC10B1C0
:1097F000119B01331193119800284EDB102836DCA1
:1098000040464946FEF760FD04460D46FEF790FDD2
:1098100002460B4640464946FEF71CFBCDE90201D5
:1098200000231193002D08BF0A2C3DD3424B4FF06B
:10983000010808F10108F3E902018D4208BF8442E2
:10984000F7D2089A02EB0809119B9944049BA3EBF9
:10985000090906F08003134318BF09F1FF3916F018
:10986000600F18BF09F1FF3943E7089799E7A0F1A6
:1098700010031193C0F11000FEF73CFE53EC102BC7
:1098800040464946FEF7EAFAFEF71EFD04460D463D
:1098900000220023CDE90223C4E700231193002412
:1098A00000254FF00108CCE74FF00108C9E7B9F1F6
:1098B000000F7FF725AF2026013F31465846FEF7BF
:1098C00043FE002FF8D11BE7059B13F0400F3FF438
:1098D00024AF20215846FEF737FE1EE7002F3FF445
:1098E00021AF3026013F31465846FEF72DFE002FAE
:1098F000F8D117E730215846FEF726FEC1451DD0A6
:10990000D6E90023B146083E9D4208BF9442F1D3F8
:1099100030210131C9B2A41A65EB03059D4208BF8D
:109920009442F6D2E7E700BF0000000000002440A8
:109930000000244090AE020098AE0200059B13F494
:10994000006447D1089B002B52D1059B13F0800F78
:1099500040F0A281059B13F4806F2FD013F4005FB9
:1099600014BF452165215846FEF7EEFD119B002BE3
:10997000C0F2A1802B215846FEF7E6FD119963291C
:1099800000F3A1801199C74C84FB0132C917C1EBC8
:10999000A2013031C9B25846FEF7D6FD119B84FBB7
:1099A0000324D917C1EBA40101EB8101A3EB41030F
:1099B00003F13001C9B25846FEF7C6FD002F00F092
:1099C00044812024013F21465846FEF7BDFD002F6B
:1099D000F8D13AE1119B002BB4DD3025013B119306
:1099E00029465846FEF7B0FD119B002BF6DCA9E78F
:1099F0002E215846FEF7A8FD089E102EA8BF10265F
:109A000026EAE676089BA3EB0609002C41D0DDE9A7
:109A100002451198301AFEF76DFD53EC102B2046CD
:109A20002946FEF71BFAFEF74FFC04460D4616B317
:109A300006F10056013E9C4B03EBC606CDF810A084
:109A4000CA46D6E90023B146083E9D4208BF94426B
:109A50002FD330210131C9B2A41A65EB03059D4211
:109A600008BF9442F6D25846FEF76EFDC845E8D1CD
:109A7000D146DDF810A0B9F1000F3FF46BAF3024F0
:109A80004D46013D21465846FEF75EFD002DF8D1BA
:109A900060E7DDE902453046FEF72CFD53EC102B64
:109AA00020462946FEF7DAF9FEF70EFC04460D467D
:109AB000BDE73021D7E72D215846FEF745FD119B24
:109AC0005B4211935AE7794C84FB0132C917C1EB11
:109AD00062113031C9B25846FEF736FD119A84FB47
:109AE0000234D317C3EB6413642101FB13231193D6
:109AF00048E74FF00108FFF74ABBDDE902010246E3
:109B00000B46014308BF002564D00BA8002502F0D6
:109B10000701303100F8011B0135D10841EA4371DA
:109B2000DE080A46334652EA0301F0D152E0DDE98D
:109B3000022316461F46134308BF00254AD00025BE
:109B400004F40043CDF820B0A3461C462FE002F0F9
:109B50000F011EF8011000F8011B0135110941EA3F
:109B600003711E090A46334652EA030132D0002F20
:109B7000EDD002F00F011CF80110ECE712AB03EB83
:109B800005090A2200233046394600F00BFD303229
:109B900009F81C2C01350A2200233046394600F012
:109BA00001FD002F08BF0A2E0FD306460F46002CDA
:109BB000E4D005F00303032BE0D112AB2B444FF0AC
:109BC0002C0203F81C2C0135D8E75C46DDF820B0E8
:109BD00000E00025A8EB050828EAE878049BA3EB41
:109BE0000809A9EB0509059BFF2B0ED9A9F102096C
:109BF000C3F307215846FEF7A7FC9DF814105846FA
:109C0000FEF7A2FC04E00025E4E7059B002B74D1DD
:109C10005A4649462046FEF7BFFC5A464146302088
:109C2000FEF7ACFC6F1E0DD40DF12C083D464544EB
:109C300029785846FEF788FCA84505F1FF35F7D18D
:109C40004FF0FF3714F0100F0BD1564616F8011BDA
:109C500069B125293FF400A85846FEF775FCB246C5
:109C6000F3E75A4649462020FEF788FCEDE7DBF88B
:109C700008303BB1DBF80020DBF804108A423CBF1F
:109C800000219954DBF8000013B0BDEC068BBDE851
:109C9000F08F4FF0FF30F7E72E215846FEF754FCC7
:109CA000089EAFE66766666690AE02001F85EB51C0
:109CB0000020FEF71FFC51EC100B53EC182BFEF7A5
:109CC000CDF8DDE90223FDF7A3FF04460D46CDE9FB
:109CD000024500220A4BFEF77BFA00287FF4B4AB62
:109CE00026F400630593049BA3F1050916F0800395
:109CF0007FF4C9AB0893FFF7C8BB09F1FF397CE7D4
:109D00000000244010B504460B7833B1B0F1FF3F9A
:109D100005D04B68013B4B6001E08B6898472046BB
:109D200010BD2DE9F04707460D46904699464FF085
:109D3000FF3601363846FEF7CCFB0446FEF775FCCD
:109D40000028F6D1B4F1FF3F2FD018F0010834D12C
:109D50002B681A1D2A60D3F800A0B9F1000F26DD88
:109D600035464E440AE001353846FEF7B2FB04465C
:109D7000731B002B0CDDB0F1FF3F09D02046FEF72E
:109D800054FC28B9B8F1000FEDD10AF8014BEAE70D
:109D900039462046FFF7B6FFB8F1000F02D1002385
:109DA0008AF800302846BDE8F0872546FAE73946AC
:109DB0002046FFF7A7FF3546F1E7B9F1000FC8BF0E
:109DC0004FF0000ACCDC39462046FFF79BFF3546B2
:109DD000E8E72DE9F04F83B08046009192461F4698
:109DE000DDF830B04FF0FF352E4601354046FEF726
:109DF00070FB0446FEF719FC0028F5D1B4F1FF3FD3
:109E000056D02AF4C069BBF1000F56DD1AF0800F5E
:109E10000FD02B2C03D02D2C0BD149F48069B51C0D
:109E20004046FEF756FB04460BF1FF3BBBF1000F2B
:109E300043DD302C03D0002F41D10A2742E049F402
:109E4000007301930BF1FF3605F1010A4046FEF75E
:109E500040FB0446002E03DD20F02003582B07D0E2
:109E6000002F08BF08275546B346DDF8049026E0CA
:109E700037F0100304D05546B346DDF8049021E0D6
:109E8000ABF1020605F1020A4046FEF722FB04464A
:109E9000CDF804901027E6E72E464FF0000A27E0A1
:109EA00019F0080F14BFA3F800A0C3F800A03AE00F
:109EB000264638E06FF0010635E0C7BB0A27BBF144
:109EC000000FE9DD2E464FF0000A5D44394620467A
:109ED000FEF78DFB00280BDB49F400790AFB070A2B
:109EE00001364046FEF7F5FA0446AB1B002BEDDCCD
:109EF00041462046FFF706FF19F4007FDAD019F03B
:109F0000010F10D100990B681A1D0A601B6809F433
:109F10009062B2F5906F08BFCAF1000A19F0100FF5
:109F2000BED083F800A0304603B0BDE8F08F2E46C7
:109F30004FF0000ADCE700002DE9F04F2DED028B19
:109F400085B08346039116469A464FF0FF352F465B
:109F500001355846FEF7BDFA0446FEF766FB81461A
:109F60000028F4D1B4F1FF3F00F0BF8026F4E06692
:109F7000BAF1000F40F3EE802B2C03D02D2C13D11F
:109F800046F48066BD1C5846FEF7A3FA04460AF163
:109F9000FF3ABAF1000F40F3DD802B469FED867B40
:109FA0008DED007B9A44C6E02B46F7E72046FEF78E
:109FB00019FBE8B146F400780AF1FF335F1B002279
:109FC0007F4BDDE90001FDF749FFCDE90001A4F178
:109FD0003000FEF799F9DDE90023FDF719FECDE920
:109FE000000116F4807F01D146469CE0464698E089
:109FF0008246B8F1000F06DD24F02003452B02D184
:10A0000016F4007F13D159462046FFF77BFEB9F1C5
:10A01000000F00F0A7804846FEF76CFA53EC102BB7
:10A02000DDE90001FDF71AFFCDE900019AE026F411
:10A0300020665846FEF74DFA04462B2807D02D28F7
:10A0400003D008F1FF38013508E046F40066023518
:10A050005846FEF73EFA0446A8F10208B8F1000F90
:10A060001ADD05EB080742F210782046FEF7BAFA2F
:10A0700090B146F40076BAF57A7FDDBF0AEB8A0A22
:10A08000303C04EB4A0AC24601355846FEF721FA35
:10A090000446BD42E9D13D4616F4006F14BFA9EB5A
:10A0A0000A09D144AFE7FEF7CFFA464B1B680360BD
:10A0B0005EE0DDE90001FEF769F908EE100A00EE46
:10A0C000100AFEF78DF950B916F0010F6CD1039903
:10A0D0000B681A1D0A601B6883ED008A64E0FEF7B6
:10A0E000B3FA384B1B680360EEE725465CE06FF07F
:10A0F000010559E02E20FEF775FA002883D046F4BA
:10A1000000760AF1FF33DF1B00222D4BDDE9000151
:10A11000FDF7A4FE00224FF08043FDF79BFECDE942
:10A12000000109F1FF3901355846FEF7D2F904461E
:10A13000002F7FF768AF2F46AAEB05082E2C7FF47F
:10A1400035AF16F4807FD5D146F480760AF1FF331F
:10A150005F1BE8E759462046FFF7D4FD9FED167BCD
:10A160008DED007B9DED000BFEF744F900289AD1A0
:10A1700016F4806F06D0DDE90001024601F10043CC
:10A18000CDE9002316F4007FB1D016F0040F90D073
:10A1900016F0010F08D103990B681A1D0A601B689D
:10A1A0009DED007B83ED007B284605B0BDEC028B66
:10A1B000BDE8F08FAFF30080000000000000000059
:10A1C0000000244010AE02002DE9F04F85B081461A
:10A1D0000C4603924FF0000AD346274617F8015B5E
:10A1E0008DB1252D32D02846FEF71FFA78B94846A2
:10A1F000FEF76FF9044685421FD04946FFF782FDFE
:10A20000B4F1FF3F1DD0584605B0BDE8F08F3C4685
:10A2100017F8010BFEF709FA0028F8D14846FEF7B7
:10A2200058F90546FEF701FA10B10AF1010AF5E7FF
:10A2300049462846FFF766FDCFE70AF1010A3C468A
:10A24000CBE7BBF1000F08BFA346DCE763782A2BFE
:10A2500006BFA71C4FF001084FF00008002607E0DA
:10A2600006EB8606303D05EB460648F020082746FB
:10A270003C4614F8015B2846FEF7B4F9029000282A
:10A28000EED118F0200F08BF6FF000466C2D0CD0F7
:10A290004C2D00F0BD80682D0BD12578682D00F085
:10A2A000BC80BC1C48F0080803E0257848F004088E
:10A2B000BC1C253D532DA6D801A353F825F000BFA3
:10A2C00025A4020007A2020007A2020007A20200C2
:10A2D00007A2020007A2020007A2020007A20200D2
:10A2E00007A2020007A2020007A2020007A20200C2
:10A2F00007A2020007A2020007A2020007A20200B2
:10A3000007A2020007A2020007A2020007A20200A1
:10A3100007A2020007A2020007A2020007A2020091
:10A3200007A2020007A2020007A2020007A2020081
:10A3300007A2020007A2020007A2020007A2020071
:10A34000DBA4020007A20200DBA4020007A20200B5
:10A3500007A2020007A2020007A2020007A2020051
:10A3600007A2020007A2020007A2020007A2020041
:10A3700007A2020007A2020007A2020007A2020031
:10A3800007A2020007A2020007A202006BA50200BA
:10A3900007A2020007A2020007A2020007A2020011
:10A3A00007A2020007A2020007A2020007A2020001
:10A3B00007A2020007A202004FA40200B9A40200F3
:10A3C000DBA40200DBA40200DBA4020007A202005F
:10A3D000E9A4020007A2020007A2020007A20200ED
:10A3E00007A20200FBA4020027A5020039A5020073
:10A3F00007A2020007A202004BA5020007A202006A
:10A4000059A5020007A2020007A202006BA50200E4
:10A41000257848F04408BC1C4BE748F010086578E4
:10A42000023446E74846FEF754F8054625280BD087
:10A430004946FFF767FCB5F1FF3F7FF4E4AEBBF19F
:10A44000000F08BFAB46DEE60AF1010AC5E618F0C8
:10A45000200F00F09C8018F001080CD1039B1A1DFE
:10A4600003921D68002E3FF4CEAE002E1DDD564433
:10A470000CE00126F2E7CDF808800025F2E7BBF1F9
:10A48000000F08BF8346BEE6B2450DD00AF1010AAF
:10A490004846FEF71EF8B0F1FF3FF0D0029B002BBC
:10A4A000F2D105F8010BEFE7B246029B002B7FF4D7
:10A4B00094AE0BF1010B90E600960A2348F080025F
:10A4C00003A94846FFF785FC002857DB18F0010F69
:10A4D00008BF0BF1010B82447FE63346424603A9D5
:10A4E0004846FFF729FDEFE70096002348F0800279
:10A4F00003A94846FFF76DFCE6E718F0010F7FF46B
:10A500006CAE039B1A1D03921B6818F0100F02D04B
:10A5100083F800A061E618F0080F14BFA3F800A0AC
:10A52000C3F800A059E60096082348F0800203A96A
:10A530004846FFF74EFCC7E70096102328F01E029E
:10A5400003A94846FFF745FCBEE73346424603A948
:10A550004846FFF7E6FBB7E700960A2348F080027B
:10A5600003A94846FFF735FCAEE70096102348F0F4
:10A57000800203A94846FFF72CFCA5E7B0F1FF3F96
:10A580007FF441AEBBF1000F08BF83463BE618F0F5
:10A5900001063FF46EAF0296002568E770477047EA
:10A5A0007047704753EA020C61D02DE9F04BB3FAC3
:10A5B00083F51E0007BFB2FA82F502FA05F403FA2A
:10A5C00005F41646C5F120051EBF22FA05F73C43E7
:10A5D000203556EA044C4FEA144418BF0134A34610
:10A5E0004FF00009C846904271EB030C39D3094281
:10A5F00007BFB0FA80F700FA07F6B1FA81F701FA5F
:10A6000007F6C7F120071EBF20FA07FC46EA0C0632
:10A610002037B6FBFBFC7F1B103F07F01F04C4F183
:10A6200020060CFA04F42CFA06F644BF3446002641
:10A63000202FA4BF2646002454EA060C08BF01249C
:10A6400018EB040849EB0609A4FB027CC01B06FBBF
:10A6500002CC04FB03CC71EB0C01904271EB030CB8
:10A66000C5D20B46024649464046BDE8F08BB2FBD8
:10A67000F3F210B504460146172000F009F800284F
:10A680000CBF20464FF0FF3010BD704770470000F0
:10A6900038B504460D46FFF7F8FF074B1D6044F040
:10A6A0008004064B1C601A461368002BFCD1FFF790
:10A6B000EDFF014B186838BDA05900209C590020BF
:10A6C00070B555EC104B0646002210EE100A002320
:10A6D0002946FDF763FD20B1002345EC104B3360A4
:10A6E00070BD25F0FF4121F4E00141F07F53C5F337
:10A6F0000A51224643F40013A1F2FE3143EC102B21
:10A70000316070BD000000002DE9704355EC104B26
:10A710000646002210EE100A00232946FDF73EFDF2
:10A72000B8B9C5F30A53334440F2FE72934214DCC5
:10A73000002EA04601DB002B0FDB002B09DD25F0EE
:10A74000FF4222F4E00242EA035949EC108BBDE8D3
:10A7500070839FED070BBDE87083FDF775FF084B15
:10A760001B6803609FED040BBDE87083AFF30080AE
:10A770000000000000000000000000000000F07F6A
:10A7800010AE02002DE9F04155EC104B00260027D9
:10A790008046324610EE100A3B462946FDF7FEFC85
:10A7A00030BBC5F30A53A3F2FF310029A64625DBCF
:10A7B000332929DC174EC1F120024FF0FF3006FA91
:10A7C00002F2C840A3F21F4326FA03F310431843D2
:10A7D00026FA01F124EA000225EA0103C8E9002370
:10A7E00020462946FDF736FB41EC100BBDE8F08111
:10A7F000C8E9006747EC106BBDE8F081C8E9006765
:10A8000045EC104BBDE8F081C8E9004547EC106B02
:10A81000BDE8F081FFFF0F00F8B555EC104B10EECE
:10A82000100A002200232946FDF7B8FC88BBC5F3B7
:10A830000A51A1F2FF30002822462B4622DB3328A2
:10A8400027DC1F4DC0F120064FF0FF3405FA06F655
:10A85000C440A1F21F4125FA01F134430C43C54025
:10A8600002EA040603EA050723EA050156EA07039C
:10A8700022EA040003D0002871F100030FDB41EC51
:10A88000100BF8BD002C73F1000305DB9FED080BE6
:10A89000F8BD45EC104BF8BD9FED070BF8BD094B1B
:10A8A0000022FDF7D7FA41EC100BF8BDAFF30080A2
:10A8B0000000000000000000000000000000F0BFE9
:10A8C000FFFF0F000000F03FF0B52DED028BB0EE62
:10A8D000408AF0EE608A55EC114B85B011EE100AFB
:10A8E000294600220023FDF759FC00287ED1B0EE56
:10A8F000480AF0EE680AFDF787FD38B1B0EE480A65
:10A90000F0EE680A05B0BDEC028BF0BD45EC104BD3
:10A91000FDF77AFD002874D151EC180B00220023BA
:10A92000FDF73CFC0028E9D1B0EE480AF0EE680AD9
:10A93000FDF760FD00286AD145EC104BFDF75AFD8C
:10A940000028DBD145EC104BFDF76EFD55EC104BAC
:10A9500010EE102A2B4651EC180BFDF71BFB41ECB7
:10A96000100B02A8FFF70EFFDDE90223204629465F
:10A97000FDF774FA02460B4651EC180BFDF76AFA24
:10A9800006460F4647EC106B51EC180B00220023D3
:10A990008DED000BFDF73AFC9DED000B002839D042
:10A9A00053EC102B20462946FDF7DAFB9DED000BFA
:10A9B00038B151EC100B22462B46FDF74BFA41EC17
:10A9C000100B51EC100B002200238DED000BFDF756
:10A9D00039FC9DED000B002894D051EC100B224661
:10A9E0002B46FDF715F941EC100B8BE7FDF72CFE1C
:10A9F0001F4B9FED1D0B1B68036005B0BDEC028B68
:10AA0000F0BD45EC104B05B0BDEC028BF0BD9FEDE9
:10AA1000160B77E751EC100B224605F100438DED44
:10AA2000000BFDF79DFB9DED000B38B151EC100BB9
:10AA300022462B46FDF7ECF841EC100B51EC100BC5
:10AA4000002200238DED000BFDF7E0FB9DED000BD8
:10AA500000283FF457AF51EC100B22462B46FDF770
:10AA6000F9F941EC100B4DE7000000000000F87F01
:04AA70000CAE020026
:08AA7400D57B02000000000088
:10AA7C002222007525303478006E756C6C0066618E
:10AA8C006C736500747275650025312E3135670065
:10AA9C00256C670025312E31376700EFBBBF0054A2
:10AAAC0061736B7300665F74656D700066756E63C1
:10AABC0074696F6E4E616D6500656E657267794382
:10AACC006F6E73756D7074696F6E0076616C756501
:10AADC00006D4100756E6974006578656375746905
:10AAEC006F6E54696D65006D696C6C697365636F2D
:10AAFC006E6473007072696F72697479006F75742B
:10AB0C007075740074656D70657261747572650032
:10AB1C006E616D6500666C6F617400747970654F61
:10AB2C00757470757400665F73746F726500696E0E
:10AB3C00707574730074797065496E7075740074F7
:10AB4C00656D705F73697A6500696E7465676572AF
:10AB5C0000665F636F6D70757465006176675F7416
:10AB6C00656D7000665F7472616E736D6974004917
:10AB7C00742773207472616E736D697420706172C6
:10AB8C0074210A0025730A0074AA02007CAA020030
:10AB9C000800000074AA020074AA02000800000059
:10ABAC0043000000504F5349580000002020202043
:10ABBC002020202020682828282820202020202021
:10ABCC002020202020202020202020204810101081
:10ABDC001010101010101010101010108484848499
:10ABEC00848484848484101010101010108181814E
:10ABFC0081818101010101010101010101010101B9
:10AC0C00010101010101011010101010108282824B
:10AC1C008282820202020202020202020202020288
:10AC2C000202020202020210101010200007032080
:10AC3C00041702010857104080000000ACAB020062
:10AC4C00B0AC0200C4AD020053756E004D6F6E00C7
:10AC5C005475650057656400546875004672690048
:10AC6C0053617400000000004A616E00466562008A
:10AC7C004D617200417072004D6179004A756E0031
:10AC8C004A756C0041756700536570004F63740022
:10AC9C004E6F76004465630000000000414D00508B
:10ACAC004D000000E8AD0200E4AD0200E4AD02008E
:10ACBC00E4AD0200E4AD0200E4AD0200E4AD02003C
:10ACCC00E4AD0200E4AD0200E4AD0200FFFFFFFFC3
:10ACDC00FFFFFFFFFFFFFFFFFFFF000024AD02009F
:10ACEC0054AC020060AD020074AC0200A8AC0200CF
:10ACFC0008AD0200B8AD020014AD0200256D2F2581
:10AD0C00642F25790000000025612025622025652F
:10AD1C00202554202559000053756E646179004D2F
:10AD2C006F6E646179005475657364617900576561
:10AD3C00646E6573646179005468757273646179CB
:10AD4C00004672696461790053617475726461794B
:10AD5C00000000004A616E7561727900466562728E
:10AD6C0075617279004D6172636800417072696C33
:10AD7C00004D6179004A756E65004A756C79004129
:10AD8C0075677573740053657074656D62657200D8
:10AD9C004F63746F626572004E6F76656D6265729B
:10ADAC0000446563656D62657200000025483A25B4
:10ADBC004D3A2553000000003984020055840200EE
:10ADCC00618402006D840200898402009584020073
:10ADDC00A1840200AF840200000000002E000000DD
:10ADEC0030313233343536373839616263646566F5
:10ADFC0030313233343536373839414243444546A5
:10AE0C0021000000220000000000000000000000F3
:10AE1C000000244000000000000059400000000029
:10AE2C000088C3400000000084D797410080E037C1
:10AE3C0079C34143176E05B5B5B89346F5F93FE9AB
:10AE4C00034F384D321D30F94877825A3CBF737F1F
:10AE5C00DD4F1575286E756C6C2900002D494E461A
:10AE6C00000000002D696E66000000002B494E4664
:10AE7C00000000002B696E66000000004E414E0081
:10AE8C006E616E0001000000000000000A0000006E
:10AE9C00000000006400000000000000E803000057
:10AEAC00000000001027000000000000A086010038
:10AEBC000000000040420F00000000008096980047
:10AECC000000000000E1F5050000000000CA9A3BFC
:10AEDC000000000000E40B540200000000E876487B
:10AEEC00170000000010A5D4E800000000A0724E6E
:10AEFC001809000000407A10F35A00000080C6A424
:10AF0C007E8D03000000C16FF286230000008A5D75
:10AF1C0078456301000064A7B3B6E00D0000E88932
:04AF2C000423C78AA9
:10AF30005D860200ED860200998702000090D00332
:10AF400048AC020048AC020048AC020048AC020029
:08AF500048AC0200A8590020E2
:040000032000637501
:00000001FF
