:1000000000000120750300005D0300005F03000095
:1000100061030000630300006503000000000000AE
:100020000000000000000000000000006703000066
:1000300069030000000000006B0300006D03000076
:100040006F0300006F030000311600006F03000013
:100050006F0300006F0300006F030000A51600008F
:100060001D1A00006F0300006F0300006F03000003
:100070006F0300006F0300006F0300006F030000B8
:100080006F0300006F0300006F0300006F030000A8
:100090006F0300006F0300006F0300006F03000098
:1000A0006F0300006F0300006F0300006F03000088
:1000B0006F0300006F03000000000000000000005C
:1000C0006F0300006F0300006F0300006F03000068
:1000D0006F0300006F0300006F03000000000000CA
:1000E0000000000000000000000000000000000010
:1000F0000000000000000000000000000000000000
:1001000000000000000000000000000000000000EF
:1001100000000000000000000000000000000000DF
:1001200000000000000000000000000000000000CF
:1001300000000000000000000000000000000000BF
:1001400000000000000000000000000000000000AF
:10015000000000000000000000000000000000009F
:10016000000000000000000000000000000000008F
:10017000000000000000000000000000000000007F
:10018000000000000000000000000000000000006F
:10019000000000000000000000000000000000005F
:1001A000000000000000000000000000000000004F
:1001B000000000000000000000000000000000003F
:1001C000000000000000000000000000000000002F
:1001D000000000000000000000000000000000001F
:1001E000000000000000000000000000000000000F
:1001F00000000000000000000000000000000000FF
:10020000354936480A1A02D0072291438D463449AF
:1002100034480A1A06D00722914381F30988022242
:1002200082F3148830483149314A00F044F83148AB
:100230003149324A00F03FF831483249324A00F041
:100240003AF832483249334A00F035F832483349F7
:10025000334A00F030F833483349344A00F02BF881
:1002600033483449344A00F026F8344834490022EF
:1002700000F02CF833483449002200F027F83348C6
:100280003349091A082902DB002202604160314A21
:1002900090471F481F49884205D00268043003B4C4
:1002A000904703BCF7E700208646EC46002000217B
:1002B000294A9047FEE7884207D0521A05D00378B2
:1002C00001300B700131013AF9D17047884202D0F8
:1002D00002700130FAE770470000012000E00020C2
:1002E0000000012000000120843B000000000020ED
:1002F0003C000020D0030000D00300009036000036
:10030000843B0000000000200000002004370000B3
:1003100004370000043700000437000004370000F1
:10032000043700000437000004370000833B00005E
:10033000C03B00003C0000203C0000203C000020AE
:100340007C0900207C0900207C0900207C09002019
:100350007C2900209D030000A1230000FEE7FEE7AA
:10036000FEE7FEE7FEE7FEE7FEE7FEE7FEE7FEE765
:1003700000F002B8FFF7FCBF0F484FF007018843B9
:1003800085460E4880470E48016841F470010160BF
:10039000BFF34F8FBFF36F8FFFF732BF09480A4992
:1003A0000A4A884207D0521A05D0037801300B70F0
:1003B0000131013AF9D170470000012041270000C6
:1003C00088ED00E00437000000000020000000205D
:1003D0007047000007B5044B0093044A402300F027
:1003E00032F803B05DF804FBF10300003D0000208B
:1003F0002DE9F84388461446B2B10F4B0F4E032542
:10040000002743F00109224608EB0701002002F013
:10041000EFF80744241A48B933782BB14FF47A40E7
:10042000C847013D02D13570BDE8F8830123337020
:10043000002CE8D1F8E700BF103700003C00002096
:10044000704702F023B9F0B595B01D461646084630
:100450000C4601F04BF81A9B0D93CDE90865002579
:100460002B46082205A920460A958DF82C500C959C
:1004700001F059F8079B0293069B03939DF81430F3
:100480008DF8115003F00302012A1DD1BDF814208C
:10049000059DC3F3C203C2F383168DF81030B2007A
:1004A00008230EA9204601F03EF8C5F3952508ABB8
:1004B0000093324602AB0EA9284600F0C7FB204647
:1004C00001F018F815B0F0BD022AF8D1BDF81650A9
:1004D000C3F3C203C5F389158DF810300827082D22
:1004E0002E4628BF08263B4632460EA9204601F07C
:1004F0001AF8AD1B08AB02AA31460EA8374400F02B
:1005000009FC002DEBD1DAE7014B01221A7070478C
:10051000BE0000207047000070B5124D06460FCD9A
:1005200088B06C460FC495E80F00002E84E80F00D9
:100530004FF0FF334FF00602CDE90023CDE902333F
:10054000094A0A484FF0EB7308BF00226946069338
:1005500001F030F808B100F086FC054B1E7008B0C1
:1005600070BD00BF24370000090500000000002016
:100570007D00002007B5044B0093044A4023FFF799
:1005800062FF03B05DF804FB910500007E000020CF
:1005900038B50D4B0D4D002018700D4804782D5DB9
:1005A000D2B21C4665B1043001F084FE08B100F0FF
:1005B0005AFC084B1A7812B12378002BFBD038BDB7
:1005C0000C3001F04FFCF1E7BE000020580600207F
:1005D000000000207D00002008B50848084A037884
:1005E000D35C3BB1043001F0EFFDBDE808400020D2
:1005F000FFF792BF0C3001F0D3FBF6E700000020BC
:10060000580600200120FFF787BF000038B50A4DCB
:10061000FFF717FF0421284600F080FA074B01245A
:100620005C71FFF7EFFF042105F1100000F076FA8E
:10063000034B5C7138BD00BFD036000014000020B1
:100640001C000020037813F0040216D003F003030B
:10065000012B03D0022B09D0012070470A680088C3
:100660000232C0F3831002440A60F5E70B68428847
:10067000023303EB92130B60EEE710467047000065
:100680002DE9F04F044685B0861C00200F46154624
:1006900000F040FC454801683960D0E9013213445C
:1006A00001335B1A824600F21C4700F5836900F2B1
:1006B0001448B3421BD30020002D72D004F00F0366
:1006C0009B0143F0050363F30F00DAF80020DAF82A
:1006D00008301340033316444AF823000020CAF8B8
:1006E000006000F019FC012005B0BDE8F08F012189
:1006F000384600F036FC484600F04BFC404600F01F
:1007000048FCDAF80400DAF808B0009000EA0B00C0
:1007100003300AEB80006946FFF794FF009B50BB53
:100720000BEA03020AEB820203F1020CD268019287
:10073000013303EA0B0B0AEB8B0B02F00302012AD5
:10074000DBF80C10CDF800C023D0022A16D0834667
:10075000404600F021FC10B1009BCAF80430594615
:10076000384600F0FEFBDAE901231344DAF80020F2
:1007700001339B1A9DE70BEA0300C9E7BDF8063079
:10078000C3F3891303334FEA114B0CEB930300932C
:10079000DEE7BDF80430C3F383134FEA114B634423
:1007A000F5E7A40544F006008FE700BF90010020A4
:1007B0000B4B0C48FF2210B59A600022C3F8182496
:1007C000C3E90022C3F8142483F8202400F047FE74
:1007D000044610B9044800F0B0FE204610BD00BF2A
:1007E00090010020F03600008837000030B50A4C38
:1007F00071B10A4A0A49121BD20800239A4201D158
:10080000002030BD31F82350854202D00133F5E796
:10081000034654F83300F4E790360000D036000069
:1008200000000020094B013903EBC000032909D85F
:10083000DFE801F00A0204060420704700797047DF
:1008400040797047002070470220704790360000C2
:10085000034BD3E90030C31A58425841704700BFD8
:10086000900100202DE9F04385B0FFF7F1FF064627
:10087000002840F0F5807B4DC5F81804BFF34F8F7A
:100880006B68AC6800932340033305EB8300694633
:10089000FFF7D8FE009B18B1D5F81824002A5FD0C6
:1008A00004EA0302991C013305EB8202234005EBA5
:1008B0008303D268DB68029302F00303022B0192E8
:1008C000009160D1BDF806306748C3F38917502FF7
:1008D000B84628BF4FF0500868F38F1308F108019D
:1008E000ADF8063000F0D3FD0646002800F0A380E6
:1008F00000F0FCFD0023082201A9304600F009FEAB
:10090000009924EA01020132B8EB820F4FEA820318
:1009100032D95FFA88F85BB32140DCB2A8EB040857
:1009200003315FFA88F9A046504C05EB810108239A
:100930004246304600F0EDFD34B108F108034A4666
:100940002146304600F0E5FD009B033703EB970797
:100950000097D5F81834002B49D1D5F8104459E048
:100960002A689A428FD86A60304605B0BDE8F083A5
:100970003E491C469946DAE70C40E11C08234246F2
:1009800005EB8101DDE7012B55D1BDF80430364878
:10099000C3F38311062928BF062161F389130231AD
:1009A0008900ADF8043000F072FD0646002842D000
:1009B00000F09CFD0023082201A9304600F0A9FDAB
:1009C0000027BDF80420C2F38312BB00974203F155
:1009D0000803BED200994A1C21400331009205EB66
:1009E00081010422304600F094FD0137E9E73046EA
:1009F00000F080FDFFF72CFF80F00100C6B2B3E7E6
:100A0000E3685B7923B1236831461B682046984729
:100A1000E3681C68002CF3D1304600F06BFD2046E3
:100A200000F078FAD5F818340BB9009B6B60002001
:100A300000F072FADEE7D5F8104454B90C4B0D48BB
:100A40000D49C01AC008000440F0020000F062F82E
:100A5000D0E7236820469B689847E3681C68ECE76A
:100A6000002681E790010020F03600009C01002064
:100A700090360000C0360000713700002DE9F74FB6
:100A8000224D04460F46924601A901221846D5F888
:100A900008909B46FFF7F4FD20B3019E4FF000083D
:100AA000B21CD84508EB020126D11948002100F0FC
:100AB00035FA80F31000000440EA1440E400731C8F
:100AC00004F0380403EA090306EA090644F00104C5
:100AD00005EB8303033644EA881444EA8724D8608C
:100AE00045F8264095F820341BB1FFF7BBFE0028DF
:100AF000FBD103B0BDE8F08F09EA010105EB8101EC
:100B00005AF82830CB6008F10108CAE790010020AC
:100B1000AC05002000231A46FFF7B0BF30B50F49DF
:100B2000D1F8102403460020144634B9DC68207143
:100B30004AB9C1F81034226030BDE4682579854295
:100B400006D02468F1E7D268116821601360F3E7EA
:100B500001300A28E8D14FF0FF30EDE79001002086
:100B6000094A38B50123D2F8104482F820341D46D2
:100B700004B938BDE3685D71236820465B68984717
:100B8000E3681C68F4E700BF9001002007B5034646
:100B90000846197A052911D05B7A2BB1094A0A490E
:100BA000019000F053FA01980849019000F04EFAC4
:100BB000019803B05DF804EB00F03DBA002AF8D0CC
:100BC000F2E700BF9437000099370000EC380000CE
:100BD00030B5C38885B004460D4633B1144A00923F
:100BE0001449154A284600F031FA217A05291DD00A
:100BF000637A4BB1A088FFF715FE104B104953F8EC
:100C00002020284600F022FA227A0E4BA08853F8C2
:100C1000222003920021FFF7E9FD039A0A490346C7
:100C2000284605B0BDE8304000F010BA05B030BD30
:100C300094370000A43700009C37000020380000E3
:100C40009937000044380000BC3700002DE9F0431C
:100C500085B01F460C9D002395F80C902B7306461B
:100C60000C46904629463846FFF7B2FFB8F1060F0A
:100C700009D8DFE808F00412181F28334000314675
:100C8000284600F0E3F9002229463846FFF77EFFA8
:100C900085F80C9005B0BDE8F083226831462846FF
:100CA00000F0D4F9EFE7D4E900233146284600F0FC
:100CB000CDF9E8E7A36800933146D4E9002328463C
:100CC00000F0C4F9DFE7E3680193A36800933146BD
:100CD000D4E90023284600F0B9F9D4E72369029348
:100CE000E3680193A36800933146D4E900232846C2
:100CF00000F0ACF9C7E76369039323690293E368E3
:100D00000193A36800933146D4E90023284600F0FC
:100D10009DF9B8E708292DE9F74F80460E4617469A
:100D20001C463CD8002593F80C901D7319461046BC
:100D3000FFF74EFFDFF888A0DFF888B0AE4231D968
:100D400018F805205946204600F080F90135082D95
:100D5000F4D11949194DDFF870A0204600F076F95A
:100D60004FF0000B5E4522D918F80B207E2A05D8DB
:100D70001046019202F0D2F8019A00B92E22514693
:100D8000204600F063F90BF1010BBBF1080FE9D12C
:100D9000012221463846FFF7F9FE84F80C9003B093
:100DA000BDE8F08F5146204600F050F9CEE72946C5
:100DB000204600F04BF9E6E7D0370000CE370000C0
:100DC000CC370000C6370000D2370000044B1A5C55
:100DD000012393404FF0A042C2F80835704700BF8E
:100DE0005838000008B50020FFF7F0FF0120FFF79A
:100DF000EDFF0220FFF7EAFFBDE808400320FFF700
:100E0000E5BF0000074A4FF0A041105CD1F804355F
:100E10000122824022EA03001340C1F80805C1F80C
:100E20000C35704758380000C20708B501460CD58C
:100E30004FF0A0430322C3F84427C3F84827C3F860
:100E40004C27C3F85027FFF7CDFF8B070AD54FF08B
:100E5000A0430C22C3F83427C3F83827C3F83C2733
:100E6000C3F8402708BD1FB50021039001AA44F232
:100E70000100CDE9011100F003F805B05DF804FBB5
:100E800010B572B6FFF76CFEFFF7ECFC0028FBD143
:100E9000104B114C1149E41AE408240444F00100F9
:100EA000FFF738FE0E4B1B68DB0700D500BE0D496F
:100EB00044F00200FFF72EFEBFF34F8F0A490B4BA1
:100EC000CA6802F4E0621343CB60BFF34F8F00BFE8
:100ED000FDE700BF90360000C03600005C3800001F
:100EE000F0ED00E06838000000ED00E00400FA05D5
:100EF00072B6024A13680133136070474C06002033
:100F0000034A1368013B136003B962B6704700BF20
:100F10004C060020FFF7ECBFFFF7F2BF10B5034609
:100F200053E8000F0A4643E8002494F0000FF7D17D
:100F300010BD10B5034653E8002F42EA010043E814
:100F4000000494F0000FF6D110BD10B5034653E82D
:100F5000000F00EA010243E8002494F0000FF6D1EC
:100F600010BD10B5034653E8002F02EB010043E823
:100F7000000494F0000FF6D110BD10B5034653E8FD
:100F8000002FA2EB010043E8000494F0000FF6D11B
:100F900010BD0121FFF7CDBF0021FFF7D6BF10B56F
:100FA00090B1D0E9012301689B1ADBB20A60013BD2
:100FB000DBB2FF2B026802D10020107110BD116856
:100FC0004C1C14600B70F2E70E20F7E738B50446AE
:100FD0000020FFF79FFF226863681168994213D9C8
:100FE000481E106011F8015CE368218A01FB053599
:100FF000A36811791B1ADBB2994200D21371002049
:10100000FFF78AFF284638BD0025F8E738B50546C2
:1010100000200C46FFF77EFF2A681368591C1160F8
:10102000E968641A298AB4FBF1F41C70BDE8384001
:101030000020FFF771BF826810B504462AB14369EA
:101040000168006998470023A36010BD0EB403B582
:10105000039921B104AB01AA019300F06FF802B02B
:101060005DF804EB03B07047826830B40468551C27
:101070008560A154D0E901329A4202D330BCFFF717
:10108000DABF30BC704700002DE9F84F9846DDE923
:101090000A43154682460F460A464FF00109AA4206
:1010A0000FD2C14538BFC14613F0010B01D16CB955
:1010B00000240126B8F1010F1BD908F1FF386E4357
:1010C000F8E709F10109B2FBF5F2E8E79B070ED555
:1010D000B8F1000F0CBF30262026A145E9D2013C13
:1010E00031465046FFF7C0FF002CF6D1E0E720263E
:1010F000F3E7B7FBF6F39D42E1D9DFF83C80B7FB9D
:10110000F6F3504618F8031006FB1377FFF7ACFF11
:101110003346AB42B6FBF5F6F1D2BBF1000F02D07D
:101120000CB1A14501D3BDE8F88F20215046013C08
:10113000FFF79AFFF4E700BF753800002DE9F74F7D
:10114000054617468846002900F0428118F8011B21
:1011500049B92B7B002B00F03B81284603B0BDE84A
:10116000F04FFFF768BF252940F0B780002698F8B8
:1011700000302D2B424608F1010823D0302B24D01B
:101180002B2B25D000242A2B02F1010123D13B680F
:101190001A1D1B683A601C440A4613782E2B26D170
:1011A00001324FF0000A104610F8011BA1F1300C7B
:1011B000BCF1090F1DD80A2303FB0A13A3F1300A5F
:1011C0000246F0E746F00106D1E746F00206CEE718
:1011D00046F00406CBE711F8013CA3F130000928E2
:1011E000DBD80A2202FB0434303C0A46CBE74FF03E
:1011F000000A12F8011B01F0FB0068289046F8D0A5
:10120000782909D86F290CD8632962D022D82529DA
:1012100063D0582900F0888098F80030002B95D1D1
:1012200097E770390829F7D801A353F821F000BFD8
:10123000AB1300001912000019120000391300004E
:1012400019120000171300001912000019120000F3
:1012500029130000642901D06929DDD13A68D2F848
:101260000090111D89EAE9723960A2EBE9724FF032
:10127000010B092A35DCD34538BFD3462CB1B9F16F
:10128000000F01DB720700D5013CB30702D5BAF1AC
:10129000000F03D0F00701D44CBB0024B9F1000FBC
:1012A0002DDAC9F100092D212846FFF7DDFE06F0F1
:1012B0000302022A04D1BAF1000F01D11CBB0024A1
:1012C000CDE9004653460A2249462846FFF7DCFE90
:1012D000A2E73B681A1D19783A602846FFF7C4FE5A
:1012E0009AE70A230BF1010BB2FBF3F2C1E7A34526
:1012F000D4D220212846013CFFF7B6FECCE7710787
:10130000D5D52B21D0E7A345DAD230212846013CA0
:10131000FFF7AAFED2E73968CDE900460A1D3A6018
:1013200053460A220968D0E739680A1D3A60CDE9B8
:10133000004653461022F5E73B681A1D3A6016F046
:101340000106D3F8009028D1B9F1000F03D0484628
:1013500001F053FE0646B44200D904BB09F1FF393F
:1013600019F8011F00293FF457AF2846FFF77CFE0C
:10137000F6E728460136FFF777FE19F80610002930
:10138000F7D1A642BFF448AF002C3FF445AF20216F
:101390002846013CFFF768FEF3E70026EDE7202131
:1013A0002846013CFFF760FED5E73B681A1D3A600E
:1013B000302128461C68FFF757FE78212846FFF7A2
:1013C00053FE00220823CDE90032214610227CE79B
:1013D00003B0BDE8F08F00BF2DE9F84FB0F806A0CC
:1013E0004579D2F800B09DF828900AFB05F5043D38
:1013F00088460BEB0301A94203F1040488BFA5EB67
:10140000030BB4FBFAF607460AFB1644C2F800B019
:101410004EB9AAEB04055D4528BF5D46BBF1000F40
:1014200004D1BDE8F88F3F68013EF1E7043408EBD2
:1014300006003C442A46B9F1000F0DD02146ABEB23
:10144000050B01F08FFDDA452E443F6855464FF0FD
:10145000000428BF5D46E1E701462046EFE7FFF7BD
:101460009EBDF8B546790146721E0546002393429B
:101470002D6803D30024A64202D8F8BD0133F6E755
:101480000F682846FFF7C2FD01343946F3E72DE91E
:10149000F843068ACD1C0746FFF798FD043E354405
:1014A0000446B5FBF6F5F0B14FF48073EDB28380DE
:1014B000C680013D076081464FF00008A84512D262
:1014C0003846FFF783FD064648B1637901336371FF
:1014D00008F10108C9F8000007608146EEE72046E0
:1014E000FFF7BFFF34462046BDE8F88301210430F2
:1014F000FFF737BD10B5012104460430FFF73DFD6D
:1015000010F0FF0F04D12046BDE81040FFF7A9BF3F
:1015100010BD1FB503920022009203AAFFF75CFFE3
:1015200005B05DF804FB1FB503920122009203AAE7
:10153000FFF752FF05B05DF804FB836800225A6094
:10154000C3E904229A60DA601A6070471FB5037815
:101550008DF800304368019383688DF80830C368C4
:10156000054A0393054B684653F8213052F8211081
:10157000984705B05DF804FB500600205406002093
:101580001FB503788DF800304368019383688DF8A8
:101590000830C368054A0393054B684653F8213069
:1015A00052F82110984705B05DF804FB5006002062
:1015B00054060020F0B5194B90F800C091F81DE0DA
:1015C00043F82C20164B16460A6943F82C20154B7D
:1015D00003F80CE00C4607460FCC89B06D460FC5EA
:1015E00094E80F0085E80F00CDF810C0BEF1000FA1
:1015F00009D0002E0C4A694608BF3246381D00F05B
:101600001BFD09B0F0BD002E084A694608BF3246EE
:1016100007F10C0000F008FBF3E700BF54060020C0
:1016200050060020580600204D15000081150000CE
:10163000014B1B68184700BF5C06002038B50B4BF8
:1016400098420C4601D0002038BD0020FFF762FC14
:10165000074B1D7915B901221C601A710020FFF794
:101660005BFC002DEFD01120EEE700BF0020004012
:101670005C060020034B984201BF034B00221A6016
:101680001A717047002000405C06002000F1804085
:1016900000F5E040002382B0036003680193019BE2
:1016A00002B07047F0B5504B504C1B6885B0002B12
:1016B0003DD04FF4827094F82E20FFF7E7FF2AB355
:1016C00094F82F3013BB4A4B1B68002B33D04FF4D8
:1016D0008070FFF7DBFF638B94F82D108B424FD99E
:1016E00022895B1A9BB292B26383D31A626802EBBF
:1016F0004303404AC2F82C36C2F830164FF48270C9
:10170000FFF7C4FF3C4B01221A6014E063680293A8
:101710002389ADF80C30E36800218DF8041023BB59
:101720002374236801A89847002384F82F3094F885
:101730002E30002BC7D1314B1B685BB14FF4887042
:10174000FFF7A4FF0023237402238DF8043001A8BF
:10175000236898472A4B1B68EBB14FF48A70FFF758
:1017600095FF0023237405B0F0BD208B6083636078
:101770002081E160002AD4D11E4B01221A60D0E7FB
:10178000BCD1E368012284F82F2013B100226283C8
:10179000AFE76383B2E766694FF000470125002E8B
:1017A000E1D0B6FA86F227FA02F34632920026EA30
:1017B000030602F1804303F5E0431B68002BEED0E3
:1017C0001046FFF763FFA2F58C72D30882F0040283
:1017D000C2F380028DF808308DF8045023688DF82C
:1017E000092001A89847DAE7047100406406002048
:1017F0000071004000700040047000401071004013
:101800001471004038B51E4B044693F82C00A8BB59
:101810001C4A19602178C2F8F0156178C2F8F415F5
:10182000E5781874012183F82C1083F82D00586195
:1018300083F82F0083F82E506FF00043C2F808336E
:101840004FF48270FFF722FF4FF48070FFF71EFF06
:101850004FF48A70FFF71AFFA3780B485B01DBB2E5
:1018600080F80733802303600223C2F804330DB1EC
:10187000C2F80413C2F80015002038BD0820FCE7A8
:10188000640600200070004000E100E070B52A4BC3
:101890001A7C02F0FF05002A4BD10A79012A9CBF6D
:1018A000264CC4F8005500F10C0503EB45042479DF
:1018B00024B993F82D40013483F82D4003EB450300
:1018C000CC790D7A8E781C715D714B7836021B01D4
:1018D00006F4E06603F0300333430E7806F00306A7
:1018E0003343CE78360306F480563343160406F4A9
:1018F000E02633434E798979360506F480160906C9
:10190000334301F080710B430C4901EB00160001D9
:1019100000F1804000F5E040012AC6F81835C0F813
:101920001455C0F8104502D80123C1F80035002035
:1019300000E0112070BD00BF640600200070004070
:1019400070B5344A147C04F0FF03002C5FD1324C94
:10195000012503261574C4F80863C4F82C16C4F8CE
:10196000305692F82D10A9420CD91C46190101F1EC
:10197000804101F5E0410133082BC1F81445C1F85D
:101980001045F3D100F10C03000102EB430300F119
:10199000804000F5E04019795B79C0F81435C0F853
:1019A00010151D4901230B604B6042F2107301F5C5
:1019B0008271086808B9013BFBD14FF48070FFF7D2
:1019C00065FE4FF48270FFF761FE92F82D30012B17
:1019D00011D9104800210B0103F1804303F5E043C6
:1019E0000131047F457FC3F814550829C3F8104519
:1019F00000F10200EFD192F82E10074B29B103211C
:101A00000020C3F80413107470BD0221F8E7112000
:101A1000FAE700BF64060020007000402DE9F341A2
:101A2000104C114F114E00254FF48038236883B1BC
:101A3000D7F8043308FA05F21A420AD000232360CB
:101A400023680193A4F50040019B80B2D6E90031E0
:101A500098470135042D04F10404E7D102B0BDE834
:101A6000F08100BF408100400080004094060020CB
:101A70000023435082B043580193019B02B070474A
:101A80000A4610B54FF48E71FFF7F2FF136A9168A2
:101A9000C95C136A01331362C0F81C1510BD8B6951
:101AA0000A4610B54FF4847123B9FFF7E1FFD0F86F
:101AB000183510BDFFF7DCFF536AD168D0F8180560
:101AC000C854536A01335362F3E700001FB5012382
:101AD0008DF80030044BCDE90110D3E900126846BF
:101AE000904705B05DF804FBA006002030B54C48D7
:101AF000D0F8043313F4007F85B005464DD0D0F8FC
:101B00002431002B49D04FF49271FFF7B1FF4FF40D
:101B10000173C0F80833434B93F829200AB9012216
:101B200042603F4902228DF80020D1F88024C1F89C
:101B3000802403929A690292DA6801920022C3E932
:101B400006226846D3E9001290473548D0F81C3188
:101B50005BB134494A690B6A9A420A464AD991F8FC
:101B60002830002B46D1FFF78BFF2D48D0F84431A9
:101B70008BB14FF4A271FFF77BFF2A4B93F829201A
:101B80000AB1012202609A692AB10022586AD96812
:101B90009A61FFF79BFF05B030BDD5F804335B07B2
:101BA000D3D5D5F80831002BCFD01E4C1C48214688
:101BB000FFF775FF636AA2699A422346C5D1E269BD
:101BC000E1684AB12369E3600023606AA261E361CE
:101BD0006362FFF77BFFB8E794F829200AB9012276
:101BE0006A600F4A4FF40170C2F808030022586A75
:101BF0009A61EEE70A484FF48E71FFF739FF536997
:101C0000002BB2D051690291002391688DF8003009
:101C1000019153616846D2E900139847A5E700BFD8
:101C200000200040A00600202DE9F843574B05791D
:101C300091462C2202FB0532064692F82A200C46D9
:101C40009846002A40F09D8051490068FFF7F6FC55
:101C50000746002840F0978021683368481C0BD065
:101C60004FF0A04001228A40C0F8082501F5E0723B
:101C70004FF0030C40F822C06068421C1FBF00F503
:101C8000E0724FF0A04C4FF0000E4CF822E0A26939
:101C9000C3F8242594F814C0627DBCF1010F4CEA0E
:101CA0000202C3F86C25C3F81405C3F80C151DD146
:101CB000A1684A1C1FBF01F5E0724FF0A0404FF031
:101CC000000C40F822C0E268501C0BD04FF0A04C32
:101CD00001209040CCF8080502F5E0704FF0030EAB
:101CE0004CF820E0C3F80825C3F810152C236B43EB
:101CF00008EB0302C2F80490226948F80320B9F106
:101D0000000F2BD03068247F4FF48E71FFF7B0FEA8
:101D100030684FF4A271FFF7ABFE32681D4BC2F87A
:101D20000433110B42F30732002AA8BF02F16040CE
:101D30004FEA4413BABF184801F00F0400F56140A0
:101D4000DBB2B4BF035580F8003301F01F0101235B
:101D500003FA01F15209114B43F8221033680422AF
:101D6000C3F800252C2303FB05830022C3E90622C8
:101D700083F829205A61012283F82A203846BDE8D9
:101D8000F8830827FAE71127F8E700BFA00600202C
:101D9000ED1A00008000020014ED00E000E100E018
:101DA000F8B5047900682C4D0023C0F800352C23C9
:101DB00003FB04535B686BB1284BC0F8083340F356
:101DC0000733C0F304315B0901228A4020332449E0
:101DD00041F82320D0F80C65D0F81415D0F8083558
:101DE000D0F810254FF0FF37BE42C0F8147518BF69
:101DF00006F5E076C0F80C75C0F80875C0F81075E7
:101E00001EBF4FF0A0474FF0020C47F826C04E1CF3
:101E10001FBF4FF0A04601F5E071022746F8217080
:101E2000511C1FBF4FF0A04102F5E072022641F89D
:101E300022605A1C1FBF03F5E0734FF0A04202213D
:101E400042F82310FFF716FC2C2303FB0454002355
:101E500084F82A306360F8BDA006002084020200E6
:101E600000E100E02DE9F047204F90F804904FF09A
:101E70002C0808FB097405466669002E34D162619E
:101E80000068A16026624FF48E7184F82860FFF725
:101E9000EFFD2868012383602146FFF7F1FD6368A9
:101EA000A0468BB92868D4F814A0236A9A4511D8A3
:101EB0002A68D2F81C31002BFBD00123D3602C23DD
:101EC00003FB097300225A613046BDE8F08794F89D
:101ED00028303BB9D0F81C31002BF8D04146FFF731
:101EE000CFFDE2E70F26EAE71126EDE7A006002086
:101EF0000023435082B043580193019B02B07047C6
:101F00001FB501238DF80030044BCDE90110D3E952
:101F100000126846904705B05DF804FBCC0600202F
:101F20007FB5434AD2F82461002E60D010464FF4AA
:101F30009271FFF7DDFF02238DF80030D2F8803474
:101F4000C2F880340393D2F83C350293394BDA68F7
:101F500001920022C3E906226846D3E900129047A5
:101F60003348D0F8443173B14FF4A271FFF7C0FF8A
:101F7000304B9A693AB10022C3E90622D968D0F8F9
:101F80003C05FFF7BDFF2A48D0F82031ABB14FF434
:101F90009071FFF7ADFF0123C360264B5A6962B110
:101FA000D0F84C150291002299688DF8002001911B
:101FB0005A616846D3E9001290471D48D0F858315D
:101FC0009BB14FF4AC71FFF793FF1A4B5A6962B1A2
:101FD000D0F84C150291002299688DF800200191EB
:101FE0005A616846D3E90012904704B070BDD2F838
:101FF0001031002BB4D04FF488711046FFF778FFF2
:102000000C4BD2F83C0599698842A9D1DC69D968A2
:1020100064B1D2F8005225F02005C2F800521A69C6
:102020009C61DA60DE61FFF76BFF99E79C61FAE77C
:1020300000200040CC0600202DE9F8435D4B0679D6
:102040009146242202FB0632044692F820200D46D7
:102050009846002A40F0AA8057490068FFF7EEFA38
:102060000746002840F0A48029682368481C0BD04C
:102070004FF0A04001228A40C0F8082501F5E07227
:102080004FF0030C40F822C06868421C1FBF00F5E7
:10209000E0724FF0A04C4FF0000E4CF822E0AA691D
:1020A000C3F8242595F814C06A7DBCF1010F4CEAF1
:1020B0000202C3F86C25C3F80C15C3F814051DD132
:1020C000A9684A1C1FBF01F5E0724FF0A0404FF015
:1020D000000C40F822C0EA68501C0BD04FF0A04C16
:1020E00001209040CCF8080502F5E0704FF0030E97
:1020F0004CF820E0C3F80825C3F8101524237343D7
:1021000008EB0302C2F804902A6948F80320B9F1E9
:10211000000F3AD020682A7F4FF48871FFF7E8FE5D
:1021200020684FF49071FFF7E3FE20684FF492713E
:10213000FFF7DEFE20684FF4A271FFF7D9FE20689A
:102140004FF4AC71FFF7D4FE23681C49C3F80413A5
:10215000190B43F30733002BAEBF03F1604001F0CE
:102160000F0517484FEA4212A8BF00F56140D2B2EE
:10217000B4BF425580F8002301F01F01012202FA8A
:1021800001F15B090F4A42F8231023680822C3F8C3
:102190000025242303FB06830022C3E906225A619B
:1021A000012283F820203846BDE8F8830827FAE7A3
:1021B0001127F8E7CC060020211F00001003420081
:1021C00014ED00E000E100E0F8B5374D0479242378
:1021D00003FB045302465B6800686BB1334BC0F8E5
:1021E000083340F30733C0F304365B090121B140E3
:1021F00020332F4E46F82310D0F80032012623F06A
:102200002003C0F800324FF4AC714660FFF770FE57
:102210001068C660D0F85831002BFBD00023C0F8FE
:102220000035D0F80C65D0F81415D0F80835D0F882
:1022300010254FF0FF37BE42C0F80C7518BF06F5E9
:10224000E076C0F81475C0F80875C0F810751EBFA8
:102250004FF0A0474FF0020C47F826C04E1C1FBF9E
:102260004FF0A04601F5E071022746F82170511C9D
:102270001FBF4FF0A04102F5E072022641F8226034
:102280005A1C1FBF03F5E0734FF0A042022142F831
:102290002310FFF7EFF9242303FB0454002384F8F1
:1022A00020306360F8BD00BFCC0600201003420060
:1022B00000E100E001F06043B3F1005F2DE9F0417F
:1022C000064638D11E4B0779242505FB073598466D
:1022D0006C69002C31D16A610068A9604FF490717B
:1022E000FFF706FE4FF4AC713068FFF701FE33686C
:1022F0006A69A968C3F84415C3F8482501229A60A1
:102300006A68AAB9D3F82021D3F858411AB9002C29
:10231000F8D00F2407E0002CFBD10122DA60D3F8BB
:102320005821002AFBD0242303FB078700237B616D
:102330002046BDE8F0811024FAE71124F8E700BF39
:10234000CC060020704700001FB50C4A1068516889
:10235000127A01AB03C30A490A481A70FFF752FA0E
:1023600008B1FEF780FD01A90020FFF78FFA08B140
:10237000FEF779FD05B05DF804FB00BFEF38000003
:1023800045230000F8380000002108B50846FEF794
:102390000FFA08B1FEF767FDBDE80840FEF736B951
:1023A0002DE98748FFF7F0FFFFF7CEFF0120FEF78A
:1023B0003BFD434800F06CF94FF000084FF0000976
:1023C000BDF906103F4800F063F90DF10601002049
:1023D000FFF7B6FABDF9060000F000FD36A3D3E919
:1023E000002300F001FC384B002200F0FDFB4246C8
:1023F0004B4604460D4600F0AFFC002854D0334B4A
:1024000000222046294600F08BFC00284CD0DFF843
:10241000D0B02946204600F0BBFC824600F0DEFC2E
:10242000424606460F464B462046294600F078FCB9
:1024300000283CD032463B462046294600F0D0FBDF
:10244000234B244C002200F0CFFB00F0A1FC5246AD
:1024500003465946204800F01BF94FF4FA7544F042
:1024600001044FF47A40A047013DFAD1BDF90600BE
:1024700000F0B4FC10A3D3E9002300F0B5FB124B2D
:10248000002200F0B1FB154B002200F049FC0028AF
:1024900096D00220FEF7B6FC4FF4FA754FF47A405E
:1024A000A047013DFAD18BE7DFF838B0B1E722460B
:1024B0002B4630463946C1E7CDCCCCCCCCCC0C40F9
:1024C000AD380000C43800000000503F0000F0BFED
:1024D0000000594000390000DC3800000000F03FE7
:1024E000DA380000EE3800000369C1688B429DBFF6
:1024F0008268D21802F1FF3203F1FF3394BF501A01
:10250000581A70472DE9F843D0E902940546A9EB23
:1025100004084068904520440F46144404D900F054
:1025200021FDEC60BDE8F8834246A4EB090400F00D
:1025300019FD6868224607EB0801F0E72DE9F8432A
:10254000C5680646894617464FF000083469B368E7
:102550007068A54228BFE418013C621B5C1BBC42AA
:1025600028BF3C46944228BF144649462844224688
:1025700000F0F8FCB3682544AB4208BF00253F1BC0
:10258000A044A144F560E1D14046BDE8F8830000D5
:1025900010B5114C114AA2610223C4E90433104B57
:1025A000E361A2644FF400730E4A0F492362E264B0
:1025B00000231022E01DA3626362E362A3656365EA
:1025C000E365226500F0F7FC0849204600F0F3FCC3
:1025D0002023A37110BD00BFF006002006390000C3
:1025E00078070020680700200F3900001339000029
:1025F000F8B5184C182300FB033503FB00402544B5
:10260000C46A012C0F4616460FD0022C1AD0F4B91A
:102610002846FFF769FF864205D8324639462846E4
:10262000FFF770FF34462046F8BD2846FFF75CFFF1
:102630008642344628BF0446224639462846FFF7DC
:1026400061FFF0E72846BDE8F840FFF777BF0024B8
:10265000E9E700BFF006002070B50B4B1B7804467D
:102660000D4616460BB9FFF793FF0020FEF752FC0C
:10267000324629462046FFF7BBFF04460020FEF7FE
:102680004BFC204670BD00BFF0060020FFF780BF66
:102690000FB410B5A2B024AB802153F8042B0193E2
:1026A00002A800F051FC802804460ADD802202A91D
:1026B0000020FFF7D1FF204622B0BDE8104004B053
:1026C00070470028F7DD0246F1E700000C4B1B784D
:1026D000062B10D10B4B1B681A070CD10A4B18683C
:1026E00000F0F003302B08D000F0E000A0F1400330
:1026F000584258417047002070470120704700BF82
:10270000E00F00F0E40F00F0E80F00F0094B1B7839
:10271000062B0CD1084B1B681A0708D1074B186809
:1027200000F0F000A0F130035842584170470020FB
:10273000704700BFE00F00F0E40F00F0E80F00F07A
:1027400008B5FFF7C3FF28B17D4B7E4A1B68C3F372
:1027500004231360FFF7DAFF10B17B4B7B4A1A604A
:10276000FFF7B4FF28B17A4B7A4A1B68C3F34233B0
:102770001360FFF7CBFF20B1774AD36823F0807353
:10278000D360FFF7A3FF40B14FF080430022C3F8AE
:102790000C21C3F81021C3F83825FFF7B7FF10B19B
:1027A0006E4B03221A60FFF7B1FF40B16C4B05225C
:1027B0001A6001229A6700229A603F225A60694B90
:1027C0001B78062B50D1684B1B6819074CD1674BFF
:1027D0001B6803F0F003502B46D14FF08052644B3E
:1027E000D2F80414C3F82015D2F80814C3F824153D
:1027F000D2F80C14C3F82815D2F81014C3F82C150D
:10280000D2F81414C3F83015D2F81814C3F83415DC
:10281000D2F81C14C3F84015D2F82014C3F844159C
:10282000D2F82414C3F84815D2F82814C3F84C156C
:10283000D2F82C14C3F85015D2F83014C3F854153C
:10284000D2F83414C3F86015D2F83814C3F86415FC
:10285000D2F83C14C3F86815D2F84014C3F86C15CC
:10286000D2F84424C3F87025FFF730FF28B1414B5C
:10287000414A1B6803F04F031360FFF727FF48B17D
:102880004FF08043D3F80024D20744BF6FF0010219
:10289000C3F80024394B1B68062B08D1384B1B6842
:1028A000062B01BF374A136843F480631360364A2E
:1028B000D2F8883043F47003C2F88830BFF34F8FEA
:1028C000BFF36F8F4FF01023D3F80022002A03DBF1
:1028D000D3F80432002B2FDA2C4B0122C3F8042545
:1028E000D3F80024002AFBD04FF010221521C2F8A3
:1028F0000012D3F80024002AFBD04FF01023152239
:10290000C3F80422214B1A46D3F800140029FBD047
:102910000021C3F80415D2F80034002BFBD0BFF31C
:102920004F8F19491A4BCA6802F4E0621343CB6017
:10293000BFF34F8F00BFFDE7164B174A1A6008BD63
:10294000240300104035014074C007400DF0ADBABB
:10295000440200103C050040F0ED00E0A0050040FE
:1029600010560040E00F00F0E40F00F0E80F00F018
:1029700000C0004058020010E40E0040300100107A
:10298000340100103C17004000ED00E000E0014081
:102990000400FA05240000200090D00330B591EA2D
:1029A000030F00F18480841A71EB030C05D2121915
:1029B00053EB0C03001B71EB0C0140F2000CCFF643
:1029C000E07C1CEA430F54D0BCEB410F61D90C0DE5
:1029D000A4EB135E31EA0C0141F4801133EA0C03DD
:1029E00043F48013DEF1200C2AD303FA0CF54019CE
:1029F00041F1000122FA0EF5401923FA0EF5694162
:102A000012FA0CF2CD0208D349085FEA30005FEAFF
:102A1000320228BF42F001020134013C5FEA500C4F
:102A200072F1004250F1000051EB04514FF40013D9
:102A300013EB410F38BF30BD090D0905002030BD33
:102A4000BEF1200EBEF1200F1ED223FA0EF5401962
:102A500041F10001CEF1200C124218BF012203FA0D
:102A60000CF52A43CEE711EA5C0F04BF00200021D9
:102A700030BD1CEA410F04BF01F00041002030BD11
:102A800001F00041002030BD21F4801101EB045120
:102A900030BD004218BF41F00101BCEB410F08BF3F
:102AA00030BD4FF0FE4141F47801002030BD83F08D
:102AB0000043841A71EB030E07D28EF0004E001B08
:102AC00071EB0E01121953EB0E0340F2000CCFF61E
:102AD000E07C1CEA430FC6D0BCEB410F72D90C0D51
:102AE000A4EB135EC90241EA5051C00241F000411B
:102AF000DB0243EA5253D20243F00043DEF1200CE2
:102B000041D312FA0CF522FA0EF203FA0CF542EA5E
:102B1000050218BF42F0010223FA0EF3801A994110
:102B2000E30AC4F30A0411F0404F03D418D0013C67
:102B300040004941013C23D44205C00A40EA4150CB
:102B4000C90A51EAC3715FEA500C72F1004250F1B8
:102B5000000051EB045130BD01002FD00020203C7B
:102B60000029F9D0B1FA81FCDCF1200E11FA0CF148
:102B700030FA0EF510FA0CF02943A4EB0C04D9E757
:102B80000020D90730BDAEF1200EBEF1200F0DD2CE
:102B9000CEF1200C03FA0CF533FA0EF32A4318BFDA
:102BA00043F00103C01A61F10001B9E721F00041CF
:102BB000C00A40EA4150C90A01EB045130BD00206F
:102BC000002130BD004218BF41F00101BCEB410FB4
:102BD0007FF467AFBCEB430F3FF463AF30BD00BF82
:102BE00083F00043FFF7DABEF0B540F2FF7681EAEA
:102BF000030C16EA115E1EBFB64516EA1355B54220
:102C00005AD021EA465141F48011A1FB024723EA40
:102C1000465343F48013AE44A0FB03650CF0004C14
:102C200036197D41A1FB034747F10003A0FB0217C2
:102C3000F619654153F10003094218BF46F0010639
:102C400040F2FE74B3F5007F13D2AEF5806EA64558
:102C50002BD24CEA0331280341EA155140EA1650C1
:102C60003203450872F1004250F1000051EB0E5161
:102C7000F0BDAEF2FF3EA64517D24CEAC321E802F2
:102C800041EA555140EA5650F202450872F10042BD
:102C900050F1000051EB0E51F0BD0CF0004141F03D
:102CA000FE4141F470010020F0BD1EEA0E0FF4D584
:102CB0000CF000410020F0BD16EA115F04BF01F0E6
:102CC00000410020004218BF41F0010116EA135FE5
:102CD00004BF03F000430022124218BF43F0010377
:102CE00006EA1354B44218BF9EEA060F03D00CF054
:102CF00000410020F0BD21F0004123F00043B1EB82
:102D0000065F06D8B3EB065F03D8002918BF002B77
:102D1000C3D140F20001C7F6F8710020F0BD00BF3A
:102D20004FF4001C1CEB410F98BF1CEB430F11D854
:102D300051EA030C50EA4C0C5CEA020C0AD004D2B3
:102D400082428B418041404270479042994180418C
:102D500040427047002070474FF4001C1CEB410FAD
:102D600098BF1CEB430F11D851EA030C50EA4C0CEE
:102D70005CEA020C0AD004D2904299418041404260
:102D8000704782428B41804140427047002070472B
:102D9000C1F30A5340F21E42D21A0EDD202A0AD88D
:102DA000CB0243EA505040F00040D04090EAE1703E
:102DB000B0EBE1707047002070474B00004218BF35
:102DC00043F0010313F5001F88BF21F0004111F00B
:102DD000004058BF6FF00040704700BF80B110F056
:102DE000004248BFD0F10000120D02F21D42B0FABD
:102DF00080F18840521AC30A400503EB0251704724
:102E0000010070477F2805D8034B185C034B5B5CBF
:102E1000184070470020704728390000A83900008A
:102E2000A0F16103192B98BF20387047A0F141032E
:102E3000192B98BF203070477F2805D8034B185CAA
:102E4000034B5B5C18407047002070472839000036
:102E5000A8390000A0F16103192B98BF20387047F2
:102E6000A0F14103192B98BF203070477F299ABFEA
:102E7000017001206FF02E0070475AB10A787F2A46
:102E80000AD800B10260002119605960501A18BFB9
:102E900001207047002070476FF02E00704738B552
:102EA00004460846A26842B1236861685D1C8D42F1
:102EB00008BF00208B4208D2D054E3682BB12168B0
:102EC0006268914201D2214698472368013323600A
:102ED00038BD70B54C1E09D41646C5B229463046D9
:102EE000FFF7DDFF013CB4F1FF3FF7D170BD10F0FB
:102EF000100F08D108B510F4007F14BF3020202037
:102F0000FFF7E7FF08BD704708B5034B5B689B6898
:102F10001B68984708BD00BF2800002008B509219C
:102F2000FFF7F2FF08BD037853B159B101440346DE
:102F300013F8012F12B18B42FAD10B46181A7047C1
:102F40000346FBE70346F9E710B584B00C4611468B
:102F500002900022039201941A46684600F07EF81F
:102F600004B010BD844640EA010313F0030F18D1EA
:102F70008446202A0BD32DE9F007B1E8F807A0E832
:102F8000F807A2F12002202AF7D2BDE8F007042AB0
:102F900007D351F8043B40F8043BA2F10402042A91
:102FA000F7D2002A05D011F8013B00F8013B013AA5
:102FB000F9D160467047024610F0030F16D111F0A8
:102FC000030F13D12DE9F0004FF001374FF080339C
:102FD00051F8044BA4EB070525EA04051D4002D176
:102FE00042F8044BF4E7A1F10401F0BC11F8013BF5
:102FF00002F8013B002BF9D1704700F1010110F0FC
:10300000030F11D010F8012B002A23D010F0030F6A
:103010000AD010F8012B002A1CD010F0030F03D0A7
:1030200010F8012B002A15D02DE970004FF0013265
:103030004FF0803350F8044BA4EB020525EA040559
:103040001D4000D1F6E7A0F1040070BC10F8012B80
:10305000002AFBD1A0EB0100704700002DE9F04FE2
:1030600089B007460392002303600C4614F8011B45
:10307000002900F0FA82DFF814B5E9E2002507E044
:103080005E2868D145F4805501E045F040051C46B6
:10309000234613F8010B3028F2D81F2837D9A0F1A6
:1030A0002002102A33D801A151F822F08B30000001
:1030B0000F3100000F310000F13000000F3100002F
:1030C0000F3100000F310000F73000000F31000019
:1030D0000F3100000F310000FD3000000F31000003
:1030E000033100000F3100000F31000009310000F2
:1030F00045F08005CBE745F40045C8E745F02005DD
:10310000C5E745F01005C2E745F40075BFE72A287A
:1031100021D1039A111D0391D2F800A0BAF1000F3A
:10312000BCBFCAF1000A45F010051878A31C2AEAB2
:10313000EA7A2E2826D00021742847D07A2845D054
:103140006C2800F0A8804C2800F0AB80682800F0C4
:10315000B8801C463DE0A0F13002D2B2092A88BFF7
:103160004FF0000AE3D84FF0000A0AEB8A0A303821
:1031700000EB4A0A13F8010BA0F13002D2B2092A7F
:10318000F3D9D4E718782A280AD1039A111D03919C
:103190001168587802330029CEDB45F48075CBE7FF
:1031A0000133A0F13002D2B2092A88BF0021F4D83D
:1031B000002101EB8101303800EB410113F8010BD4
:1031C000A0F13002D2B2092AF3D9E4E71C4614F880
:1031D000010B002800F05582A0F12503DBB2532B30
:1031E00062D8A0F12503532B5ED8DFE813F07600F8
:1031F0005D005D005D005D005D005D005D005D00E7
:103200005D005D005D005D005D005D005D005D00D6
:103210005D005D005D005D005D005D005D005D00C6
:103220005D005D005D005D005D005D005D005D00B6
:103230005D005D005D005D005D005D005D005D00A6
:103240005D005D005D005D005D005D005D005D0096
:103250005D005D00EB005D005D005D005D005D00F8
:103260005D005D005D005D005D007B0020015D0094
:103270005D005D005D0020015D005D005D005D00A2
:1032800095000E01D1005D005D00A6005D001901F2
:103290005D005D00ED001C4614F8010B45F00105D2
:1032A00097E745F001051C46B44B1E68002E00F060
:1032B000CC8103AB0193009153462A463946B0476F
:1032C000C3E11878682803D05C1C45F0040580E74A
:1032D00045F008059C1C58787BE725213846FFF708
:1032E000DEFDB2E1039B1A1D03921E780AF1FF3A3C
:1032F0003A4651462846FFF7FAFD31463846FFF771
:10330000CEFDA94619F0100F00F09F813A465146B4
:103310002020FFF7DEFD98E115F0080F06D03A688F
:10332000039B191D03911B681A708EE1039B1A1DE4
:1033300003921B683A681A6087E1039B1A1D039287
:10334000D3F800808E4BB8F1000F08BF9846464670
:1033500025F4007915F4807F15D04046FFF7E3FD92
:103360000546AAEB050A3A4651464846FFF7BFFD17
:10337000002DC7D0454416F8011B3846FFF78FFDD6
:10338000B542F8D1BEE74046FFF737FE0546E8E70D
:10339000039B1A1D03921B6815F0800F0CBF0026BB
:1033A000232645F4807508211A46002B00F0298158
:1033B00005AB4FF0000805F4005CA64660468C465D
:1033C0000146D1E045F4005515F0800F1BD043F2C3
:1033D000780643F25803782818BF1E4615F4807FFC
:1033E00001D025F4007515F4804F32D0039B1A1DCF
:1033F00003921B6815F0040F1FD01BB2002B20DABC
:103400005B422D262DE00026E8E715F0800F0CBF6B
:103410000026302615F4807FE5D025F40075E2E71C
:1034200015F4807F07D025F400750026DBE745F40E
:1034300080450026D7E70026D5E715F0080FDDD038
:10344000DBB215F0200F60D115F0400F18BF202619
:1034500007E0039B1A1D03921B6815F0040F4FD061
:103460009BB215F4807F14BF25F4007501215838F4
:10347000202800F2AE8001A252F820F0A93300000B
:10348000D3350000D3350000D3350000D33500001C
:10349000D3350000D3350000D3350000D33500000C
:1034A000D3350000D3350000D33500003735000098
:1034B000D3350000D3350000D3350000D3350000EC
:1034C00037350000D3350000D3350000D335000078
:1034D000D3350000D33500000F350000A9330000BC
:1034E000D3350000D3350000D3350000D3350000BC
:1034F00037350000D3350000D3350000A933000074
:1035000015F0080FADD0DBB2ABE72B26A9E71A46C2
:103510004FF00008002B5ED005A84FF0000803F024
:103520000703303300F8013B08F10108D2081346C5
:10353000002AF4D14FE018464FF00008002B4AD083
:103540004FF0000805F4004E4FF02C0973468E46EC
:1035500019462FE002F00F000A4C205C03F8010B23
:1035600008F10108120906D00029F3D002F00F007B
:10357000054C205CF2E7744661462CE07809002097
:103580007C3B00005C3B00006C3B0000CDCCCCCC15
:1035900008AB03EB080CABFB0032D20802EB820352
:1035A000A0EB430330330CF80C3C08F10108092868
:1035B0000DD910460029EBD008F00303032BE7D107
:1035C00008AB434403F80C9C08F10108E0E771469E
:1035D00001E04FF00008A1EB080121EAE179AAEB34
:1035E000090AAAEB080AFF2E0ED9AAF1020AC6F3AD
:1035F00007213846FFF753FCF1B23846FFF74FFC7E
:1036000004E04FF00008E6E7002E3DD13A4651466F
:103610002846FFF76CFC3A4649463020FFF759FC34
:10362000B8F1000F0EDD0DF1140908F1FF38C844A0
:1036300098F8001046463846FFF731FCC14508F1BE
:10364000FF38F5D115F0100F09D114F8011B61B145
:1036500025293FF413AD3846FFF721FCF5E73A463C
:1036600051462020FFF735FCEFE7BB682BB13A68E5
:1036700079688A423CBF00219954386809B0BDE896
:10368000F08F4FF0FF30F9E70AF1FF3AB4E700BFDF
:103690008E3800000000000092380000000000009A
:1036A00096380000000000009C3800000000000078
:1036B000A238000000000000A73800000000000051
:1036C000823700000000030385380000000000007E
:1036D00018370000000000006137000014000020CF
:1036E0004437000000000000503700001C0000209C
:1036F000C00000208801002090010020C8000020A8
:0437000018000000AD
:103704000000000000000000000000000338FDD8A5
:1037140070470000D503000041040000D1030000FD
:10372400FFFFFFFFFFFFFFFFFFFFFFFFFFFFFFFFA5
:1037340000000000000000000000D60106010000A7
:1037440075050000D9050000150500007561727447
:103754005F6C6F675F6261636B656E640072747443
:103764005F6C6F675F6261636B656E640042616387
:103774006B656E647320666C757368656400617054
:1037840070000000B40500207F0000003406002013
:103794001B5B306D002573001B5B313B33316D00C7
:1037A40025734C6F67732064726F70706564202892
:1037B40025642925730D0A003C25733E2025733AA0
:1037C4002000202530327800202020007C00256352
:1037D400001B5B313B33306D001B5B313B33326D7F
:1037E400001B5B313B33336D001B5B313B33346D6A
:1037F400001B5B313B33356D001B5B313B33366D56
:10380400001B5B313B33376D007761726E696E6705
:1038140000696E666F006465627567009437000026
:10382400D53700009C370000DD370000E537000085
:10383400ED370000F5370000FD37000005380000C3
:1038440000000000623800000D3800001538000048
:103854001A38000011121314466174616C206572E9
:10386400726F720053797374656D20726573657439
:1038740000303132333435363738394142434445E8
:10388400467077725F6D676D7400505049005052F6
:10389400530053414144430054494D45520055415E
:1038A4005254005541525445004170706C69636133
:1038B40074696F6E205374617274656421212100F0
:1038C40053616D706C652076616C7565205265611D
:1038D400643A202564002D00566F6C74733A2025D9
:1038E4007325642E253032640D0A000000000002A6
:1038F4000000090001000600000000000338FDD8A4
:1039040070475465726D696E616C00525454005373
:10391400454747455200000043000000504F5349BB
:103924005800000020202020202020202068282863
:103934002828202020202020202020202020202073
:1039440020202020481010101010101010101010FB
:1039540010101010848484848484848484841010DB
:1039640010101010108181818181810101010101F8
:103974000101010101010101010101010101011024
:1039840010101010108282828282820202020202CD
:1039940002020202020202020202020202020210F5
:1039A40010101020000703200417020108571040CC
:1039B400800000001C390000203A0000343B000065
:1039C40053756E004D6F6E00547565005765640045
:1039D4005468750046726900536174000000000069
:1039E4004A616E00466562004D617200417072006A
:1039F4004D6179004A756E004A756C004175670027
:103A0400536570004F6374004E6F76004465630025
:103A140000000000414D00504D000000583B0000E4
:103A2400543B0000543B0000543B0000543B000056
:103A3400543B0000543B0000543B0000543B000046
:103A4400543B0000FFFFFFFFFFFFFFFFFFFFFFFFEF
:103A5400FFFF0000943A0000C4390000D03A00008F
:103A6400E4390000183A0000783A0000283B0000CE
:103A7400843A0000256D2F25642F2579000000006D
:103A84002561202562202565202554202559000024
:103A940053756E646179004D6F6E6461790054757D
:103AA4006573646179005765646E65736461790058
:103AB400546875727364617900467269646179004F
:103AC4005361747572646179000000004A616E7517
:103AD400617279004665627275617279004D617236
:103AE400636800417072696C004D6179004A756EBB
:103AF40065004A756C790041756775737400536588
:103B04007074656D626572004F63746F62657200F4
:103B14004E6F76656D62657200446563656D6265BE
:103B24007200000025483A254D3A25530000000054
:103B3400052E0000212E00002D2E0000392E00003D
:103B4400552E0000612E00006D2E00007B2E00001B
:103B5400000000002E000000303132333435363797
:103B640038396162636465663031323334353637EF
:0F3B74003839414243444546286E756C6C290030
:103B84000000000000200040000000000020004071
:103B94000000000000000000FF0000000000000022
:103BA400FF0000000090D003B8390000B8390000CD
:0C3BB400B8390000B8390000B839000032
:040000030000037581
:00000001FF
