:1000000000000120750300005D0300005F03000095
:1000100061030000630300006503000000000000AE
:100020000000000000000000000000006703000066
:1000300069030000000000006B0300006D03000076
:10004000691700006F030000C11700006F03000074
:100050006F0300006F0300006F03000039210000F0
:10006000B92400006F0300006F0300006F0300005D
:100070006F0300006F0300006F0300006F030000B8
:100080006F030000B10F00006F0300006F0300005A
:100090006F0300006F0300006F0300006F03000098
:1000A0006F0300006F0300006F0300006F03000088
:1000B0006F0300006F03000000000000000000005C
:1000C0006F0300006F0300006F0300006F03000068
:1000D0006F0300006F0300006F03000000000000CA
:1000E0000000000000000000000000000000000010
:1000F0000000000000000000000000000000000000
:1001000000000000000000000000000000000000EF
:1001100000000000000000000000000000000000DF
:1001200000000000000000000000000000000000CF
:1001300000000000000000000000000000000000BF
:1001400000000000000000000000000000000000AF
:10015000000000000000000000000000000000009F
:10016000000000000000000000000000000000008F
:10017000000000000000000000000000000000007F
:10018000000000000000000000000000000000006F
:10019000000000000000000000000000000000005F
:1001A000000000000000000000000000000000004F
:1001B000000000000000000000000000000000003F
:1001C000000000000000000000000000000000002F
:1001D000000000000000000000000000000000001F
:1001E000000000000000000000000000000000000F
:1001F00000000000000000000000000000000000FF
:10020000354936480A1A02D0072291438D463449AF
:1002100034480A1A06D00722914381F30988022242
:1002200082F3148830483149314A00F044F83148AB
:100230003149324A00F03FF831483249324A00F041
:100240003AF832483249334A00F035F832483349F7
:10025000334A00F030F833483349344A00F02BF881
:1002600033483449344A00F026F8344834490022EF
:1002700000F02CF833483449002200F027F83348C6
:100280003349091A082902DB002202604160314A21
:1002900090471F481F49884205D00268043003B4C4
:1002A000904703BCF7E700208646EC46002000217B
:1002B000294A9047FEE7884207D0521A05D00378B2
:1002C00001300B700131013AF9D17047884202D0F8
:1002D00002700130FAE770470000012000E00020C2
:1002E0000000012000000120983700007800002065
:1002F000B4000020D0030000D0030000822F0000D3
:10030000983700007800002078000020B03000000E
:10031000B0300000B0300000B0300000B03000005D
:10032000B0300000B0300000B03000009637000060
:10033000D4370000B4000020B4000020B400002036
:10034000000A0020000A0020000A0020000A002005
:10035000002A00209D03000069260000FEE7FEE75A
:10036000FEE7FEE7FEE7FEE7FEE7FEE7FEE7FEE765
:1003700000F002B8FFF7FCBF0F484FF007018843B9
:1003800085460E4880470E48016841F470010160BF
:10039000BFF34F8FBFF36F8FFFF732BF09480A4992
:1003A0000A4A884207D0521A05D0037801300B70F0
:1003B0000131013AF9D17047000001207129000094
:1003C00088ED00E0383000000000002078000020B8
:1003D0007047000007B5044B0093044A402300F027
:1003E00032F803B05DF804FBF1030000B500002013
:1003F0002DE9F84388461446B2B10F4B0F4E032542
:10040000002743F00109224608EB0701002002F013
:1004100055FA0744241A48B933782BB14FF47A407F
:10042000C847013D02D13570BDE8F8830123337020
:10043000002CE8D1F8E700BFB0300000B400002085
:10044000704702F06FBAF0B595B01D4616460846E3
:100450000C4601F0A7F81A9B0D93CDE9086500251D
:100460002B46082205A920460A958DF82C500C959C
:1004700001F0B5F8079B0293069B03939DF8143097
:100480008DF8115003F00302012A1DD1BDF814208C
:10049000059DC3F3C203C2F383168DF81030B2007A
:1004A00008230EA9204601F09AF8C5F3952508AB5C
:1004B0000093324602AB0EA9284600F051FC2046BC
:1004C00001F074F815B0F0BD022AF8D1BDF816504D
:1004D000C3F3C203C5F389158DF810300827082D22
:1004E0002E4628BF08263B4632460EA9204601F07C
:1004F00076F8AD1B08AB02AA31460EA8374400F0CF
:1005000093FC002DEBD1DAE77047000007B5044BF0
:100510000093044A4023FFF796FF03B05DF804FB05
:1005200079050000F600002030B5104D0FCD89B0E0
:100530006C460FC495E80F0084E80F004FF0FF33BE
:100540000622CDE90023CDE9023309484FF0EB73D1
:1005500000226946069301F089F808B100F0C0FC5A
:10056000044B00221A7009B030BD00BFC430000037
:1005700078000020F500002038B50D4B0D4D00200F
:1005800018700D4804782D5DD2B21C4665B1043058
:1005900001F07EFD08B100F0A3FC084B1A7812B1FF
:1005A0002378002BFBD038BD0C3001F033FBF1E792
:1005B00036010020D806002078000020F500002039
:1005C00008B50848084A0378D35C33B1043001F019
:1005D000CFFCBDE80840FFF7A7BF0C3001F0B0FA30
:1005E000F7E700BF78000020D8060020FFF79CBF87
:1005F00038B50A4DFFF725FF0421284600F0FCFA24
:10060000074B01245C71FFF7F1FF042105F1100095
:1006100000F0F2FA034B5C7138BD00BFFC2F000004
:100620008C00002094000020037813F0040216D000
:1006300003F00303012B03D0022B09D001207047E4
:100640000A6800880232C0F3831002440A60F5E7AA
:100650000B684288023303EB92130B60EEE71046FF
:10066000704700002DE9F04F044685B0861C00203D
:100670000F46154600F098FC3F4A51683960936870
:1006800003F580735B1A924602F21C4702F58369F8
:1006900002F21448B34219D30020002D68D004F0B0
:1006A0000F039B0143F0050363F30F00DAF80430F6
:1006B000DAB203321E444AF822000020CAF804606D
:1006C00000F074FC012005B0BDE8F08F0121384630
:1006D00000F09BFC484600F0B0FC404600F0ADFC4A
:1006E000DAF808000090C0B203300AEB80006946D7
:1006F000FFF79AFF009B30BBDAB20AEB8202D168A7
:1007000001919A1C0133DBB20AEB83030092D3F808
:100710000CB001F00303012B22D0022B15D083462D
:10072000404600F08DFC10B1009BCAF808305946D5
:10073000384600F06AFCDAF80830DAF8042003F5ED
:1007400080739B1AA6E7D8B2CEE7BDF80630C3F394
:10075000891303334FEA1B4B02EB93030093DFE74C
:10076000BDF80430C3F383134FEA1B4B1344F5E782
:10077000A40544F0060099E70802002030B50A4BB2
:100780000A4A0B49D21AD20800239A4201D1052005
:1007900006E031F823500468A54202D1036000202E
:1007A00030BD0133F1E700BF842F0000FC2F0000B3
:1007B000000000202DE9F84F1D4B1E4801221A7041
:1007C00000F0A9FE814688B91B481C4E1C4CDFF87E
:1007D0007CA000F00EFFA41BE4084D46A54208D102
:1007E0000023184A18481946A3421BD14846BDE8C1
:1007F000F88F4FF00008474606EBC50BBD420AD004
:1008000056F83710DBF80000142202F022FB002813
:10081000C8BF08F101080137BC42EFD12AF8258092
:100820000135DBE720F8231042F8041B0133DBE736
:10083000080200201C30000068330000842F0000F4
:10084000FC2F00003C0000200200002000000020DF
:1008500007B5019031B9019A064B53F8320003B045
:100860005DF804FB01A8FFF789FF0028F3D0002002
:10087000F5E700BF842F0000094B013903EBC000EE
:10088000032909D8DFE801F00A02040604207047B2
:100890000079704740797047002070470220704708
:1008A000842F000030B5124C00EB400054F821506A
:1008B00002FA00F3072202FA00F06B400D4A0340EF
:1008C0006B40C3F3821044F8213002EB8101C3F383
:1008D000C202824238BF0246C3F34220824203F082
:1008E000070338BF0246934238BF13464B8030BDE2
:1008F0003C00002000000020034BD3E90130C31A64
:1009000058425841704700BF080200202DE9F043CB
:1009100085B0FFF7F1FF0546002840F00481834CC5
:10092000C4F81804BFF34F8FA3680093DBB20333FE
:1009300004EB83006946FFF777FE009B18B1D4F8FB
:100940001824002A5FD0DAB2991C013304EB82022A
:10095000DBB204EB8303D268DB68029302F003038B
:10096000022B0192009159D1BDF8063070489DF8D4
:100970000450C3F38917502FB84628BF4FF05008D2
:1009800068F38F1308F10801ADF8063000F0DBFDC5
:10099000C5F3C2050646002800F0AC8000F002FE58
:1009A000002301A90822304600F00FFE0099CB4336
:1009B000DBB20133C9B20331B8EB830F4FEA8309CD
:1009C00004EB810127D908234A46A8EB09083046E1
:1009D00000F0FBFD5FFA88F8564909F1080342462A
:1009E000304600F0F2FD009B033703EB97070097BA
:1009F000D4F81834002B47D1D4F81074DFF848919C
:100A00004FF0070865E062689A428FD8A2602846D6
:100A100005B0BDE8F08308234246E1E7012B69D128
:100A2000BDF804504248C5F38311062928BF0621AA
:100A300061F3891502318900ADF8045000F083FD9F
:100A4000C5F3C2050646002854D000F0ABFD0023D4
:100A5000082201A9304600F0B8FD0027BDF80420A7
:100A6000C2F38312BB00974203F10803C0D200997E
:100A70004A1CC9B20331009204EB810104223046C2
:100A800000F0A3FD0137E9E7304600F08FFDFFF7E6
:100A900033FF80F00100C5B2B9E7FB685A79B2B103
:100AA0001B79BDF8081003EB430259F8211008FA2E
:100AB00002F3052D03EA010323FA02F308BF03251D
:100AC000AB4204D33B6831461B6838469847FB6805
:100AD0001F68002FE1D1304600F068FD384600F075
:100AE00063FAD4F818340BB9009BA360002000F01F
:100AF0005DFACCE7D4F8104474B90F4B5B88012B36
:100B0000C5D90E4B0E480F49C01AC008000440F06A
:100B1000020000F061F8BAE7236820469B68984716
:100B2000E3681C68E8E7002571E700BF08020020C1
:100B30001C300000140200201C000020842F000044
:100B4000BC2F0000113100003C0000202DE9F347CC
:100B500004460E46924601A9012218469946FFF71F
:100B600081FD1B4F10B3019D4FF00008AA1CC84522
:100B700008EB020123D11748002100F023FA80F38B
:100B80001000000440EA1440E4006B1C04F0380438
:100B9000DBB2EDB244F0010407EB8303033544EA12
:100BA000881444EA8624D86047F825403B781BB176
:100BB000FFF7ACFE0028FBD102B0BDE8F087C9B258
:100BC00007EB81015AF82830CB6008F10108CEE725
:100BD000080200202406002000231A46FFF7B6BFB3
:100BE0001FB5CDE90123069B039301AA0323FFF759
:100BF000ADFF05B05DF804FB1C4A2DE9F843D2F8BF
:100C00001034054688460024194689B9E9680C71F4
:100C1000A3B9C2F810540B60154B164EF61AF6081D
:100C2000002703F10709B7420DD12046BDE8F8833C
:100C3000C9680879A04212D00968E6E7DB681A683B
:100C40000A601D60E8E719F83720EB68424539462D
:100C5000187928BF4246FFF725FE0137E3E7013444
:100C60000A2CD1D14FF0FF34DFE700BF080200208B
:100C7000842F0000FC2F0000084A38B50123D2F869
:100C8000104413701D4604B938BDE3685D712368D4
:100C900020465B689847E3681C68F4E70802002078
:100CA00007B503460846197A052911D05B7A2BB19E
:100CB000094A0A49019000F01DFA0198084901907B
:100CC00000F018FA019803B05DF804EB00F007BAE1
:100CD000002AF8D0F2E700BF743300007933000037
:100CE0009933000030B5C38885B004460D4633B152
:100CF000144A00921449154A284600F0FBF9217A5B
:100D000005291DD0637A4BB1A088FFF7B5FD104BC4
:100D1000104953F82020284600F0ECF9227A0E4BB7
:100D2000A08853F8222003920021FFF791FD039A37
:100D30000A490346284605B0BDE8304000F0DAB95C
:100D400005B030BD74330000843300007C330000F4
:100D5000F033000079330000143400009C330000AD
:100D60002DE9F04385B01F460C9D002395F80C90AB
:100D70002B7306460C46904629463846FFF7B2FFCD
:100D8000B8F1060F09D8DFE808F00412181F28335D
:100D900040003146284600F0ADF900222946384689
:100DA000FFF77EFF85F80C9005B0BDE8F083226860
:100DB0003146284600F09EF9EFE7D4E9002331469A
:100DC000284600F097F9E8E7A36800933146D4E994
:100DD0000023284600F08EF9DFE7E3680193A3685B
:100DE00000933146D4E90023284600F083F9D4E784
:100DF00023690293E3680193A36800933146D4E921
:100E00000023284600F076F9C7E763690393236956
:100E10000293E3680193A36800933146D4E9002369
:100E2000284600F067F9B8E708292DE9F74F804612
:100E30000E4617461C463CD8002593F80C901D73AF
:100E400019461046FFF74EFFDFF888A0DFF888B09C
:100E5000AE4231D918F805205946204600F04AF92B
:100E60000135082DF4D11949194DDFF870A020463D
:100E700000F040F94FF0000B5E4522D918F80B2026
:100E80007E2A05D81046019201F0DEFF019A00B9D2
:100E90002E225146204600F02DF90BF1010BBBF13B
:100EA000080FE9D1012221463846FFF7F9FE84F800
:100EB0000C9003B0BDE8F08F5146204600F01AF9BF
:100EC000CEE72946204600F015F9E6E7B0330000EA
:100ED000AE330000AC330000A6330000B233000094
:100EE0001FB50021039001AA44F20100CDE90111D0
:100EF00000F004F805B05DF804FB000010B572B610
:100F0000FFF7BAFEFFF702FD0028FBD1154C6288FF
:100F10004AB11548154B1649C01AC008000440F0E4
:100F20000100FFF759FE134B1B68DB0700D500BE1D
:100F30006388012B09D90C480C4B0F49C01AC00813
:100F4000000440F00200FFF747FEBFF34F8F0B494C
:100F50000B4BCA6802F4E0621343CB60BFF34F8FC0
:100F600000BFFDE71C000020BC2F0000842F000004
:100F700028340000F0ED00E03434000000ED00E023
:100F80000400FA0572B6024A136801331360704711
:100F9000C0060020034A1368013B136003B962B620
:100FA000704700BFC0060020FFF7ECBFFFF7F2BF9D
:100FB000024B034A1B681068184700BFCC0600208C
:100FC000C406002010B5034653E8000F0A4643E864
:100FD000002494F0000FF7D110BD10B5034653E87C
:100FE000002F42EA010043E8000494F0000FF6D11C
:100FF00010BD10B5034653E8000F00EA010243E8B4
:10100000002494F0000FF6D110BD10B5034653E84C
:10101000002F02EB010043E8000494F0000FF6D12A
:1010200010BD10B5034653E8002FA2EB010043E8C2
:10103000000494F0000FF6D110BD0121FFF7CDBFE1
:101040000021FFF7D6BF10B590B1D0E901230168A8
:101050009B1ADBB20A60013BDBB2FF2B026802D1B4
:101060000020107110BD11684C1C14600B70F2E769
:101070000E20F7E738B504460020FFF795FF2268F9
:1010800063681168994213D9481E106011F8015C19
:10109000E368218B01FB0535A36811791B1ADBB2CC
:1010A000994200D213710020FFF780FF284638BD17
:1010B0000025F8E738B5054600200C46FFF774FF19
:1010C0002A681368591C1160E968641A298BB4FBFB
:1010D000F1F41C70BDE838400020FFF767BF82685C
:1010E00010B504462AB14369016800699847002396
:1010F000A36010BD0EB403B5039921B104AB01AADE
:10110000019300F077F802B05DF804EB03B070478C
:101110000A2938B504460D4602D10D21FFF7F8FF24
:10112000A3682268591CA160D554D4E901329A42BF
:1011300004D32046BDE83840FFF7D1BF38BD0000DA
:101140002DE9F84F9846DDE90A43154682460F46D9
:101150000A464FF00109AA420FD2C14538BFC14625
:1011600013F0010B01D16CB900240126B8F1010F75
:101170001BD908F1FF386E43F8E709F10109B2FB0A
:10118000F5F2E8E79B070ED5B8F1000F0CBF30264B
:101190002026A145E9D2013C31465046FFF7B8FF71
:1011A000002CF6D1E0E72026F3E7B7FBF6F39D42EB
:1011B000E1D9DFF83C80B7FBF6F3504618F803108E
:1011C00006FB1377FFF7A4FF3346AB42B6FBF5F6F9
:1011D000F1D2BBF1000F02D00CB1A14501D3BDE8A3
:1011E000F88F20215046013CFFF792FFF4E700BF43
:1011F000663400002DE9F74F05461746884600295A
:1012000000F0428118F8011B49B92B7B002B00F03C
:101210003B81284603B0BDE8F04FFFF760BF2529AA
:1012200040F0B780002698F800302D2B424608F198
:10123000010823D0302B24D02B2B25D000242A2B9F
:1012400002F1010123D13B681A1D1B683A601C445E
:101250000A4613782E2B26D101324FF0000A104691
:1012600010F8011BA1F1300CBCF1090F1DD80A23A5
:1012700003FB0A13A3F1300A0246F0E746F0010629
:10128000D1E746F00206CEE746F00406CBE711F8B8
:10129000013CA3F130000928DBD80A2202FB043408
:1012A000303C0A46CBE74FF0000A12F8011B01F070
:1012B000FB0068289046F8D0782909D86F290CD807
:1012C000632962D022D8252963D0582900F088806C
:1012D00098F80030002B95D197E770390829F7D896
:1012E00001A353F821F000BF63140000D1120000E5
:1012F000D1120000F1130000D1120000CF13000042
:10130000D1120000D1120000E1130000642901D0C5
:101310006929DDD13A68D2F80090111D89EAE97295
:101320003960A2EBE9724FF0010B092A35DCD34595
:1013300038BFD3462CB1B9F1000F01DB720700D5DD
:10134000013CB30702D5BAF1000F03D0F00701D476
:101350004CBB0024B9F1000F2DDAC9F100092D2191
:101360002846FFF7D5FE06F00302022A04D1BAF19F
:10137000000F01D11CBB0024CDE9004653460A22D0
:1013800049462846FFF7DCFEA2E73B681A1D19789C
:101390003A602846FFF7BCFE9AE70A230BF1010BDF
:1013A000B2FBF3F2C1E7A345D4D220212846013C89
:1013B000FFF7AEFECCE77107D5D52B21D0E7A345CB
:1013C000DAD230212846013CFFF7A2FED2E7396885
:1013D000CDE900460A1D3A6053460A220968D0E763
:1013E00039680A1D3A60CDE9004653461022F5E7F8
:1013F0003B681A1D3A6016F00106D3F8009028D118
:10140000B9F1000F03D0484601F08BFD0646B44207
:1014100000D904BB09F1FF3919F8011F00293FF475
:1014200057AF2846FFF774FEF6E728460136FFF768
:101430006FFE19F806100029F7D1A642BFF448AF95
:10144000002C3FF445AF20212846013CFFF760FE09
:10145000F3E70026EDE720212846013CFFF758FE80
:10146000D5E73B681A1D3A60302128461C68FFF713
:101470004FFE78212846FFF74BFE00220823CDE9D6
:101480000032214610227CE703B0BDE8F08F00BF98
:101490002DE9F84FB0F806A04579D2F800B09DF8D4
:1014A00028900AFB05F5043D88460BEB0301A94291
:1014B00003F1040488BFA5EB030BB4FBFAF607465F
:1014C0000AFB1644C2F800B04EB9AAEB04055D450C
:1014D00028BF5D46BBF1000F04D1BDE8F88F3F681F
:1014E000013EF1E7043408EB06003C442A46B9F11A
:1014F000000F0DD02146ABEB050B01F0C7FCDA4520
:101500002E443F6855464FF0000428BF5D46E1E792
:1015100001462046EFE7FFF796BDF8B5467901464C
:10152000721E0546002393422D6803D30024A64271
:1015300002D8F8BD0133F6E70F682846FFF7BAFD79
:1015400001343946F3E72DE9F843068BCD1C0746F5
:10155000FFF790FD043E35440446B5FBF6F5F0B1C7
:101560004FF48073EDB28380C680013D07608146F1
:101570004FF00008A84512D23846FFF77BFD06461B
:1015800048B163790133637108F10108C9F80000BB
:1015900007608146EEE72046FFF7BFFF344620464E
:1015A000BDE8F88301210430FFF72FBD10B50121FC
:1015B00004460430FFF735FD10F0FF0F04D120463C
:1015C000BDE81040FFF7A9BF10BD1FB50392002270
:1015D000009203AAFFF75CFF05B05DF804FB1FB59E
:1015E00003920122009203AAFFF752FF05B05DF8B3
:1015F00004FB836800225A60C3E904229A60DA601F
:101600001A6070471FB503788DF800304368019366
:1016100083688DF80830C368054A0393054B684614
:1016200053F8213052F82110984705B05DF804FBBB
:10163000D0060020D40600201FB503788DF80030B6
:101640004368019383688DF80830C368054A0393A3
:10165000054B684653F8213052F82110984705B0E1
:101660005DF804FBD0060020D4060020F0B5194B2D
:1016700090F800C091F81DE043F82C20164B164658
:101680000A6943F82C20154B03F80CE00C4607467A
:101690000FCC89B06D460FC594E80F0085E80F00A8
:1016A000CDF810C0BEF1000F09D0002E0C4A6946DB
:1016B00008BF3246381D00F097FB09B0F0BD002E80
:1016C000084A694608BF324607F10C0000F082F96B
:1016D000F3E700BFD4060020D0060020D806002083
:1016E0000516000039160000024AD2F80034002B1B
:1016F000FBD0704700E001400A4908B50223C1F859
:101700000435BFF36F8FBFF34F8FC1F80805FFF7A4
:10171000EBFF0023C1F80435BFF36F8FBFF34F8F8A
:1017200008BD00BF00E0014010B5094C0123C4F81A
:101730000435BFF36F8FBFF34F8F0160FFF7D4FF06
:101740000023C4F80435BFF36F8FBFF34F8F10BD74
:1017500000E0014000F18040002382B00360036894
:101760000193019B02B07047124B1B6810B573B117
:101770004FF48070FFF7EEFF4FF080430122C3F873
:1017800008230D4B587910B95A711B6898470B4BB9
:101790001B6873B14FF48270FFF7DCFF4FF080439A
:1017A0000222C3F80823044BBDE810401B68012047
:1017B000184710BD00010040DC0600200401004075
:1017C000014B1B68184700BFE406002038B50B4BDF
:1017D00098420C4601D0002038BD0020FFF7E4FB02
:1017E000074B1D7915B901221C601A710020FFF703
:1017F000DDFB002DEFD01120EEE700BF0020004000
:10180000E4060020034B984201BF034B00221A60FC
:101810001A71704700200040E40600200023435066
:1018200082B043580193019B02B070470A4610B53D
:101830004FF48E71FFF7F2FF136A9168C95C136A67
:1018400001331362C0F81C1510BD8B690A4610B530
:101850004FF4847123B9FFF7E1FFD0F8183510BDBC
:10186000FFF7DCFF536AD168D0F81805C854536AF3
:1018700001335362F3E700001FB501238DF80030F8
:10188000044BCDE90110D3E900126846904705B03A
:101890005DF804FBEC06002030B54C48D0F804336A
:1018A00013F4007F85B005464DD0D0F82431002BCD
:1018B00049D04FF49271FFF7B1FF4FF40173C0F8B4
:1018C0000833434B93F829200AB9012242603F496B
:1018D00002228DF80020D1F88024C1F880240392E0
:1018E0009A690292DA6801920022C3E906226846E8
:1018F000D3E9001290473548D0F81C315BB1344928
:101900004A690B6A9A420A464AD991F82830002B54
:1019100046D1FFF78BFF2D48D0F844318BB14FF4FF
:10192000A271FFF77BFF2A4B93F829200AB101220D
:1019300002609A692AB10022586AD9689A61FFF751
:101940009BFF05B030BDD5F804335B07D3D5D5F880
:101950000831002BCFD01E4C1C482146FFF775FFE5
:10196000636AA2699A422346C5D1E269E1684AB135
:101970002369E3600023606AA261E3616362FFF7A9
:101980007BFFB8E794F829200AB901226A600F4A60
:101990004FF40170C2F808030022586A9A61EEE71A
:1019A0000A484FF48E71FFF739FF5369002BB2D00C
:1019B00051690291002391688DF8003001915361C3
:1019C0006846D2E900139847A5E700BF0020004011
:1019D000EC0600202DE9F843544B057991462C2262
:1019E00002FB0532064692F82A200C469846002A49
:1019F00040F098804E490068FFF7E8FE074600284F
:101A000040F0928021683368481C0BD04FF0A04012
:101A100001228A40C0F8082501F5E0724FF0030C5E
:101A200040F822C06068421C1FBF00F5E0724FF012
:101A3000A04C4FF0000E4CF822E0A269C3F8242518
:101A400094F814C0627DBCF1010F4CEA0202C3F8A5
:101A50006C25C3F81405C3F80C151DD1A1684A1CE8
:101A60001FBF01F5E0724FF0A0404FF0000C40F8AE
:101A700022C0E268501C0BD04FF0A04C01209040D7
:101A8000CCF8080502F5E0704FF0030E4CF820E0AA
:101A9000C3F80825C3F810152C236B4308EB030289
:101AA000C2F80490226948F80320B9F1000F21D050
:101AB0003068247F4FF48E71FFF7B0FE4FF4A271AF
:101AC0003068FFF7ABFE32681A4BC2F80433110BD3
:101AD00042F307326301002ADBB21EDB164884188A
:101AE00084F800330123520901F01F0103FA01F1C8
:101AF00040F8221033680422C3F800252C2303FB8E
:101B000005830022C3E9062283F829205A610122B5
:101B100083F82A203846BDE8F883084A01F00F010F
:101B20005354E7E70827F5E71127F3E7EC06002011
:101B3000991800008000020000E100E014ED00E0D0
:101B4000F8B503680479304D0022C3F800252C2233
:101B500002FB04525268A2B12C4AC3F808231A0BA4
:101B600043F30733002B0CDB02F01F015B0901225A
:101B70008A402033264941F82320BFF34F8FBFF31B
:101B80006F8F0068D0F80C65D0F81415D0F80835C0
:101B9000D0F810254FF0FF37BE42C0F8147518BFBB
:101BA00006F5E076C0F80C75C0F80875C0F8107539
:101BB0001EBF4FF0A0474FF0020C47F826C04E1C46
:101BC0001FBF4FF0A04601F5E071022746F82170D3
:101BD000511C1FBF4FF0A04102F5E072022641F8F0
:101BE00022605A1C1FBF03F5E0734FF0A042022190
:101BF00042F82310FFF706FE2C2303FB04540023B6
:101C000084F82A306360F8BDEC06002084020200EC
:101C100000E100E02DE9F047204F90F804904FF0EC
:101C20002C0808FB097405466669002E34D16261F0
:101C30000068A16026624FF48E7184F82860FFF777
:101C4000EDFD2868012383602146FFF7EFFD6368FF
:101C5000A0468BB92868D4F814A0236A9A4511D8F5
:101C60002A68D2F81C31002BFBD00123D3602C232F
:101C700003FB097300225A613046BDE8F08794F8EF
:101C800028303BB9D0F81C31002BF8D04146FFF783
:101C9000CDFDE2E70F26EAE71126EDE7EC0600208E
:101CA0000023435082B043580193019B02B0704718
:101CB0001FB501238DF80030044BCDE90110D3E9A5
:101CC00000126846904705B05DF804FB1807002035
:101CD0007FB5434AD2F82461002E60D010464FF4FD
:101CE0009271FFF7DDFF02238DF80030D2F88034C7
:101CF000C2F880340393D2F83C350293394BDA684A
:101D000001920022C3E906226846D3E900129047F7
:101D10003348D0F8443173B14FF4A271FFF7C0FFDC
:101D2000304B9A693AB10022C3E90622D968D0F84B
:101D30003C05FFF7BDFF2A48D0F82031ABB14FF486
:101D40009071FFF7ADFF0123C360264B5A6962B162
:101D5000D0F84C150291002299688DF8002001916D
:101D60005A616846D3E9001290471D48D0F85831AF
:101D70009BB14FF4AC71FFF793FF1A4B5A6962B1F4
:101D8000D0F84C150291002299688DF8002001913D
:101D90005A616846D3E90012904704B070BDD2F88A
:101DA0001031002BB4D04FF488711046FFF778FF44
:101DB0000C4BD2F83C0599698842A9D1DC69D968F5
:101DC00064B1D2F8005225F02005C2F800521A6919
:101DD0009C61DA60DE61FFF76BFF99E79C61FAE7CF
:101DE00000200040180700202DE9F8435B4B0679DE
:101DF0009146242202FB0632044692F820200D462A
:101E00009846002A40F0A58055490068FFF7DEFC9F
:101E10000746002840F09F8029682368481C0BD0A3
:101E20004FF0A04001228A40C0F8082501F5E07279
:101E30004FF0030C40F822C06868421C1FBF00F539
:101E4000E0724FF0A04C4FF0000E4CF822E0AA696F
:101E5000C3F8242595F814C06A7DBCF1010F4CEA43
:101E60000202C3F86C25C3F80C15C3F814051DD184
:101E7000A9684A1C1FBF01F5E0724FF0A0404FF067
:101E8000000C40F822C0EA68501C0BD04FF0A04C68
:101E900001209040CCF8080502F5E0704FF0030EE9
:101EA0004CF820E0C3F80825C3F810152423734329
:101EB00008EB0302C2F804902A6948F80320B9F13C
:101EC000000F30D020682A7F4FF48871FFF7E8FEBA
:101ED00020684FF49071FFF7E3FE20684FF4927191
:101EE000FFF7DEFE20684FF4A271FFF7D9FE4FF432
:101EF000AC712068FFF7D4FE23681A49C3F80413B5
:101F0000190B43F307335201002BD2B21CDB1648E6
:101F1000C51885F8002301225B0901F01F0102FAB0
:101F200001F140F8231023680822C3F80025242378
:101F300003FB06830022C3E906225A61012283F8CB
:101F400020203846BDE8F883084B01F00F015A54B1
:101F5000E9E70827F5E71127F3E700BF1807002096
:101F6000D11C00001003420000E100E014ED00E08D
:101F7000F8B5444D0479242303FB045302465B68FF
:101F80000068ABB1404BC0F8083340F30733002B77
:101F90004FEA10310CDB01F01F065B090121B14053
:101FA00020333A4E46F82310BFF34F8FBFF36F8FA5
:101FB000D0F8003223F02003C0F80032242303FBC2
:101FC00004539B692BB14FF4A271FFF769FE012303
:101FD00043604FF4AC71FFF763FE0123C360242319
:101FE00003FB0453D0F858110029FBD0996919B1AB
:101FF000D0F844110029F5D00023C0F8003513684B
:10200000D3F80C75D3F81465D3F80825D3F8101558
:102010004FF0FF3C6745C3F80CC518BF07F5E077E4
:10202000C3F814C5C3F808C5C3F810C51EBF4FF0E8
:10203000A0434FF0020C43F827C0771C1FBF4FF09E
:10204000A04306F5E076022743F826704E1C1FBF1A
:1020500001F5E0714FF0A043022643F82160531CC4
:102060001FBF4FF0A04302F5E072022143F8221097
:10207000FFF7C8FB242303FB0454002384F820301B
:102080006360F8BD180700201003420000E100E083
:1020900001F06043B3F1005F2DE9F041064638D10D
:1020A0001E4B0779242505FB073598466C69002CE3
:1020B00031D16A610068A9604FF49071FFF7F0FDBB
:1020C0004FF4AC713068FFF7EBFD33686A69A968BB
:1020D000C3F84415C3F8482501229A606A68AAB972
:1020E000D3F82021D3F858411AB9002CF8D00F2486
:1020F00007E0002CFBD10122DA60D3F85821002A36
:10210000FBD0242303FB078700237B612046BDE827
:10211000F0811024FAE71124F8E700BF1807002027
:1021200000F1804000F5E040002382B003600368C6
:102130000193019B02B07047F0B5504B504C1B68A7
:1021400085B0002B3DD04FF4827094F82E20FFF71D
:10215000E7FF2AB394F82F3013BB4A4B1B68002BC0
:1021600033D04FF48070FFF7DBFF638B94F82D10B2
:102170008B424FD922895B1A9BB292B26383D31AE6
:10218000626802EB4303404AC2F82C36C2F83016AC
:102190004FF48270FFF7C4FF3C4B01221A6014E039
:1021A000636802932389ADF80C30E36800218DF851
:1021B000041023BB2374236801A89847002384F8E4
:1021C0002F3094F82E30002BC7D1314B1B685BB1F8
:1021D0004FF48870FFF7A4FF0023237402238DF8C7
:1021E000043001A8236898472A4B1B68EBB14FF4D1
:1021F0008A70FFF795FF0023237405B0F0BD208B94
:10220000608363602081E160002AD4D11E4B0122EB
:102210001A60D0E7BCD1E368012284F82F2013B103
:1022200000226283AFE76383B2E766694FF000473D
:102230000125002EE1D0B6FA86F227FA02F34632E3
:10224000920026EA030602F1804303F5E0431B688F
:10225000002BEED01046FFF763FFA2F58C72D30877
:1022600082F00402C2F380028DF808308DF8045029
:1022700023688DF8092001A89847DAE70471004027
:102280003C070020007100400070004004700040D6
:10229000107100401471004038B5204A92F82C307B
:1022A0000446002B37D111601D490078C1F8F005B4
:1022B0006078C1F8F4050125137482F82D3053615C
:1022C00082F82F30E07882F82E006FF0004382F819
:1022D0002C504FF48270C1F80833FFF721FF4FF400
:1022E0008070FFF71DFF4FF48A70FFF719FFA37886
:1022F0000C485B01DBB280F80733802303600223C4
:10230000C1F8043392F82E300BB1C1F80453C1F870
:102310000055002038BD0820FCE700BF3C07002026
:102320000070004000E100E070B52A4B1A7C02F01A
:10233000FF05002A4BD10A79012A9CBF264CC4F81C
:10234000005500F10C0503EB4504247924B993F8FA
:102350002D40013483F82D4003EB4503CC790D7AF1
:102360008E781C715D714B7836021B0106F4E066B5
:1023700003F0300333430E7806F003063343CE7880
:10238000360306F480563343160406F4E02633433E
:102390004E798979360506F480160906334301F033
:1023A00080710B430C4901EB0016000100F18040E5
:1023B00000F5E040012AC6F81835C0F81455C0F8F9
:1023C000104502D80123C1F80035002000E011209B
:1023D00070BD00BF3C0700200070004070B5344A5B
:1023E000147C04F0FF03002C5FD1324C012503263E
:1023F0001574C4F80863C4F82C16C4F8305692F863
:102400002D10A9420CD91C46190101F1804101F59A
:10241000E0410133082BC1F81445C1F81045F3D150
:1024200000F10C03000102EB430300F1804000F5D2
:10243000E04019795B79C0F81435C0F810151D49D2
:1024400001230B604B6042F2107301F58271086842
:1024500008B9013BFBD14FF48070FFF761FE4FF4E8
:102460008270FFF75DFE92F82D30012B11D91048D4
:1024700000210B0103F1804303F5E0430131047FA8
:10248000457FC3F814550829C3F8104500F1020030
:10249000EFD192F82E10074B29B103210020C3F889
:1024A0000413107470BD0221F8E71120FAE700BF91
:1024B0003C070020007000402DE9F341104C114F03
:1024C000114E00254FF48038236883B1D7F80433C8
:1024D00008FA05F21A420AD0002323602368019308
:1024E000A4F50040019B80B2D6E900319847013540
:1024F000042D04F10404E7D102B0BDE8F08100BF6F
:1025000040810040008000406C07002070470000C0
:102510001FB50C4A10685168127A01AB03C30A490F
:102520000A481A70FFF7B8FE08B1FEF7D9FC01A9F6
:102530000020FFF7F9FE08B1FEF7D2FC05B05DF808
:1025400004FB00BF153500000D2500001E350000FE
:102550000F4B01221A60D3F80021002AFBD0002281
:10256000C3F80021D3F80825D3F80835920544BFF5
:102570006FEA83536FEA9353002BB8BF03339B106A
:10258000034A00EE103A0121B8EEC00A51607047CC
:1025900000C0004010B52DED028B4FF4FE20B0EED0
:1025A000408A84B0FFF7A8F8FCEEC87A254C17EEF5
:1025B000901A4FF4FE20FFF7B7F86288022A3BD941
:1025C0002148224BC01AC008B5EEC08A0004F1EEC3
:1025D00010FA40F0030033D5FFEE007AB4EEE78A3C
:1025E000F1EE10FA2CDD1A4A1A490390BDEEC87AB2
:1025F000B5EEC08AF8EEC77AF1EE10FACCBF38EE2D
:10260000670A37EEC80ADFED147A20EE270A17EEC4
:10261000103ABDEEC00A8DED000AFEF7E1FA6388BC
:10262000022B09D9002300934FF4FE230B4A1B68A9
:102630000B490398FEF7D4FA04B0BDEC028B10BD31
:10264000064AD1E71C000020BC2F0000842F0000A8
:10265000B3340000B53400000000C8429B330000D2
:10266000CE340000000000002DE9F0472DED028B74
:1026700084B0FFF74DFF444B002018604FF48041B9
:10268000FEF798F808B1FEF72BFCFDF7B1FF3F4CC1
:102690003F4B404DDFF81491E41AE40838A7D7E91E
:1026A0000067240444F003044FF0000845F00105DE
:1026B0000DF10E010020FFF791FEBDF90E00DFF8CD
:1026C000F0A000F02BFB32463B4600F08BFA4B4665
:1026D000424600F087FA00F035FBBAF80230022BD0
:1026E00008EE100A27D9B5EEC08AF1EE10FA3CD5F3
:1026F000FFEE007AB4EEE78AF1EE10FA35DD264AF5
:10270000DFED266A2649BDEEC87AB5EEC08AF8EE3E
:10271000C77AF1EE10FACCBF78EE677A77EEC87A16
:1027200017EE103A67EEA67A2046FDEEE77ACDED79
:10273000007AFEF755FAF0EE047AB4EEE78AF1EE8D
:1027400010FA14DDFFF704FFFFF702FFFFF722FF87
:1027500041F2883A4FF47A40A847BAF1010AF9D118
:10276000FEF7D4F80028FBD1A2E70E4AC8E7BAF872
:102770000230022BECD90C492046FEF72DFAE7E790
:10278000CDCCCCCCCCCC0C4004C50040BC2F000040
:10279000842F000030350000B33400000000C84230
:1027A000F33400009B330000063500000000503F6A
:1027B0001C0000200369C1688B429DBF8268D2184B
:1027C00002F1FF3203F1FF3394BF501A581A7047D9
:1027D0002DE9F843D0E902940546A9EB04084068C6
:1027E000904520440F46144404D900F04FFBEC60A0
:1027F000BDE8F8834246A4EB090400F047FB686893
:10280000224607EB0801F0E72DE9F843C5680646C4
:10281000894617464FF000083469B3687068A542CE
:1028200028BFE418013C621B5C1BBC4228BF3C462D
:10283000944228BF144649462844224600F026FB0D
:10284000B3682544AB4208BF00253F1BA044A14408
:10285000F560E1D14046BDE8F883000010B5114CA9
:10286000114AA2610223C4E90433104BE361A2645C
:102870004FF400730E4A0F492362E26400231022D2
:10288000E01DA3626362E362A3656365E36522659D
:1028900000F025FB0849204600F021FB2023A3710E
:1028A00010BD00BF7807002036350000000800206A
:1028B000F00700203F35000043350000F8B5184C04
:1028C000182300FB033503FB00402544C46A012C98
:1028D0000F4616460FD0022C1AD0F4B92846FFF73F
:1028E00069FF864205D8324639462846FFF770FF11
:1028F00034462046F8BD2846FFF75CFF8642344642
:1029000028BF0446224639462846FFF761FFF0E714
:102910002846BDE8F840FFF777BF0024E9E700BF8D
:1029200078070020FFF79ABF044B1868421C04BFC9
:10293000034B1878831F58425841704730010010EC
:10294000E00F00F0074B1B78062B09D1064B1B68E4
:10295000C3F30313033B032B02D8044AD05C704734
:1029600000207047E00F00F0E80F00F05235000043
:1029700008B5FFF7D9FF28B1834B844A1B68C3F31E
:1029800004231360FFF7DEFF10B1814B814A1A6008
:10299000FFF7CAFF28B1804B804A1B68C3F342335C
:1029A0001360FFF7CFFF20B17D4AD36823F0807317
:1029B000D360FFF7B9FF40B14FF080430022C3F866
:1029C0000C21C3F81021C3F83825FFF7BBFF10B165
:1029D000744B03221A60FFF7B5FF40B1724B05221A
:1029E0001A6001229A6700229A603F225A606F4B58
:1029F0001A68511C0BBF6E4B6E4B1A781B6802BFD6
:102A000008331B68C3F30313062A4DD1033B032B82
:102A100003D8694AD35C002B46D04FF08052674BF5
:102A2000D2F80414C3F82015D2F80814C3F82415FA
:102A3000D2F80C14C3F82815D2F81014C3F82C15CA
:102A4000D2F81414C3F83015D2F81814C3F834159A
:102A5000D2F81C14C3F84015D2F82014C3F844155A
:102A6000D2F82414C3F84815D2F82814C3F84C152A
:102A7000D2F82C14C3F85015D2F83014C3F85415FA
:102A8000D2F83414C3F86015D2F83814C3F86415BA
:102A9000D2F83C14C3F86815D2F84014C3F86C158A
:102AA000D2F84424C3F87025FFF73EFF28B1444B09
:102AB000444A1B6803F04F031360FFF735FF48B12A
:102AC0004FF08043D3F80024D20744BF6FF00102D7
:102AD000C3F80024354B1B68062B0CD1354B1B6803
:102AE000033B032B02D8384AD35C23B1374A13681F
:102AF00043F480631360364AD2F8883043F470039D
:102B0000C2F88830BFF34F8FBFF36F8F4FF01023A1
:102B1000D3F80022002A03DBD3F80432002B2FDA8B
:102B20002C4B0122C3F80425D3F80024002AFBD043
:102B30004FF010221521C2F80012D3F80024002A09
:102B4000FBD04FF010231522C3F80422214B1A4664
:102B5000D3F800140029FBD00021C3F80415D2F8E3
:102B60000034002BFBD0BFF34F8F19491A4BCA68B2
:102B700002F4E0621343CB60BFF34F8F00BFFDE769
:102B8000164B174A1A6008BD240300104035014057
:102B900074C007400DF0ADBA440200103C0500407F
:102BA000F0ED00E0A005004010560040300100109C
:102BB000E00F00F0340100104A35000000C0004072
:102BC00058020010E40E00404E3500003C17004053
:102BD00000ED00E000E001400400FA059C00002048
:102BE0000090D003F0B540F2FF7681EA030C16EABC
:102BF000115E1EBFB64516EA1355B5425AD021EAFA
:102C0000465141F48011A1FB024723EA465343F4A5
:102C10008013AE44A0FB03650CF0004C36197D41D7
:102C2000A1FB034747F10003A0FB0217F61965411A
:102C300053F10003094218BF46F0010640F2FE744A
:102C4000B3F5007F13D2AEF5806EA6452BD24CEAC9
:102C50000331280341EA155140EA16503203450872
:102C600072F1004250F1000051EB0E51F0BDAEF296
:102C7000FF3EA64517D24CEAC321E80241EA55516E
:102C800040EA5650F202450872F1004250F100004D
:102C900051EB0E51F0BD0CF0004141F0FE4141F40A
:102CA00070010020F0BD1EEA0E0FF4D50CF00041BB
:102CB0000020F0BD16EA115F04BF01F000410020C2
:102CC000004218BF41F0010116EA135F04BF03F090
:102CD00000430022124218BF43F0010306EA1354D6
:102CE000B44218BF9EEA060F03D00CF0004100204A
:102CF000F0BD21F0004123F00043B1EB065F06D8A0
:102D0000B3EB065F03D8002918BF002BC3D140F2F4
:102D10000001C7F6F8710020F0BD00BF80B110F0CF
:102D2000004248BFD0F10000120D02F21D42B0FA7D
:102D300080F18840521AC30A400503EB02517047E4
:102D40000100704701F000428B1AA3F16051B1F508
:102D5000801F0ADBB1F17F6F09D242EAC102C100D4
:102D600071F1004142EB50707047104670470128E6
:102D70005B4113F5001F04D842F0FE4040F4000010
:102D80007047C90041EA507040EA020040F48000F8
:102D900040F08040704700BF7F2805D8034B185C87
:102DA000034B5B5C1840704700207047643500009F
:102DB000E4350000A0F16103192B98BF203870475B
:102DC000A0F14103192B98BF203070477F2805D808
:102DD000034B185C034B5B5C184070470020704746
:102DE00064350000E4350000A0F16103192B98BFA1
:102DF00020387047A0F14103192B98BF203070474D
:102E00007F299ABF017001206FF02E0070475AB1E0
:102E10000A787F2A0AD800B102600021196059603F
:102E2000501A18BF01207047002070476FF02E0025
:102E30007047000008B5034B5B689B681B689847A8
:102E400008BD00BFA000002008B50921FFF7F2FF70
:102E500008BDCAB170B41446012A10D00A46034610
:102E60002044461E1146184613F8014B3CB101326E
:102E70000D78A54203D1184611469E42F2D1007842
:102E80000B78C01A70BC704700207047844640EA37
:102E9000010313F0030F18D18446202A0BD32DE928
:102EA000F007B1E8F807A0E8F807A2F12002202A0D
:102EB000F7D2BDE8F007042A07D351F8043B40F8E5
:102EC000043BA2F10402042AF7D2002A05D011F82B
:102ED000013B00F8013B013AF9D1604670470246D8
:102EE00010F0030F16D111F0030F13D12DE9F000EC
:102EF0004FF001374FF0803351F8044BA4EB070536
:102F000025EA04051D4002D142F8044BF4E7A1F183
:102F10000401F0BC11F8013B02F8013B002BF9D190
:102F2000704700F1010110F0030F11D010F8012BD0
:102F3000002A23D010F0030F0AD010F8012B002A2A
:102F40001CD010F0030F03D010F8012B002A15D06D
:102F50002DE970004FF001324FF0803350F8044BF0
:102F6000A4EB020525EA04051D4000D1F6E7A0F117
:102F7000040070BC10F8012B002AFBD1A0EB01006B
:022F8000704798
:102F84008E34000000000000A334000000000000A4
:102F94009434000000000000A7340000000000008A
:102FA400AD34000000000000983400000000000070
:102FB4009D340000000000004F33000000000303B4
:102FC40053340000000000004134000000000003FE
:102FD40053330000000000035D34000000000000D3
:102FE4008834000000000000763400000000000077
:082FF4007F3400000000000022
:102FFC00B830000000000000013100008C000020FF
:10300C00E430000000000000F030000094000020CC
:10301C00380100200002002008020020400100209E
:0C302C00280000205A33000018000000AB
:103038000000000000000000000000000000000088
:103048000000000000000000000000000000000078
:103058000000000000000000000000000000000068
:0C3068000000000000000000000000005C
:10307400000000000000000000000000000000004C
:10308400000000000000000000000000000000003C
:10309400000000000000000000000000000000002C
:0C30A40000000000000000000000000020
:1030B0000338FDD870470000D5030000410400002C
:1030C000D1030000FFFFFFFFFFFFFFFFFFFFFFFF38
:1030D000FFFFFFFF00000000000000000000D6011D
:1030E000060100000D050000C105000009050000F3
:1030F000756172745F6C6F675F6261636B656E644C
:10310000007274745F6C6F675F6261636B656E649D
:10311000004261636B656E647320666C75736865ED
:1031200064006C6F6700436F6D6D616E6473206641
:103130006F7220636F6E74726F6C6C696E67206C57
:103140006F67676572004C6F6767657220626163C5
:103150006B656E647320636F6D6D616E64732E00BA
:10316000636F6E666967004D616E616765206C6FA5
:103170006767657220636F6E6669677572617469EF
:103180006F6E00276C6F672064697361626C6520E5
:103190003C6D6F64756C655F303E202E2E203C6D5B
:1031A0006F64756C655F6E3E272064697361626C45
:1031B0006573206C6F677320696E20737065636937
:1031C00066696564206D6F64756C65732028616C39
:1031D0006C206966206E6F206D6F64756C6573205E
:1031E000737065636966696564292E00276C6F6773
:1031F00020656E61626C65203C6C6576656C3E2076
:103200003C6D6F64756C655F303E202E2E2E202045
:103210003C6D6F64756C655F6E3E2720656E616204
:103220006C6573206C6F677320757020746F2067F6
:103230006976656E206C6576656C20696E207370AA
:1032400065636966696564206D6F64756C6573207C
:1032500028616C6C206966206E6F206D6F64756CE0
:10326000657320737065636966696564292E0067FC
:103270006F00526573756D65206C6F6767696E6767
:103280000068616C740048616C74206C6F676769DA
:103290006E67006C6973745F6261636B656E647303
:1032A000004C69737473206C6F676765722062618C
:1032B000636B656E64732E004C6F67676572207375
:1032C0007461747573006C6F6164004C6F6164208D
:1032D000636F6E66696775726174696F6E2073746F
:1032E0006F72656420696E206E6F6E2D766F6C61F3
:1032F00074696C65206D656D6F72792E0073746FE3
:1033000072650053746F72652063757272656E74B6
:1033100020636F6E66696775726174696F6E20698C
:103320006E206E6F6E2D766F6C6174696C65206DAA
:10333000656D6F72792E00646562756700696E66EF
:103340006F006E6F6E65007761726E696E67006107
:1033500070700062616C6C6F632E6C6F675F6D657F
:103360006D706F6F6C000000280600207F00000069
:10337000A80600201B5B306D002573001B5B313BF2
:1033800033316D0025734C6F67732064726F7070FA
:103390006564202825642925730D0A003C25733EA9
:1033A0002025733A2000202530327800202020008C
:1033B0007C002563001B5B313B33306D001B5B31B0
:1033C0003B33326D001B5B313B33336D001B5B3194
:1033D0003B33346D001B5B313B33356D001B5B3180
:1033E0003B33366D001B5B313B33376D0000000013
:1033F00074330000B53300007C330000BD3300009F
:10340000C5330000CD330000D5330000DD330000AC
:10341000E5330000000000002E34000047330000B8
:103420003D33000037330000466174616C206572E3
:10343000726F720053797374656D20726573657471
:103440000061746669666F2E6D5F7265715F666993
:10345000666F006170705F74696D657200636C699E
:103460005F75617274003031323334353637383934
:103470004142434445467077725F6D676D740073D7
:103480006F72746C69737400636C6F636B00434C90
:103490004F434B0050525300554152540055415236
:1034A0005445005050490053414144430054494D54
:1034B0004552002D0054656D7065726174757265BA
:1034C0003A20257325642E25303264200A00446199
:1034D000746120726561642066726F6D20666C6134
:1034E00073682069733A20257325642E2530326471
:1034F000200A00566F6C74733A20257325642E25BC
:10350000303264200A004E6F7420706F73736962EA
:103510006C65210A000000000002000009000100A3
:103520000600000000000000000000000000000095
:103530000338FDD870475465726D696E616C005236
:103540005454005345474745520000000101000014
:10355000000101000000000043000000504F5349EB
:10356000580000002020202020202020206828282B
:10357000282820202020202020202020202020203B
:1035800020202020481010101010101010101010C3
:1035900010101010848484848484848484841010A3
:1035A00010101010108181818181810101010101C0
:1035B00001010101010101010101010101010110EC
:1035C0001010101010828282828282020202020295
:1035D00002020202020202020202020202020210BD
:1035E0001010102000070320041702010857104094
:1035F00080000000583500005C3600007037000085
:1036000053756E004D6F6E0054756500576564000C
:103610005468750046726900536174000000000030
:103620004A616E00466562004D6172004170720031
:103630004D6179004A756E004A756C0041756700EE
:10364000536570004F6374004E6F760044656300ED
:1036500000000000414D00504D0000009437000074
:10366000903700009037000090370000903700003E
:10367000903700009037000090370000903700002E
:1036800090370000FFFFFFFFFFFFFFFFFFFFFFFF7F
:10369000FFFF0000D0360000003600000C370000AD
:1036A0002036000054360000B436000064370000B5
:1036B000C0360000256D2F25642F257900000000FD
:1036C00025612025622025652025542025590000EC
:1036D00053756E646179004D6F6E64617900547545
:1036E0006573646179005765646E65736461790020
:1036F0005468757273646179004672696461790017
:103700005361747572646179000000004A616E75DE
:10371000617279004665627275617279004D6172FD
:10372000636800417072696C004D6179004A756E82
:1037300065004A756C79004175677573740053654F
:103740007074656D626572004F63746F62657200BC
:103750004E6F76656D62657200446563656D626586
:103760007200000025483A254D3A2553000000001C
:10377000992D0000B52D0000C12D0000CD2D0000B9
:10378000E92D0000F52D0000012E00000F2E000095
:06379000000000002E0005
:103798000000000000200040000000000020004061
:1037A8000000000000000000FF0000000000000012
:1037B800FF0000000090D003F4350000F43500004D
:0C37C800F4350000F4350000F43500007A
:040000030000037581
:00000001FF
