:1000000000000120750300005D0300005F03000095
:1000100061030000630300006503000000000000AE
:100020000000000000000000000000006703000066
:1000300069030000000000006B0300006D03000076
:10004000F91700006F0300005D1800006F03000047
:100050006F0300006F0300006F030000A521000084
:100060001D2500006F0300006F0300006F030000F8
:100070006F0300006F0300006F0300006F030000B8
:100080006F030000151000006F0300006F030000F5
:100090006F0300006F0300006F0300006F03000098
:1000A0006F0300006F0300006F0300006F03000088
:1000B0006F0300006F03000000000000000000005C
:1000C0006F0300006F0300006F0300006F03000068
:1000D0006F0300006F0300006F03000000000000CA
:1000E0000000000000000000000000000000000010
:1000F0000000000000000000000000000000000000
:1001000000000000000000000000000000000000EF
:1001100000000000000000000000000000000000DF
:1001200000000000000000000000000000000000CF
:1001300000000000000000000000000000000000BF
:1001400000000000000000000000000000000000AF
:10015000000000000000000000000000000000009F
:10016000000000000000000000000000000000008F
:10017000000000000000000000000000000000007F
:10018000000000000000000000000000000000006F
:10019000000000000000000000000000000000005F
:1001A000000000000000000000000000000000004F
:1001B000000000000000000000000000000000003F
:1001C000000000000000000000000000000000002F
:1001D000000000000000000000000000000000001F
:1001E000000000000000000000000000000000000F
:1001F00000000000000000000000000000000000FF
:10020000354936480A1A02D0072291438D463449AF
:1002100034480A1A06D00722914381F30988022242
:1002200082F3148830483149314A00F044F83148AB
:100230003149324A00F03FF831483249324A00F041
:100240003AF832483249334A00F035F832483349F7
:10025000334A00F030F833483349344A00F02BF881
:1002600033483449344A00F026F8344834490022EF
:1002700000F02CF833483449002200F027F83348C6
:100280003349091A082902DB002202604160314A21
:1002900090471F481F49884205D00268043003B4C4
:1002A000904703BCF7E700208646EC46002000217B
:1002B000294A9047FEE7884207D0521A05D00378B2
:1002C00001300B700131013AF9D17047884202D0F8
:1002D00002700130FAE770470000012000E00020C2
:1002E00000000120000001209C3B0000780000205D
:1002F000B4000020D0030000D0030000AA320000A8
:100300009C3B00007800002078000020D8330000DB
:10031000D8330000D8330000D8330000D8330000B1
:10032000D8330000D8330000D83300009A3B0000D7
:10033000D83B0000B4000020B4000020B40000202E
:10034000040A0020040A0020040A0020040A0020F5
:10035000042A00209D03000079280000FEE7FEE744
:10036000FEE7FEE7FEE7FEE7FEE7FEE7FEE7FEE765
:1003700000F002B8FFF7FCBF0F484FF007018843B9
:1003800085460E4880470E48016841F470010160BF
:10039000BFF34F8FBFF36F8FFFF732BF09480A4992
:1003A0000A4A884207D0521A05D0037801300B70F0
:1003B0000131013AF9D1704700000120B12C000051
:1003C00088ED00E06033000000000020780000208D
:1003D0007047000007B5044B0093044A402300F027
:1003E00032F803B05DF804FBF1030000B500002013
:1003F0002DE9F84388461446B2B10F4B0F4E032542
:10040000002743F00109224608EB0701002002F013
:10041000DFFB0744241A48B933782BB14FF47A40F4
:10042000C847013D02D13570BDE8F8830123337020
:10043000002CE8D1F8E700BFE0330000B400002052
:10044000704702F0F9BBF0B595B01D461646084658
:100450000C4601F0D9F81A9B0D93CDE908650025EB
:100460002B46082205A920460A958DF82C500C959C
:1004700001F0E7F8079B0293069B03939DF8143065
:100480008DF8115003F00302012A1DD1BDF814208C
:10049000059DC3F3C203C2F383168DF81030B2007A
:1004A00008230EA9204601F0CCF8C5F3952508AB2A
:1004B0000093324602AB0EA9284600F083FC20468A
:1004C00001F0A6F815B0F0BD022AF8D1BDF816501B
:1004D000C3F3C203C5F389158DF810300827082D22
:1004E0002E4628BF08263B4632460EA9204601F07C
:1004F000A8F8AD1B08AB02AA31460EA8374400F09D
:10050000C5FC002DEBD1DAE77047000007B5044BBE
:100510000093044A4023FFF796FF03B05DF804FB05
:1005200079050000F600002030B5104D0FCD89B0E0
:100530006C460FC495E80F0084E80F004FF0FF33BE
:100540000622CDE90023CDE9023309484FF0EB73D1
:1005500000226946069301F0BBF808B100F0F2FCF6
:10056000044B00221A7009B030BD00BFF433000004
:1005700078000020F500002038B50D4B0D4D00200F
:1005800018700D4804782D5DD2B21C4665B1043058
:1005900001F0B4FD08B100F0D5FC084B1A7812B197
:1005A0002378002BFBD038BD0C3001F07FFBF1E746
:1005B00036010020DC06002078000020F500002035
:1005C00008B50848084A0378D35C33B1043001F019
:1005D0001FFDBDE80840FFF7A7BF0C3001F004FB8A
:1005E000F7E700BF78000020DC060020FFF79CBF83
:1005F00038B50A4DFFF725FF0421284600F02CFBF3
:10060000074B01245C71FFF7F1FF042105F1100095
:1006100000F022FB034B5C7138BD00BF24330000A7
:100620008C00002094000020037813F0040216D000
:1006300003F00303012B03D0022B09D001207047E4
:100640000A6800880232C0F3831002440A60F5E7AA
:100650000B684288023303EB92130B60EEE71046FF
:10066000704700002DE9F04F044685B0861C00203D
:100670000F46154600F0CAFC454801683960D0E9CC
:100680000132134401335B1A824600F21C4700F525
:10069000836900F21448B3421BD30020002D72D0AE
:1006A00004F00F039B0143F0050363F30F00DAF836
:1006B0000020DAF808301340033316444AF82300C8
:1006C0000020CAF8006000F0A3FC012005B0BDE8DE
:1006D000F08F0121384600F0CAFC484600F0DFFCEC
:1006E000404600F0DCFCDAF80400DAF808B00090CC
:1006F00000EA0B0003300AEB80006946FFF794FF25
:10070000009B50BB0BEA03020AEB820203F1020CCE
:10071000D2680192013303EA0B0B0AEB8B0B02F058
:100720000302012ADBF80C10CDF800C023D0022A06
:1007300016D08346404600F0B5FC10B1009BCAF8C5
:1007400004305946384600F092FCDAE9012313449C
:10075000DAF8002001339B1A9DE70BEA0300C9E792
:10076000BDF80630C3F3891303334FEA114B0CEB8A
:1007700093030093DEE7BDF80430C3F383134FEA1D
:10078000114B6344F5E7A40544F006008FE700BF72
:100790000802002030B50A4B0A4A0B49D21AD20887
:1007A00000239A4201D1052006E031F82350046865
:1007B000A54202D10360002030BD0133F1E700BF44
:1007C000AC32000024330000000000202DE9F84F77
:1007D000224B2348FF229A600022C3F81824C3E961
:1007E0000022C3F81424012283F8202400F0C5FE5F
:1007F000814688B91B481C4E1C4CDFF87CA000F0D9
:100800002AFFA41BE4084D46A54208D10023184A3C
:1008100018481946A3421BD14846BDE8F88F4FF04F
:100820000008474606EBC50BBD420AD056F8371004
:10083000DBF80000142202F0A0FC0028C8BF08F179
:1008400001080137BC42EFD12AF825800135DBE7EA
:1008500020F8231042F8041B0133DBE708020020D4
:100860004433000098360000AC320000243300000E
:100870003C000020020000200000002007B501908D
:1008800031B9019A064B53F8320003B05DF804FB0E
:1008900001A8FFF77FFF0028F3D00020F5E700BF95
:1008A000AC320000094B013903EBC000032909D821
:1008B000DFE801F00A02040604207047007970475F
:1008C000407970470020704702207047AC3200002A
:1008D00030B5124C00EB400054F8215002FA00F3FE
:1008E000072202FA00F06B400D4A03406B40C3F34D
:1008F000821044F8213002EB8101C3F3C20282422C
:1009000038BF0246C3F34220824203F0070338BFD8
:100910000246934238BF13464B8030BD3C00002056
:1009200000000020034BD3E90030C31A584258415D
:10093000704700BF080200202DE9FF47FFF7F2FFD4
:100940000646002840F01A818D4DC5F81804BFF303
:100950004F8F6B68AC6800932340033305EB830033
:100960006946FFF761FE009B18B1D5F81824002AEC
:1009700069D004EA0302991C013305EB820223408B
:1009800005EB8303D268DB68029302F00303022BBA
:10099000019200916AD1BDF806307A489DF8046052
:1009A000C3F38918B8F1500FC14628BF4FF0500962
:1009B00069F38F1309F10801ADF8063000F0F5FD79
:1009C000C6F3C2060746002800F0BF8000F01CFEF8
:1009D0000023082201A9384600F029FE009924EAE4
:1009E00001020132B9EB820F4FEA820337D95FFA75
:1009F00089F983B32140DCB2A9EB040903315FFA22
:100A000089FAA146604C05EB810108234A46384625
:100A100000F00DFE34B109F1080352462146384674
:100A200000F005FE009B08F1030803EB9803009318
:100A3000D5F81834002B52D1D5F81044DFF85C916A
:100A40004FF0070870E02A689A4285D86A603046FD
:100A500004B0BDE8F0874C491C469A46D5E70C40E7
:100A6000E11C08234A4605EB8101D8E7012B6CD134
:100A7000BDF804604348C6F38311062928BF062148
:100A800061F3891602318900ADF8046000F08DFD34
:100A9000C6F3C2060746002857D000F0B5FD002374
:100AA000082201A9384600F0C2FD4FF00008BDF849
:100AB0000420C2F383124FEA8803904503F1080330
:100AC000B6D200994A1C21400331009205EB810106
:100AD0000422384600F0ABFD08F10108E7E738468C
:100AE00000F096FDFFF71EFF80F00100C6B2AEE7F2
:100AF000E3685A79B2B11B79BDF8081003EB4302E1
:100B000059F8211008FA02F3052E03EA010323FA2B
:100B100002F308BF0326B34204D3236839461B6897
:100B200020469847E3681C68002CE1D1384600F065
:100B30006FFD204600F06AFAD5F818340BB9009B17
:100B40006B60002000F064FACCE7D5F8104474B96B
:100B50000E4B5B88012BC5D90D4B0E480E49C01AB0
:100B6000C008000440F0020000F066F8BAE723680D
:100B700020469B689847E3681C68E8E7002666E71C
:100B80000802002044330000140200201C00002052
:100B9000AC320000E4320000413400003C00002090
:100BA0002DE9F74F224D04460F46924601A9012236
:100BB0001846D5F808909B46FFF754FD20B3019ED8
:100BC0004FF00008B21CD84508EB020126D11948A5
:100BD000002100F029FA80F31000000440EA1440DC
:100BE000E400731C04F0380403EA090306EA09066A
:100BF00044F0010405EB8303033644EA881444EA15
:100C00008724D86045F8264095F820341BB1FFF7BB
:100C100093FE0028FBD103B0BDE8F08F09EA010183
:100C200005EB81015AF82830CB6008F10108CAE7CA
:100C3000080200202406002000231A46FFF7B0BF58
:100C40001FB5CDE90123069B039301AA0323FFF7F8
:100C5000A7FF05B05DF804FB1C4A2DE9F843D2F864
:100C60001034054688460024194689B9E9680C7194
:100C7000A3B9C2F810540B60154B164EF61AF608BD
:100C8000002703F10709B7420DD12046BDE8F883DC
:100C9000C9680879A04212D00968E6E7DB681A68DB
:100CA0000A601D60E8E719F83720EB6842453946CD
:100CB000187928BF4246FFF70BFE0137E3E70134FE
:100CC0000A2CD1D14FF0FF34DFE700BF080200202B
:100CD000AC32000024330000094A38B50123D2F8B1
:100CE000104482F820341D4604B938BDE3685D71B4
:100CF000236820465B689847E3681C68F4E700BFF8
:100D00000802002007B503460846197A052911D0C4
:100D10005B7A2BB1094A0A49019000F01DFA01984B
:100D20000849019000F018FA019803B05DF804EB4F
:100D300000F007BA002AF8D0F2E700BFA43600009E
:100D4000A9360000C936000030B5C38885B0044616
:100D50000D4633B1144A00921449154A284600F052
:100D6000FBF9217A05291DD0637A4BB1A088FFF7E2
:100D700099FD104B104953F82020284600F0ECF95B
:100D8000227A0E4BA08853F8222003920021FFF70D
:100D900075FD039A0A490346284605B0BDE8304070
:100DA00000F0DAB905B030BDA4360000B43600005A
:100DB000AC36000020370000A936000044370000A0
:100DC000CC3600002DE9F04385B01F460C9D002372
:100DD00095F80C902B7306460C46904629463846EB
:100DE000FFF7B2FFB8F1060F09D8DFE808F00412E8
:100DF000181F283340003146284600F0ADF9002284
:100E000029463846FFF77EFF85F80C9005B0BDE80F
:100E1000F08322683146284600F09EF9EFE7D4E9D6
:100E200000233146284600F097F9E8E7A3680093CD
:100E30003146D4E90023284600F08EF9DFE7E36865
:100E40000193A36800933146D4E90023284600F0BB
:100E500083F9D4E723690293E3680193A3680093BD
:100E60003146D4E90023284600F076F9C7E76369E4
:100E7000039323690293E3680193A36800933146C7
:100E8000D4E90023284600F067F9B8E708292DE9DE
:100E9000F74F80460E4617461C463CD8002593F86F
:100EA0000C901D7319461046FFF74EFFDFF888A01F
:100EB000DFF888B0AE4231D918F8052059462046EF
:100EC00000F04AF90135082DF4D11949194DDFF820
:100ED00070A0204600F040F94FF0000B5E4522D98B
:100EE00018F80B207E2A05D81046019202F040F92E
:100EF000019A00B92E225146204600F02DF90BF13F
:100F0000010BBBF1080FE9D1012221463846FFF75A
:100F1000F9FE84F80C9003B0BDE8F08F51462046EE
:100F200000F01AF9CEE72946204600F015F9E6E769
:100F3000E0360000DE360000DC360000D636000069
:100F4000E23600001FB50021039001AA44F201001F
:100F5000CDE9011100F004F805B05DF804FB0000D4
:100F600010B572B6FFF7B8FEFFF7E6FC0028FBD11C
:100F7000154C62884AB11548154B1649C01AC0086D
:100F8000000440F00100FFF757FE134B1B68DB071E
:100F900000D500BE6388012B09D90C480C4B0F49C2
:100FA000C01AC008000440F00200FFF745FEBFF37E
:100FB0004F8F0B490B4BCA6802F4E0621343CB60BE
:100FC000BFF34F8F00BFFDE71C000020E43200009C
:100FD000AC32000058370000F0ED00E0643700004C
:100FE00000ED00E00400FA0572B6024A136801330E
:100FF00013607047C4060020034A1368013B136066
:1010000003B962B6704700BFC4060020FFF7ECBF0B
:10101000FFF7F2BF024B034A1B681068184700BF76
:10102000D0060020C806002010B5034653E8000F84
:101030000A4643E8002494F0000FF7D110BD10B524
:10104000034653E8002F42EA010043E8000494F00D
:10105000000FF6D110BD10B5034653E8000F00EAAB
:10106000010243E8002494F0000FF6D110BD10B542
:10107000034653E8002F02EB010043E8000494F01C
:10108000000FF6D110BD10B5034653E8002FA2EBB8
:10109000010043E8000494F0000FF6D110BD0121D7
:1010A000FFF7CDBF0021FFF7D6BF10B590B1D0E953
:1010B000012301689B1ADBB20A60013BDBB2FF2B04
:1010C000026802D10020107110BD11684C1C146020
:1010D0000B70F2E70E20F7E738B504460020FFF763
:1010E00095FF226863681168994213D9481E106001
:1010F00011F8015CE368218B01FB0535A3681179C8
:101100001B1ADBB2994200D213710020FFF780FF57
:10111000284638BD0025F8E738B5054600200C46BE
:10112000FFF774FF2A681368591C1160E968641A94
:10113000298BB4FBF1F41C70BDE838400020FFF7A8
:1011400067BF826810B504462AB143690168006927
:1011500098470023A36010BD0EB403B5039921B1D5
:1011600004AB01AA019300F077F802B05DF804EB3C
:1011700003B070470A2938B504460D4602D10D2147
:10118000FFF7F8FFA3682268591CA160D554D4E981
:1011900001329A4204D32046BDE83840FFF7D1BF60
:1011A00038BD00002DE9F84F9846DDE90A431546A1
:1011B00082460F460A464FF00109AA420FD2C145A6
:1011C00038BFC14613F0010B01D16CB900240126D0
:1011D000B8F1010F1BD908F1FF386E43F8E709F1A8
:1011E0000109B2FBF5F2E8E79B070ED5B8F1000F55
:1011F0000CBF30262026A145E9D2013C314650469D
:10120000FFF7B8FF002CF6D1E0E72026F3E7B7FBA5
:10121000F6F39D42E1D9DFF83C80B7FBF6F3504688
:1012200018F8031006FB1377FFF7A4FF3346AB4211
:10123000B6FBF5F6F1D2BBF1000F02D00CB1A1451F
:1012400001D3BDE8F88F20215046013CFFF792FF03
:10125000F4E700BF963700002DE9F74F0546174623
:101260008846002900F0428118F8011B49B92B7B00
:10127000002B00F03B81284603B0BDE8F04FFFF79C
:1012800060BF252940F0B780002698F800302D2B4C
:10129000424608F1010823D0302B24D02B2B25D037
:1012A00000242A2B02F1010123D13B681A1D1B687F
:1012B0003A601C440A4613782E2B26D101324FF097
:1012C000000A104610F8011BA1F1300CBCF1090F07
:1012D0001DD80A2303FB0A13A3F1300A0246F0E7E4
:1012E00046F00106D1E746F00206CEE746F00406D6
:1012F000CBE711F8013CA3F130000928DBD80A2222
:1013000002FB0434303C0A46CBE74FF0000A12F8E7
:10131000011B01F0FB0068289046F8D0782909D815
:101320006F290CD8632962D022D8252963D0582987
:1013300000F0888098F80030002B95D197E770393D
:101340000829F7D801A353F821F000BFC714000003
:10135000351300003513000055140000351300004C
:10136000331400003513000035130000451400004D
:10137000642901D06929DDD13A68D2F80090111DA5
:1013800089EAE9723960A2EBE9724FF0010B092A90
:1013900035DCD34538BFD3462CB1B9F1000F01DBA2
:1013A000720700D5013CB30702D5BAF1000F03D094
:1013B000F00701D44CBB0024B9F1000F2DDAC9F1BC
:1013C00000092D212846FFF7D5FE06F00302022A68
:1013D00004D1BAF1000F01D11CBB0024CDE90046B5
:1013E00053460A2249462846FFF7DCFEA2E73B683F
:1013F0001A1D19783A602846FFF7BCFE9AE70A23BF
:101400000BF1010BB2FBF3F2C1E7A345D4D22021CB
:101410002846013CFFF7AEFECCE77107D5D52B215E
:10142000D0E7A345DAD230212846013CFFF7A2FEDF
:10143000D2E73968CDE900460A1D3A6053460A22D0
:101440000968D0E739680A1D3A60CDE9004653467D
:101450001022F5E73B681A1D3A6016F00106D3F832
:10146000009028D1B9F1000F03D0484601F0EDFEFD
:101470000646B44200D904BB09F1FF3919F8011F2F
:1014800000293FF457AF2846FFF774FEF6E72846D9
:101490000136FFF76FFE19F806100029F7D1A642B2
:1014A000BFF448AF002C3FF445AF20212846013C53
:1014B000FFF760FEF3E70026EDE720212846013C18
:1014C000FFF758FED5E73B681A1D3A6030212846E1
:1014D0001C68FFF74FFE78212846FFF74BFE0022DD
:1014E0000823CDE90032214610227CE703B0BDE895
:1014F000F08F00BF2DE9F84FB0F806A04579D2F87B
:1015000000B09DF828900AFB05F5043D88460BEBDA
:101510000301A94203F1040488BFA5EB030BB4FB4C
:10152000FAF607460AFB1644C2F800B04EB9AAEB19
:1015300004055D4528BF5D46BBF1000F04D1BDE841
:10154000F88F3F68013EF1E7043408EB06003C44A5
:101550002A46B9F1000F0DD02146ABEB050B01F087
:1015600029FEDA452E443F6855464FF0000428BF57
:101570005D46E1E701462046EFE7FFF796BDF8B587
:1015800046790146721E0546002393422D6803D317
:101590000024A64202D8F8BD0133F6E70F682846BA
:1015A000FFF7BAFD01343946F3E72DE9F843068B1E
:1015B000CD1C0746FFF790FD043E35440446B5FBBD
:1015C000F6F5F0B14FF48073EDB28380C680013D33
:1015D000076081464FF00008A84512D23846FFF751
:1015E0007BFD064648B163790133637108F1010858
:1015F000C9F8000007608146EEE72046FFF7BFFF0D
:1016000034462046BDE8F88301210430FFF72FBDA2
:1016100010B5012104460430FFF735FD10F0FF0F2F
:1016200004D12046BDE81040FFF7A9BF10BD1FB58B
:1016300003920022009203AAFFF75CFF05B05DF859
:1016400004FB1FB503920122009203AAFFF752FF89
:1016500005B05DF804FB836800225A60C3E90422E8
:101660009A60DA601A6070471FB503788DF8003011
:101670004368019383688DF80830C368054A039373
:10168000054B684653F8213052F82110984705B0B1
:101690005DF804FBD4060020D80600201FB50378AF
:1016A0008DF800304368019383688DF80830C36873
:1016B000054A0393054B684653F8213052F8211030
:1016C000984705B05DF804FBD4060020D80600203A
:1016D000F0B5194B90F800C091F81DE043F82C20AC
:1016E000164B16460A6943F82C20154B03F80CE0FC
:1016F0000C4607460FCC89B06D460FC594E80F0025
:1017000085E80F00CDF810C0BEF1000F09D0002E03
:101710000C4A694608BF3246381D00F0B1FB09B0DB
:10172000F0BD002E084A694608BF324607F10C009A
:1017300000F09EF9F3E700BFD8060020D406002091
:10174000DC060020691600009D160000024AD2F84F
:101750000034002BFBD0704700E001400A4908B577
:101760000223C1F80435BFF36F8FBFF34F8FC1F869
:101770000805FFF7EBFF0023C1F80435BFF36F8FB7
:10178000BFF34F8F08BD00BF00E0014010B5094C0A
:101790000123C4F80435BFF36F8FBFF34F8F01608F
:1017A000FFF7D4FF0023C4F80435BFF36F8FBFF3F6
:1017B0004F8F10BD00E001400E4B10B50124C3F85F
:1017C0000445BFF36F8FBFF34F8F01EB8204401AC4
:1017D000A14208D1074B0022C3F80425BFF36F8F45
:1017E000BFF34F8F10BD431851F8042B1A60FFF759
:1017F000ADFFEDE700E00140154B07B51A687AB17F
:1018000000221A601B680093009B4FF08043012266
:10181000C3F808230F4B587910B95A711B689847C1
:101820000D4B1A6882B100221A601B680193019B5C
:101830004FF080430222C3F80823064B1B680120A7
:1018400003B05DF804EB184703B05DF804FB00BF7C
:1018500000010040E006002004010040014B1B682D
:10186000184700BFE806002038B50B4B98420C46DD
:1018700001D0002038BD0020FFF7C8FB074B1D79C1
:1018800015B901221C601A710020FFF7C1FB002D61
:10189000EFD01120EEE700BF00200040E806002056
:1018A000034B984201BF034B00221A601A71704724
:1018B00000200040E80600200023435082B0435837
:1018C0000193019B02B070470A4610B54FF48E7128
:1018D000FFF7F2FF136A9168C95C136A0133136260
:1018E000C0F81C1510BD8B690A4610B54FF4847101
:1018F00023B9FFF7E1FFD0F8183510BDFFF7DCFF83
:10190000536AD168D0F81805C854536A013353623A
:10191000F3E700001FB501238DF80030044BCDE93B
:101920000110D3E900126846904705B05DF804FB4A
:10193000F006002030B54C48D0F8043313F4007F93
:1019400085B005464DD0D0F82431002B49D04FF456
:101950009271FFF7B1FF4FF40173C0F80833434BA6
:1019600093F829200AB9012242603F4902228DF8EA
:101970000020D1F88024C1F8802403929A69029251
:10198000DA6801920022C3E906226846D3E9001210
:1019900090473548D0F81C315BB134494A690B6A2D
:1019A0009A420A464AD991F82830002B46D1FFF7CF
:1019B0008BFF2D48D0F844318BB14FF4A271FFF763
:1019C0007BFF2A4B93F829200AB1012202609A6911
:1019D0002AB10022586AD9689A61FFF79BFF05B0C7
:1019E00030BDD5F804335B07D3D5D5F80831002BCB
:1019F000CFD01E4C1C482146FFF775FF636AA269D1
:101A00009A422346C5D1E269E1684AB12369E3609D
:101A10000023606AA261E3616362FFF77BFFB8E7BE
:101A200094F829200AB901226A600F4A4FF4017024
:101A3000C2F808030022586A9A61EEE70A484FF498
:101A40008E71FFF739FF5369002BB2D051690291B3
:101A5000002391688DF80030019153616846D2E906
:101A600000139847A5E700BF00200040F0060020C3
:101A70002DE9F843574B057991462C2202FB05329C
:101A8000064692F82A200C469846002A40F09D808F
:101A900051490068FFF7E8FE0746002840F09780AC
:101AA00021683368481C0BD04FF0A04001228A40C7
:101AB000C0F8082501F5E0724FF0030C40F822C091
:101AC0006068421C1FBF00F5E0724FF0A04C4FF061
:101AD000000E4CF822E0A269C3F8242594F814C043
:101AE000627DBCF1010F4CEA0202C3F86C25C3F819
:101AF0001405C3F80C151DD1A1684A1C1FBF01F5C0
:101B0000E0724FF0A0404FF0000C40F822C0E268B5
:101B1000501C0BD04FF0A04C01209040CCF8080591
:101B200002F5E0704FF0030E4CF820E0C3F80825F2
:101B3000C3F810152C236B4308EB0302C2F8049082
:101B4000226948F80320B9F1000F2BD03068247FB8
:101B50004FF48E71FFF7B0FE30684FF4A271FFF7BB
:101B6000ABFE32681D4BC2F80433110B42F307324F
:101B7000002AA8BF02F160404FEA4413BABF1848D8
:101B800001F00F0400F56140DBB2B4BF035580F8EB
:101B9000003301F01F01012303FA01F15209114B37
:101BA00043F8221033680422C3F800252C2303FBDA
:101BB00005830022C3E9062283F829205A61012205
:101BC00083F82A203846BDE8F8830827FAE711276A
:101BD000F8E700BFF0060020351900008000020081
:101BE00014ED00E000E100E0F8B5047900682C4D48
:101BF0000023C0F800352C2303FB04535B686BB152
:101C0000284BC0F8083340F30733C0F304315B09B5
:101C100001228A402033244941F82320D0F80C6562
:101C2000D0F81415D0F80835D0F810254FF0FF374C
:101C3000BE42C0F8147518BF06F5E076C0F80C7502
:101C4000C0F80875C0F810751EBF4FF0A0474FF0E0
:101C5000020C47F826C04E1C1FBF4FF0A04601F5EE
:101C6000E071022746F82170511C1FBF4FF0A041C0
:101C700002F5E072022641F822605A1C1FBF03F5EC
:101C8000E0734FF0A042022142F82310FFF708FE54
:101C90002C2303FB0454002384F82A306360F8BD2E
:101CA000F00600208402020000E100E02DE9F04788
:101CB000204F90F804904FF02C0808FB097405465B
:101CC0006669002E34D162610068A16026624FF41B
:101CD0008E7184F82860FFF7EFFD28680123836088
:101CE0002146FFF7F1FD6368A0468BB92868D4F858
:101CF00014A0236A9A4511D82A68D2F81C31002B07
:101D0000FBD00123D3602C2303FB097300225A610B
:101D10003046BDE8F08794F828303BB9D0F81C3144
:101D2000002BF8D04146FFF7CFFDE2E70F26EAE7A8
:101D30001126EDE7F00600200023435082B04358FF
:101D40000193019B02B070471FB501238DF800304D
:101D5000044BCDE90110D3E900126846904705B065
:101D60005DF804FB1C0700207FB5434AD2F82461CC
:101D7000002E60D010464FF49271FFF7DDFF022372
:101D80008DF80030D2F88034C2F880340393D2F852
:101D90003C350293394BDA6801920022C3E90622EE
:101DA0006846D3E9001290473348D0F8443173B104
:101DB0004FF4A271FFF7C0FF304B9A693AB100228D
:101DC000C3E90622D968D0F83C05FFF7BDFF2A48D1
:101DD000D0F82031ABB14FF49071FFF7ADFF012384
:101DE000C360264B5A6962B1D0F84C1502910022AB
:101DF00099688DF8002001915A616846D3E9001274
:101E000090471D48D0F858319BB14FF4AC71FFF7A3
:101E100093FF1A4B5A6962B1D0F84C150291002217
:101E200099688DF8002001915A616846D3E9001243
:101E3000904704B070BDD2F81031002BB4D04FF4ED
:101E400088711046FFF778FF0C4BD2F83C05996972
:101E50008842A9D1DC69D96864B1D2F8005225F072
:101E60002005C2F800521A699C61DA60DE61FFF752
:101E70006BFF99E79C61FAE7002000401C070020F7
:101E80002DE9F8435D4B06799146242202FB063288
:101E9000044692F820200D469846002A40F0AA8079
:101EA00057490068FFF7E0FC0746002840F0A4808F
:101EB00029682368481C0BD04FF0A04001228A40BB
:101EC000C0F8082501F5E0724FF0030C40F822C07D
:101ED0006868421C1FBF00F5E0724FF0A04C4FF045
:101EE000000E4CF822E0AA69C3F8242595F814C026
:101EF0006A7DBCF1010F4CEA0202C3F86C25C3F8FD
:101F00000C15C3F814051DD1A9684A1C1FBF01F5A3
:101F1000E0724FF0A0404FF0000C40F822C0EA6899
:101F2000501C0BD04FF0A04C01209040CCF808057D
:101F300002F5E0704FF0030E4CF820E0C3F80825DE
:101F4000C3F810152423734308EB0302C2F804906E
:101F50002A6948F80320B9F1000F3AD020682A7F97
:101F60004FF48871FFF7E8FE20684FF49071FFF797
:101F7000E3FE20684FF49271FFF7DEFE20684FF415
:101F8000A271FFF7D9FE20684FF4AC71FFF7D4FEC1
:101F900023681C49C3F80413190B43F30733002BC0
:101FA000AEBF03F1604001F00F0517484FEA42123F
:101FB000A8BF00F56140D2B2B4BF425580F80023FB
:101FC00001F01F01012202FA01F15B090F4A42F8F8
:101FD000231023680822C3F80025242303FB06836B
:101FE0000022C3E906225A61012283F820203846E4
:101FF000BDE8F8830827FAE71127F8E71C07002057
:10200000691D00001003420014ED00E000E100E053
:10201000F8B5374D0479242303FB045302465B686B
:1020200000686BB1334BC0F8083340F30733C0F39B
:1020300004365B090121B14020332F4E46F82310AE
:10204000D0F80032012623F02003C0F800324FF40C
:10205000AC714660FFF770FE1068C660D0F858316A
:10206000002BFBD00023C0F80035D0F80C65D0F869
:102070001415D0F80835D0F810254FF0FF37BE42C0
:10208000C0F80C7518BF06F5E076C0F81475C0F8F6
:102090000875C0F810751EBF4FF0A0474FF0020C36
:1020A00047F826C04E1C1FBF4FF0A04601F5E07157
:1020B000022746F82170511C1FBF4FF0A04102F5C6
:1020C000E072022641F822605A1C1FBF03F5E0733C
:1020D0004FF0A042022142F82310FFF7E1FB242336
:1020E00003FB0454002384F820306360F8BD00BF74
:1020F0001C0700201003420000E100E001F06043F3
:10210000B3F1005F2DE9F041064638D11E4B077947
:10211000242505FB073598466C69002C31D16A618E
:102120000068A9604FF49071FFF706FE4FF4AC71A0
:102130003068FFF701FE33686A69A968C3F844157F
:10214000C3F8482501229A606A68AAB9D3F8202109
:10215000D3F858411AB9002CF8D00F2407E0002C0E
:10216000FBD10122DA60D3F85821002AFBD02423C6
:1021700003FB078700237B612046BDE8F081102424
:10218000FAE71124F8E700BF1C07002000F18040A7
:1021900000F5E040002382B0036003680193019BD7
:1021A00002B07047F0B5504B504C1B6885B0002B07
:1021B0003DD04FF4827094F82E20FFF7E7FF2AB34A
:1021C00094F82F3013BB4A4B1B68002B33D04FF4CD
:1021D0008070FFF7DBFF638B94F82D108B424FD993
:1021E00022895B1A9BB292B26383D31A626802EBB4
:1021F0004303404AC2F82C36C2F830164FF48270BE
:10220000FFF7C4FF3C4B01221A6014E0636802939D
:102210002389ADF80C30E36800218DF8041023BB4E
:102220002374236801A89847002384F82F3094F87A
:102230002E30002BC7D1314B1B685BB14FF4887037
:10224000FFF7A4FF0023237402238DF8043001A8B4
:10225000236898472A4B1B68EBB14FF48A70FFF74D
:1022600095FF0023237405B0F0BD208B608363606D
:102270002081E160002AD4D11E4B01221A60D0E7F0
:10228000BCD1E368012284F82F2013B100226283BD
:10229000AFE76383B2E766694FF000470125002E80
:1022A000E1D0B6FA86F227FA02F34632920026EA25
:1022B000030602F1804303F5E0431B68002BEED0D8
:1022C0001046FFF763FFA2F58C72D30882F0040278
:1022D000C2F380028DF808308DF8045023688DF821
:1022E000092001A89847DAE7047100404007002060
:1022F0000071004000700040047000401071004008
:102300001471004038B51E4B044693F82C00A8BB4E
:102310001C4A19602178C2F8F0156178C2F8F415EA
:10232000E5781874012183F82C1083F82D0058618A
:1023300083F82F0083F82E506FF00043C2F8083363
:102340004FF48270FFF722FF4FF48070FFF71EFFFB
:102350004FF48A70FFF71AFFA3780B485B01DBB2DA
:1023600080F80733802303600223C2F804330DB1E1
:10237000C2F80413C2F80015002038BD0820FCE79D
:10238000400700200070004000E100E070B52A4BDB
:102390001A7C02F0FF05002A4BD10A79012A9CBF62
:1023A000264CC4F8005500F10C0503EB45042479D4
:1023B00024B993F82D40013483F82D4003EB4503F5
:1023C000CC790D7A8E781C715D714B7836021B01C9
:1023D00006F4E06603F0300333430E7806F003069C
:1023E0003343CE78360306F480563343160406F49E
:1023F000E02633434E798979360506F480160906BE
:10240000334301F080710B430C4901EB00160001CE
:1024100000F1804000F5E040012AC6F81835C0F808
:102420001455C0F8104502D80123C1F8003500202A
:1024300000E0112070BD00BF400700200070004088
:1024400070B5344A147C04F0FF03002C5FD1324C89
:10245000012503261574C4F80863C4F82C16C4F8C3
:10246000305692F82D10A9420CD91C46190101F1E1
:10247000804101F5E0410133082BC1F81445C1F852
:102480001045F3D100F10C03000102EB430300F10E
:10249000804000F5E04019795B79C0F81435C0F848
:1024A00010151D4901230B604B6042F2107301F5BA
:1024B0008271086808B9013BFBD14FF48070FFF7C7
:1024C00065FE4FF48270FFF761FE92F82D30012B0C
:1024D00011D9104800210B0103F1804303F5E043BB
:1024E0000131047F457FC3F814550829C3F810450E
:1024F00000F10200EFD192F82E10074B29B1032111
:102500000020C3F80413107470BD0221F8E71120F5
:10251000FAE700BF40070020007000402DE9F341BA
:10252000104C114F114E00254FF48038236883B1B1
:10253000D7F8043308FA05F21A420AD000232360C0
:1025400023680193A4F50040019B80B2D6E90031D5
:1025500098470135042D04F10404E7D102B0BDE829
:10256000F08100BF408100400080004070070020E3
:10257000704700001FB50C4A10685168127A01AB11
:1025800003C30A490A481A70FFF7BCFE08B1FEF7F8
:10259000D9FC01A90020FFF7F9FE08B1FEF7D2FC33
:1025A00005B05DF804FB00BF27390000712500006D
:1025B0003039000000B52DED028B2D4B012283B088
:1025C0001A60D3F80021002AFBD00022C3F80021B2
:1025D000D3F80825D3F80835920544BF6FEA835332
:1025E0006FEA9353002BB8BF03339B1007EE903A6A
:1025F0001F4B01225A601F4B5B88022BB8EEE78A03
:102600002DD91D481D4BC01AC008B5EEC08A000464
:10261000F1EE10FA40F0030028D5FFEE007AB4EE98
:10262000E78AF1EE10FA21DD154ADFED166A164948
:10263000BDEEC87AB5EEC08AF8EEC77AF1EE10FAB0
:10264000CCBF78EE677A77EEC87A17EE103A67EE6D
:10265000A67AFDEEE77ACDED007AFEF7F1FAB0EE5C
:10266000480A03B0BDEC028B5DF804FB074ADCE7C7
:1026700000C000401C000020E4320000AC3200002A
:10268000E33700000000C842E5370000CB36000009
:102690002DE9F04784B00668731C9B00DA1D22F018
:1026A000070202AFADEB020D02AD043BC5F5FE2102
:1026B000BCEEC00A044601AA2B4404319A422BD135
:1026C00010EE103A4FF4FE2045F82630FFF746F89A
:1026D0002268274EDFF8A890DFF8B0A029464FF413
:1026E000FE200132FFF768F8224B2348C01AC008C9
:1026F000030443F003000025236872889D420FD92C
:10270000022A05D9002200921C491D4AFEF798FAB8
:102710000837BD46BDE8F087885842F8040FCDE77A
:10272000022A22D94FF00008154ACDF80080514600
:102730007860FEF785FA73887868022B15D92B46E6
:102740001049CDF800804A46FEF77AFA7388786817
:10275000022B0AD9AB0003F5FE23CDF800801B68DD
:1027600009494A46FEF76CFA78680135C4E700BFAC
:102770001C000020AC320000E432000051380000A0
:10278000CB36000020380000323800000738000047
:1027900000B52DED028B9FED307A83B0002383428C
:1027A0004CDB2E4B07EE900A5B88F8EEE77A022BA3
:1027B00087EE278A2DD92A482A4BC01AC008000460
:1027C00040F00300B5EEC08AF1EE10FA41D5FFEEFD
:1027D000007AB4EEE78AF1EE10FA3ADD224ADFED34
:1027E000236A2349BDEEC87AB5EEC08AF8EEC77AEF
:1027F000F1EE10FACCBF78EE677A77EEC87A17EE72
:10280000103A67EEA67AFDEEE77ACDED007AFEF794
:1028100017FA4FF4FA20FEF7A1FFFCEEC87A4FF446
:10282000FA2017EE901AFEF7B1FF4FF4FE20FEF7E4
:1028300095FF03B0BDEC028B5DF804FB9A0002F536
:10284000FE22D2ED007AF8EE677A013337EE277A6E
:10285000A5E7084AC3E700BF000000001C000020F5
:10286000E4320000AC320000E33700000000C84250
:1028700075380000CB3600002DE9F04F2DED028BAE
:1028800085B0FFF777FE7E4B002018604FF4804143
:10289000FDF79CFF08B1FEF755FBFDF7A9FE794C4B
:1028A000794B7A4DE41A6B88E4082404022B44F037
:1028B000030409D9002300934FF4FC23744A1B68D6
:1028C00074492046FEF7BCF94FF4FC20036801333D
:1028D00002D10021FEF75AFF6B88022B09D9002391
:1028E00000934FF4FC236A4A1B686B492046FEF7AD
:1028F000A7F96A4BDFF8CC915FA7D7E900674FF0E3
:10290000000843F0010A0DF10E010020FFF798FDC9
:10291000BDF90E0000F096FB32463B4600F0F6FA99
:102920004B46424600F0F2FA00F0A0FB6B88022B07
:1029300008EE100A27D9B5EEC08AF1EE10FA7CD560
:10294000FFEE007AB4EEE78AF1EE10FA75DD544A34
:10295000DFED546A5449BDEEC87AB5EEC08AF8EE90
:10296000C77AF1EE10FACCBF78EE677A77EEC87AC4
:1029700017EE103A67EEA67A2046FDEEE77ACDED27
:10298000007AFEF75DF9F0EE047AB4EEE78AF1EE34
:1029900010FA6B8866DD022B09D9002300934FF4EF
:1029A000FC233B4A1B6841492046FEF749F94FF496
:1029B000FC226B881268092A41D8022B03D93C49B2
:1029C0002046FEF739F9FFF7F5FD0A214FF4FC2008
:1029D000FFF75EFE4FF4FC231B6803F1010B6B88CD
:1029E000022B07D900230093294A32495B4620462F
:1029F000FEF726F94FF4FC20FEF7B0FE59464FF4DF
:102A0000FC20FEF7C3FE6B88022B09D9002300933C
:102A10004FF4FC231E4A1B6827492046FEF710F995
:102A200041F2883B4FF47A40D047BBF1010BF9D11A
:102A3000FDF782FF0028FBD165E7154A88E7022BE6
:102A400003D91E492046FEF7F7F80A20FFF7A0FE3B
:102A50004FF4FC20FEF782FE00214FF4FC20FEF72D
:102A600095FEDDE7022BDBD915492046FEF7E4F899
:102A7000D6E700BFAFF30080CDCCCCCCCCCC0C40A3
:102A800004C50040E4320000AC3200001C0000200D
:102A9000CB3600009F380000993800004039000014
:102AA000E33700000000C842B4380000FD380000E1
:102AB000C7380000D1380000F33800000C3900009E
:102AC000183900000000503F0369C1688B429DBF68
:102AD0008268D21802F1FF3203F1FF3394BF501A1B
:102AE000581A70472DE9F843D0E902940546A9EB3E
:102AF00004084068904520440F46144404D900F06F
:102B000059FBEC60BDE8F8834246A4EB090400F0F1
:102B100051FB6868224607EB0801F0E72DE9F8430E
:102B2000C5680646894617464FF000083469B36801
:102B30007068A54228BFE418013C621B5C1BBC42C4
:102B400028BF3C46944228BF1446494628442246A2
:102B500000F030FBB3682544AB4208BF00253F1BA3
:102B6000A044A144F560E1D14046BDE8F8830000EF
:102B700010B5114C114AA2610223C4E90433104B71
:102B8000E361A2644FF400730E4A0F492362E264CA
:102B900000231022E01DA3626362E362A365636504
:102BA000E365226500F02FFB0849204600F02BFB6F
:102BB0002023A37110BD00BF7C0700204639000010
:102BC00004080020F40700204F39000053390000AA
:102BD000F8B5184C182300FB033503FB00402544CF
:102BE000C46A012C0F4616460FD0022C1AD0F4B935
:102BF0002846FFF769FF864205D8324639462846FF
:102C0000FFF770FF34462046F8BD2846FFF75CFF0B
:102C10008642344628BF0446224639462846FFF7F6
:102C200061FFF0E72846BDE8F840FFF777BF0024D2
:102C3000E9E700BF7C070020FFF79ABF0C4B1B7829
:102C4000062B10D10B4B1B681A070CD10A4B1868C6
:102C500000F0F003302B08D000F0E000A0F14003BA
:102C6000584258417047002070470120704700BF0C
:102C7000E00F00F0E40F00F0E80F00F0094B1B78C4
:102C8000062B0CD1084B1B681A0708D1074B186894
:102C900000F0F000A0F13003584258417047002086
:102CA000704700BFE00F00F0E40F00F0E80F00F005
:102CB00008B5FFF7C3FF28B17D4B7E4A1B68C3F3FD
:102CC00004231360FFF7DAFF10B17B4B7B4A1A60D5
:102CD000FFF7B4FF28B17A4B7A4A1B68C3F342333B
:102CE0001360FFF7CBFF20B1774AD36823F08073DE
:102CF000D360FFF7A3FF40B14FF080430022C3F839
:102D00000C21C3F81021C3F83825FFF7B7FF10B125
:102D10006E4B03221A60FFF7B1FF40B16C4B0522E6
:102D20001A6001229A6700229A603F225A60694B1A
:102D30001B78062B50D1684B1B6819074CD1674B89
:102D40001B6803F0F003502B46D14FF08052644BC8
:102D5000D2F80414C3F82015D2F80814C3F82415C7
:102D6000D2F80C14C3F82815D2F81014C3F82C1597
:102D7000D2F81414C3F83015D2F81814C3F8341567
:102D8000D2F81C14C3F84015D2F82014C3F8441527
:102D9000D2F82414C3F84815D2F82814C3F84C15F7
:102DA000D2F82C14C3F85015D2F83014C3F85415C7
:102DB000D2F83414C3F86015D2F83814C3F8641587
:102DC000D2F83C14C3F86815D2F84014C3F86C1557
:102DD000D2F84424C3F87025FFF730FF28B1414BE7
:102DE000414A1B6803F04F031360FFF727FF48B108
:102DF0004FF08043D3F80024D20744BF6FF00102A4
:102E0000C3F80024394B1B68062B08D1384B1B68CC
:102E1000062B01BF374A136843F480631360364AB8
:102E2000D2F8883043F47003C2F88830BFF34F8F74
:102E3000BFF36F8F4FF01023D3F80022002A03DB7B
:102E4000D3F80432002B2FDA2C4B0122C3F80425CF
:102E5000D3F80024002AFBD04FF010221521C2F82D
:102E60000012D3F80024002AFBD04FF010231522C3
:102E7000C3F80422214B1A46D3F800140029FBD0D2
:102E80000021C3F80415D2F80034002BFBD0BFF3A7
:102E90004F8F19491A4BCA6802F4E0621343CB60A2
:102EA000BFF34F8F00BFFDE7164B174A1A6008BDEE
:102EB000240300104035014074C007400DF0ADBA46
:102EC000440200103C050040F0ED00E0A005004089
:102ED00010560040E00F00F0E40F00F0E80F00F0A3
:102EE00000C0004058020010E40E00403001001005
:102EF000340100103C17004000ED00E000E001400C
:102F00000400FA059C0000200090D003F0B540F2C8
:102F1000FF7681EA030C16EA115E1EBFB64516EA7B
:102F20001355B5425AD021EA465141F48011A1FB14
:102F3000024723EA465343F48013AE44A0FB0365E3
:102F40000CF0004C36197D41A1FB034747F100030B
:102F5000A0FB0217F619654153F10003094218BF9F
:102F600046F0010640F2FE74B3F5007F13D2AEF5D1
:102F7000806EA6452BD24CEA0331280341EA155155
:102F800040EA16503203450872F1004250F1000049
:102F900051EB0E51F0BDAEF2FF3EA64517D24CEA02
:102FA000C321E80241EA555140EA5650F202450871
:102FB00072F1004250F1000051EB0E51F0BD0CF0E7
:102FC000004141F0FE4141F470010020F0BD1EEAD5
:102FD0000E0FF4D50CF000410020F0BD16EA115F91
:102FE00004BF01F000410020004218BF41F0010180
:102FF00016EA135F04BF03F000430022124218BF19
:1030000043F0010306EA1354B44218BF9EEA060FC8
:1030100003D00CF000410020F0BD21F0004123F06E
:103020000043B1EB065F06D8B3EB065F03D8002977
:1030300018BF002BC3D140F20001C7F6F871002081
:10304000F0BD00BF80B110F0004248BFD0F10000D9
:10305000120D02F21D42B0FA80F18840521AC30AE2
:10306000400503EB025170470100704701F0004238
:103070008B1AA3F16051B1F5801F0ADBB1F17F6FAC
:1030800009D242EAC102C10071F1004142EB507025
:1030900070471046704701285B4113F5001F04D8A4
:1030A00042F0FE4040F400007047C90041EA507011
:1030B00040EA020040F4800040F08040704700BFCA
:1030C0007F2805D8034B185C034B5B5C18407047A6
:1030D0000020704768390000E8390000A0F1610362
:1030E000192B98BF20387047A0F14103192B98BFC6
:1030F000203070477F2805D8034B185C034B5B5C7E
:10310000184070470020704768390000E839000017
:10311000A0F16103192B98BF20387047A0F141033B
:10312000192B98BF203070477F299ABF017001206A
:103130006FF02E0070475AB10A787F2A0AD800B182
:103140000260002119605960501A18BF01207047B1
:10315000002070476FF02E007047000008B5034B49
:103160005B689B681B68984708BD00BFA0000020F3
:1031700008B50921FFF7F2FF08BDCAB170B41446C3
:10318000012A10D00A4603462044461E114618461E
:1031900013F8014B3CB101320D78A54203D118461A
:1031A00011469E42F2D100780B78C01A70BC70476D
:1031B00000207047844640EA010313F0030F18D142
:1031C0008446202A0BD32DE9F007B1E8F807A0E8E0
:1031D000F807A2F12002202AF7D2BDE8F007042A5E
:1031E00007D351F8043B40F8043BA2F10402042A3F
:1031F000F7D2002A05D011F8013B00F8013B013A53
:10320000F9D160467047024610F0030F16D111F055
:10321000030F13D12DE9F0004FF001374FF0803349
:1032200051F8044BA4EB070525EA04051D4002D123
:1032300042F8044BF4E7A1F10401F0BC11F8013BA2
:1032400002F8013B002BF9D1704700F1010110F0A9
:10325000030F11D010F8012B002A23D010F0030F18
:103260000AD010F8012B002A1CD010F0030F03D055
:1032700010F8012B002A15D02DE970004FF0013213
:103280004FF0803350F8044BA4EB020525EA040507
:103290001D4000D1F6E7A0F1040070BC10F8012B2E
:0A32A000002AFBD1A0EB01007047EB
:1032AC00BE37000000000000D33700000000000013
:1032BC00C437000000000000D737000000000000F9
:1032CC00DD37000000000000C837000000000000DF
:1032DC00CD370000000000007F3600000000030323
:1032EC00833700000000000071370000000000036D
:1032FC0083360000000000038D3700000000000042
:10330C00B837000000000000A637000000000000E5
:08331C00AF37000000000000C3
:10332400E833000000000000313400008C0000206D
:103334001434000000000000203400009400002039
:103344003801002000020020080200204001002073
:0C335400280000208A360000180000004D
:10336000000000000000000000000000000000005D
:10337000000000000000000000000000000000004D
:10338000000000000000000000000000000000003D
:0C33900000000000000000000000000031
:10339C000000000000000000000000000000000021
:1033AC000000000000000000000000000000000011
:1033BC000000000000000000000000000000000001
:0C33CC00000000000000000000000000F5
:1033D80000000000000000000338FDD8704700001E
:1033E800D503000041040000D1030000FFFFFFFFE8
:1033F800FFFFFFFFFFFFFFFFFFFFFFFF00000000D1
:10340800000000000000D601060100000D050000C4
:10341800C105000009050000756172745F6C6F6773
:103428005F6261636B656E64007274745F6C6F6772
:103438005F6261636B656E64004261636B656E64B5
:103448007320666C7573686564006C6F6700436F02
:103458006D6D616E647320666F7220636F6E747237
:103468006F6C6C696E67206C6F67676572004C6F74
:1034780067676572206261636B656E647320636F52
:103488006D6D616E64732E00636F6E666967004DC3
:10349800616E616765206C6F6767657220636F6E28
:1034A80066696775726174696F6E00276C6F672053
:1034B80064697361626C65203C6D6F64756C655FEF
:1034C800303E202E2E203C6D6F64756C655F6E3E1D
:1034D800272064697361626C6573206C6F67732061
:1034E800696E20737065636966696564206D6F64D1
:1034F800756C65732028616C6C206966206E6F207E
:103508006D6F64756C657320737065636966696552
:1035180064292E00276C6F6720656E61626C6520D8
:103528003C6C6576656C3E203C6D6F64756C655FC0
:10353800303E202E2E2E20203C6D6F64756C655F0A
:103548006E3E2720656E61626C6573206C6F6773D1
:1035580020757020746F20676976656E206C6576BB
:10356800656C20696E20737065636966696564209F
:103578006D6F64756C65732028616C6C20696620BA
:103588006E6F206D6F64756C657320737065636909
:1035980066696564292E00676F00526573756D65ED
:1035A800206C6F6767696E670068616C74004861BA
:1035B8006C74206C6F6767696E67006C6973745F01
:1035C8006261636B656E6473004C69737473206C1D
:1035D8006F67676572206261636B656E64732E0046
:1035E8004C6F6767657220737461747573006C6FD4
:1035F8006164004C6F616420636F6E666967757201
:103608006174696F6E2073746F72656420696E20CF
:103618006E6F6E2D766F6C6174696C65206D656D6B
:103628006F72792E0073746F72650053746F7265D0
:103638002063757272656E7420636F6E6669677554
:10364800726174696F6E20696E206E6F6E2D766F71
:103658006C6174696C65206D656D6F72792E00649C
:103668006562756700696E666F006E6F6E650077DC
:1036780061726E696E67006170700062616C6C6F78
:10368800632E6C6F675F6D656D706F6F6C00000007
:103698002C0600207F000000AC0600201B5B306D6C
:1036A800002573001B5B313B33316D0025734C6F74
:1036B80067732064726F70706564202825642925FB
:1036C800730D0A003C25733E2025733A20002025FF
:1036D80030327800202020007C002563001B5B31FD
:1036E8003B33306D001B5B313B33326D001B5B316C
:1036F8003B33336D001B5B313B33346D001B5B3157
:103708003B33356D001B5B313B33366D001B5B3142
:103718003B33376D00000000A4360000E53600009A
:10372800AC360000ED360000F5360000FD3600002E
:10373800053700000D3700001537000000000000B5
:103748005E370000773600006D36000067360000EF
:10375800466174616C206572726F7200537973747C
:10376800656D2072657365740061746669666F2E95
:103778006D5F7265715F6669666F006170705F7416
:10378800696D657200636C695F75617274003031D0
:1037980032333435363738394142434445467077F9
:1037A800725F6D676D7400736F72746C6973740007
:1037B800636C6F636B00434C4F434B005052530094
:1037C80055415254005541525445005050490053F8
:1037D800414144430054494D4552002D0046697209
:1037E80073742074656D7065726174757265206993
:1037F800733A20257325642E25303264200A006927
:10380800206D656D6F72792069733A202573256480
:103818002E25303264200A006A2069733A20257305
:1038280025642E25303264200A00496E206D656DAE
:103838006F727920646174612069733A2025732559
:10384800642E25303264200A006920617420656E78
:1038580064206F6620665F73746F72652069733ABF
:1038680020257325642E25303264200A00417665B0
:10387800726167652074656D7065726174757265D3
:103888002069733A20257325642E25303264200A76
:1038980000616674657220546573742069733A20F8
:1038A800257325642E25303264200A00566F6C7407
:1038B800733A20257325642E25303264200A00755A
:1038C800736F20752069660A0069206166746572E5
:1038D80020662D73746F726528292069733A202534
:1038E8007325642E25303264200A0061667465727F
:1038F800206E657720693A20257325642E2530329D
:1039080064200A0075736F207520656C73650A0062
:103918004E6F7420706F737369626C65210A0000C2
:10392800000000020000090001000600000000007D
:1039380000000000000000000338FDD870475465FF
:10394800726D696E616C0052545400534547474587
:103958005200000043000000504F53495800000037
:1039680020202020202020202068282828282020E7
:10397800202020202020202020202020202020203F
:1039880048101010101010101010101010101010F7
:103998008484848484848484848410101010101097
:1039A80010818181818181010101010101010101F0
:1039B80001010101010101010101011010101010A4
:1039C80010828282828282020202020202020202C1
:1039D8000202020202020202020202101010102069
:1039E8000007032004170201085710408000000058
:1039F8005C390000603A0000743B000053756E00AB
:103A08004D6F6E0054756500576564005468750005
:103A18004672690053617400000000004A616E003C
:103A2800466562004D617200417072004D61790017
:103A38004A756E004A756C004175670053657000E1
:103A48004F6374004E6F7600446563000000000009
:103A5800414D00504D000000983B0000943B000091
:103A6800943B0000943B0000943B0000943B000012
:103A7800943B0000943B0000943B0000943B000002
:103A8800FFFFFFFFFFFFFFFFFFFFFFFFFFFF00003C
:103A9800D43A0000043A0000103B0000243A000029
:103AA800583A0000B83A0000683B0000C43A0000E9
:103AB800256D2F25642F257900000000256120251C
:103AC80062202565202554202559000053756E6411
:103AD8006179004D6F6E6461790054756573646136
:103AE80079005765646E657364617900546875720E
:103AF8007364617900467269646179005361747511
:103B080072646179000000004A616E756172790023
:103B18004665627275617279004D61726368004131
:103B28007072696C004D6179004A756E65004A755E
:103B38006C79004175677573740053657074656DB1
:103B4800626572004F63746F626572004E6F7665CE
:103B58006D62657200446563656D626572000000A0
:103B680025483A254D3A255300000000C130000091
:103B7800DD300000E9300000F530000011310000B0
:103B88001D3100002931000037310000000000001D
:023B98002E00FD
:103B9C000000000000200040000000000020004059
:103BAC000000000000000000FF000000000000000A
:103BBC00FF0000000090D003F8390000F839000035
:0C3BCC00F8390000F8390000F83900005A
:040000030000037581
:00000001FF
